{
	"contracts/project.sol": {
		"PetAdoption": {
			"abi": [
				{
					"inputs": [],
					"stateMutability": "nonpayable",
					"type": "constructor"
				},
				{
					"anonymous": false,
					"inputs": [
						{
							"indexed": false,
							"internalType": "uint256",
							"name": "newRate",
							"type": "uint256"
						}
					],
					"name": "AdoptionFeeRateSet",
					"type": "event"
				},
				{
					"anonymous": false,
					"inputs": [
						{
							"indexed": false,
							"internalType": "uint256",
							"name": "petId",
							"type": "uint256"
						},
						{
							"indexed": false,
							"internalType": "address",
							"name": "adopter",
							"type": "address"
						},
						{
							"indexed": false,
							"internalType": "uint256",
							"name": "adoptionStartTime",
							"type": "uint256"
						}
					],
					"name": "PetAdopted",
					"type": "event"
				},
				{
					"anonymous": false,
					"inputs": [
						{
							"indexed": false,
							"internalType": "uint256",
							"name": "petId",
							"type": "uint256"
						},
						{
							"indexed": false,
							"internalType": "address",
							"name": "adopter",
							"type": "address"
						},
						{
							"indexed": false,
							"internalType": "uint256",
							"name": "adoptionEndTime",
							"type": "uint256"
						},
						{
							"indexed": false,
							"internalType": "uint256",
							"name": "adoptionDuration",
							"type": "uint256"
						},
						{
							"indexed": false,
							"internalType": "uint256",
							"name": "adoptionFee",
							"type": "uint256"
						}
					],
					"name": "PetReturned",
					"type": "event"
				},
				{
					"inputs": [
						{
							"internalType": "string",
							"name": "_petName",
							"type": "string"
						},
						{
							"internalType": "string",
							"name": "_breed",
							"type": "string"
						},
						{
							"internalType": "uint256",
							"name": "_age",
							"type": "uint256"
						}
					],
					"name": "addPet",
					"outputs": [],
					"stateMutability": "nonpayable",
					"type": "function"
				},
				{
					"inputs": [
						{
							"internalType": "uint256",
							"name": "petId",
							"type": "uint256"
						}
					],
					"name": "adoptPet",
					"outputs": [],
					"stateMutability": "payable",
					"type": "function"
				},
				{
					"inputs": [],
					"name": "adoptionFeeRate",
					"outputs": [
						{
							"internalType": "uint256",
							"name": "",
							"type": "uint256"
						}
					],
					"stateMutability": "view",
					"type": "function"
				},
				{
					"inputs": [
						{
							"internalType": "address",
							"name": "",
							"type": "address"
						},
						{
							"internalType": "uint256",
							"name": "",
							"type": "uint256"
						}
					],
					"name": "adoptionHistory",
					"outputs": [
						{
							"internalType": "uint256",
							"name": "petId",
							"type": "uint256"
						},
						{
							"internalType": "uint256",
							"name": "adoptionStartTime",
							"type": "uint256"
						},
						{
							"internalType": "uint256",
							"name": "adoptionEndTime",
							"type": "uint256"
						},
						{
							"internalType": "uint256",
							"name": "adoptionFee",
							"type": "uint256"
						}
					],
					"stateMutability": "view",
					"type": "function"
				},
				{
					"inputs": [
						{
							"internalType": "uint256",
							"name": "petId",
							"type": "uint256"
						}
					],
					"name": "deletePet",
					"outputs": [],
					"stateMutability": "nonpayable",
					"type": "function"
				},
				{
					"inputs": [],
					"name": "getAdoptionHistory",
					"outputs": [
						{
							"components": [
								{
									"internalType": "uint256",
									"name": "petId",
									"type": "uint256"
								},
								{
									"internalType": "uint256",
									"name": "adoptionStartTime",
									"type": "uint256"
								},
								{
									"internalType": "uint256",
									"name": "adoptionEndTime",
									"type": "uint256"
								},
								{
									"internalType": "uint256",
									"name": "adoptionFee",
									"type": "uint256"
								}
							],
							"internalType": "struct PetAdoption.AdoptionHistory[]",
							"name": "",
							"type": "tuple[]"
						}
					],
					"stateMutability": "view",
					"type": "function"
				},
				{
					"inputs": [],
					"name": "getAvailablePets",
					"outputs": [
						{
							"internalType": "uint256[]",
							"name": "availablePetIds",
							"type": "uint256[]"
						}
					],
					"stateMutability": "view",
					"type": "function"
				},
				{
					"inputs": [
						{
							"internalType": "uint256",
							"name": "petId",
							"type": "uint256"
						}
					],
					"name": "getPetDetails",
					"outputs": [
						{
							"internalType": "string",
							"name": "petName",
							"type": "string"
						},
						{
							"internalType": "string",
							"name": "breed",
							"type": "string"
						},
						{
							"internalType": "uint256",
							"name": "age",
							"type": "uint256"
						},
						{
							"internalType": "address",
							"name": "adopter",
							"type": "address"
						},
						{
							"internalType": "uint256",
							"name": "adoptionStartTime",
							"type": "uint256"
						}
					],
					"stateMutability": "view",
					"type": "function"
				},
				{
					"inputs": [],
					"name": "owner",
					"outputs": [
						{
							"internalType": "address",
							"name": "",
							"type": "address"
						}
					],
					"stateMutability": "view",
					"type": "function"
				},
				{
					"inputs": [
						{
							"internalType": "uint256",
							"name": "",
							"type": "uint256"
						}
					],
					"name": "pets",
					"outputs": [
						{
							"internalType": "string",
							"name": "petName",
							"type": "string"
						},
						{
							"internalType": "string",
							"name": "breed",
							"type": "string"
						},
						{
							"internalType": "uint256",
							"name": "age",
							"type": "uint256"
						},
						{
							"internalType": "address",
							"name": "adopter",
							"type": "address"
						},
						{
							"internalType": "uint256",
							"name": "adoptionStartTime",
							"type": "uint256"
						}
					],
					"stateMutability": "view",
					"type": "function"
				},
				{
					"inputs": [
						{
							"internalType": "uint256",
							"name": "petId",
							"type": "uint256"
						}
					],
					"name": "returnPet",
					"outputs": [],
					"stateMutability": "nonpayable",
					"type": "function"
				},
				{
					"inputs": [
						{
							"internalType": "uint256",
							"name": "newRate",
							"type": "uint256"
						}
					],
					"name": "setAdoptionFeeRate",
					"outputs": [],
					"stateMutability": "nonpayable",
					"type": "function"
				},
				{
					"inputs": [],
					"name": "totalPets",
					"outputs": [
						{
							"internalType": "uint256",
							"name": "",
							"type": "uint256"
						}
					],
					"stateMutability": "view",
					"type": "function"
				}
			],
			"devdoc": {
				"kind": "dev",
				"methods": {},
				"version": 1
			},
			"evm": {
				"assembly": "    /* \"contracts/project.sol\":57:4334  contract PetAdoption {... */\n  mstore(0x40, 0x80)\n    /* \"contracts/project.sol\":1302:1419  constructor() {... */\n  callvalue\n  dup1\n  iszero\n  tag_1\n  jumpi\n  0x00\n  dup1\n  revert\ntag_1:\n  pop\n    /* \"contracts/project.sol\":1334:1344  msg.sender */\n  caller\n    /* \"contracts/project.sol\":1326:1331  owner */\n  0x00\n  dup1\n    /* \"contracts/project.sol\":1326:1344  owner = msg.sender */\n  0x0100\n  exp\n  dup2\n  sload\n  dup2\n  0xffffffffffffffffffffffffffffffffffffffff\n  mul\n  not\n  and\n  swap1\n  dup4\n  0xffffffffffffffffffffffffffffffffffffffff\n  and\n  mul\n  or\n  swap1\n  sstore\n  pop\n    /* \"contracts/project.sol\":1372:1382  0.01 ether */\n  0x2386f26fc10000\n    /* \"contracts/project.sol\":1354:1369  adoptionFeeRate */\n  0x04\n    /* \"contracts/project.sol\":1354:1382  adoptionFeeRate = 0.01 ether */\n  dup2\n  swap1\n  sstore\n  pop\n    /* \"contracts/project.sol\":57:4334  contract PetAdoption {... */\n  dataSize(sub_0)\n  dup1\n  dataOffset(sub_0)\n  0x00\n  codecopy\n  0x00\n  return\nstop\n\nsub_0: assembly {\n        /* \"contracts/project.sol\":57:4334  contract PetAdoption {... */\n      mstore(0x40, 0x80)\n      jumpi(tag_1, lt(calldatasize, 0x04))\n      shr(0xe0, calldataload(0x00))\n      dup1\n      0x8da5cb5b\n      gt\n      tag_15\n      jumpi\n      dup1\n      0xbdb92e8e\n      gt\n      tag_16\n      jumpi\n      dup1\n      0xbdb92e8e\n      eq\n      tag_11\n      jumpi\n      dup1\n      0xcfb869bf\n      eq\n      tag_12\n      jumpi\n      dup1\n      0xd749e429\n      eq\n      tag_13\n      jumpi\n      dup1\n      0xd89fd4b4\n      eq\n      tag_14\n      jumpi\n      jump(tag_1)\n    tag_16:\n      dup1\n      0x8da5cb5b\n      eq\n      tag_8\n      jumpi\n      dup1\n      0x987eae8f\n      eq\n      tag_9\n      jumpi\n      dup1\n      0xae37a1b5\n      eq\n      tag_10\n      jumpi\n      jump(tag_1)\n    tag_15:\n      dup1\n      0x19b81577\n      eq\n      tag_2\n      jumpi\n      dup1\n      0x39e776ae\n      eq\n      tag_3\n      jumpi\n      dup1\n      0x3fb53d79\n      eq\n      tag_4\n      jumpi\n      dup1\n      0x4f154c54\n      eq\n      tag_5\n      jumpi\n      dup1\n      0x5476fc70\n      eq\n      tag_6\n      jumpi\n      dup1\n      0x8a150da7\n      eq\n      tag_7\n      jumpi\n    tag_1:\n      0x00\n      dup1\n      revert\n        /* \"contracts/project.sol\":2110:2505  function adoptPet(uint256 petId) external payable validPetId(petId) {... */\n    tag_2:\n      tag_17\n      0x04\n      dup1\n      calldatasize\n      sub\n      dup2\n      add\n      swap1\n      tag_18\n      swap2\n      swap1\n      tag_19\n      jump\t// in\n    tag_18:\n      tag_20\n      jump\t// in\n    tag_17:\n      stop\n        /* \"contracts/project.sol\":459:519  mapping(address => AdoptionHistory[]) public adoptionHistory */\n    tag_3:\n      callvalue\n      dup1\n      iszero\n      tag_21\n      jumpi\n      0x00\n      dup1\n      revert\n    tag_21:\n      pop\n      tag_22\n      0x04\n      dup1\n      calldatasize\n      sub\n      dup2\n      add\n      swap1\n      tag_23\n      swap2\n      swap1\n      tag_24\n      jump\t// in\n    tag_23:\n      tag_25\n      jump\t// in\n    tag_22:\n      mload(0x40)\n      tag_26\n      swap5\n      swap4\n      swap3\n      swap2\n      swap1\n      tag_27\n      jump\t// in\n    tag_26:\n      mload(0x40)\n      dup1\n      swap2\n      sub\n      swap1\n      return\n        /* \"contracts/project.sol\":3634:3764  function getAdoptionHistory() external view returns (AdoptionHistory[] memory) {... */\n    tag_4:\n      callvalue\n      dup1\n      iszero\n      tag_28\n      jumpi\n      0x00\n      dup1\n      revert\n    tag_28:\n      pop\n      tag_29\n      tag_30\n      jump\t// in\n    tag_29:\n      mload(0x40)\n      tag_31\n      swap2\n      swap1\n      tag_32\n      jump\t// in\n    tag_31:\n      mload(0x40)\n      dup1\n      swap2\n      sub\n      swap1\n      return\n        /* \"contracts/project.sol\":3770:4332  function getAvailablePets() external view returns (uint256[] memory availablePetIds) {... */\n    tag_5:\n      callvalue\n      dup1\n      iszero\n      tag_33\n      jumpi\n      0x00\n      dup1\n      revert\n    tag_33:\n      pop\n      tag_34\n      tag_35\n      jump\t// in\n    tag_34:\n      mload(0x40)\n      tag_36\n      swap2\n      swap1\n      tag_37\n      jump\t// in\n    tag_36:\n      mload(0x40)\n      dup1\n      swap2\n      sub\n      swap1\n      return\n        /* \"contracts/project.sol\":1425:1573  function setAdoptionFeeRate(uint256 newRate) external onlyOwner {... */\n    tag_6:\n      callvalue\n      dup1\n      iszero\n      tag_38\n      jumpi\n      0x00\n      dup1\n      revert\n    tag_38:\n      pop\n      tag_39\n      0x04\n      dup1\n      calldatasize\n      sub\n      dup2\n      add\n      swap1\n      tag_40\n      swap2\n      swap1\n      tag_19\n      jump\t// in\n    tag_40:\n      tag_41\n      jump\t// in\n    tag_39:\n      stop\n        /* \"contracts/project.sol\":555:585  uint256 public adoptionFeeRate */\n    tag_7:\n      callvalue\n      dup1\n      iszero\n      tag_42\n      jumpi\n      0x00\n      dup1\n      revert\n    tag_42:\n      pop\n      tag_43\n      tag_44\n      jump\t// in\n    tag_43:\n      mload(0x40)\n      tag_45\n      swap2\n      swap1\n      tag_46\n      jump\t// in\n    tag_45:\n      mload(0x40)\n      dup1\n      swap2\n      sub\n      swap1\n      return\n        /* \"contracts/project.sol\":84:104  address public owner */\n    tag_8:\n      callvalue\n      dup1\n      iszero\n      tag_47\n      jumpi\n      0x00\n      dup1\n      revert\n    tag_47:\n      pop\n      tag_48\n      tag_49\n      jump\t// in\n    tag_48:\n      mload(0x40)\n      tag_50\n      swap2\n      swap1\n      tag_51\n      jump\t// in\n    tag_50:\n      mload(0x40)\n      dup1\n      swap2\n      sub\n      swap1\n      return\n        /* \"contracts/project.sol\":525:549  uint256 public totalPets */\n    tag_9:\n      callvalue\n      dup1\n      iszero\n      tag_52\n      jumpi\n      0x00\n      dup1\n      revert\n    tag_52:\n      pop\n      tag_53\n      tag_54\n      jump\t// in\n    tag_53:\n      mload(0x40)\n      tag_55\n      swap2\n      swap1\n      tag_46\n      jump\t// in\n    tag_55:\n      mload(0x40)\n      dup1\n      swap2\n      sub\n      swap1\n      return\n        /* \"contracts/project.sol\":1579:1905  function addPet(string memory _petName, string memory _breed, uint256 _age) external onlyOwner {... */\n    tag_10:\n      callvalue\n      dup1\n      iszero\n      tag_56\n      jumpi\n      0x00\n      dup1\n      revert\n    tag_56:\n      pop\n      tag_57\n      0x04\n      dup1\n      calldatasize\n      sub\n      dup2\n      add\n      swap1\n      tag_58\n      swap2\n      swap1\n      tag_59\n      jump\t// in\n    tag_58:\n      tag_60\n      jump\t// in\n    tag_57:\n      stop\n        /* \"contracts/project.sol\":2511:3176  function returnPet(uint256 petId) external onlyAdopter(petId) validPetId(petId) {... */\n    tag_11:\n      callvalue\n      dup1\n      iszero\n      tag_61\n      jumpi\n      0x00\n      dup1\n      revert\n    tag_61:\n      pop\n      tag_62\n      0x04\n      dup1\n      calldatasize\n      sub\n      dup2\n      add\n      swap1\n      tag_63\n      swap2\n      swap1\n      tag_19\n      jump\t// in\n    tag_63:\n      tag_64\n      jump\t// in\n    tag_62:\n      stop\n        /* \"contracts/project.sol\":418:453  mapping(uint256 => Pet) public pets */\n    tag_12:\n      callvalue\n      dup1\n      iszero\n      tag_65\n      jumpi\n      0x00\n      dup1\n      revert\n    tag_65:\n      pop\n      tag_66\n      0x04\n      dup1\n      calldatasize\n      sub\n      dup2\n      add\n      swap1\n      tag_67\n      swap2\n      swap1\n      tag_19\n      jump\t// in\n    tag_67:\n      tag_68\n      jump\t// in\n    tag_66:\n      mload(0x40)\n      tag_69\n      swap6\n      swap5\n      swap4\n      swap3\n      swap2\n      swap1\n      tag_70\n      jump\t// in\n    tag_69:\n      mload(0x40)\n      dup1\n      swap2\n      sub\n      swap1\n      return\n        /* \"contracts/project.sol\":1911:2104  function deletePet(uint256 petId) external onlyOwner {... */\n    tag_13:\n      callvalue\n      dup1\n      iszero\n      tag_71\n      jumpi\n      0x00\n      dup1\n      revert\n    tag_71:\n      pop\n      tag_72\n      0x04\n      dup1\n      calldatasize\n      sub\n      dup2\n      add\n      swap1\n      tag_73\n      swap2\n      swap1\n      tag_19\n      jump\t// in\n    tag_73:\n      tag_74\n      jump\t// in\n    tag_72:\n      stop\n        /* \"contracts/project.sol\":3334:3628  function getPetDetails(uint256 petId) external view returns (string memory petName, string memory breed, uint256 age, address adopter, uint256 adoptionStartTime) {... */\n    tag_14:\n      callvalue\n      dup1\n      iszero\n      tag_75\n      jumpi\n      0x00\n      dup1\n      revert\n    tag_75:\n      pop\n      tag_76\n      0x04\n      dup1\n      calldatasize\n      sub\n      dup2\n      add\n      swap1\n      tag_77\n      swap2\n      swap1\n      tag_19\n      jump\t// in\n    tag_77:\n      tag_78\n      jump\t// in\n    tag_76:\n      mload(0x40)\n      tag_79\n      swap6\n      swap5\n      swap4\n      swap3\n      swap2\n      swap1\n      tag_70\n      jump\t// in\n    tag_79:\n      mload(0x40)\n      dup1\n      swap2\n      sub\n      swap1\n      return\n        /* \"contracts/project.sol\":2110:2505  function adoptPet(uint256 petId) external payable validPetId(petId) {... */\n    tag_20:\n        /* \"contracts/project.sol\":2171:2176  petId */\n      dup1\n        /* \"contracts/project.sol\":947:956  totalPets */\n      sload(0x03)\n        /* \"contracts/project.sol\":939:944  petId */\n      dup2\n        /* \"contracts/project.sol\":939:956  petId < totalPets */\n      lt\n        /* \"contracts/project.sol\":931:975  require(petId < totalPets, \"Invalid pet ID\") */\n      tag_81\n      jumpi\n      mload(0x40)\n      0x08c379a000000000000000000000000000000000000000000000000000000000\n      dup2\n      mstore\n      0x04\n      add\n      tag_82\n      swap1\n      tag_83\n      jump\t// in\n    tag_82:\n      mload(0x40)\n      dup1\n      swap2\n      sub\n      swap1\n      revert\n    tag_81:\n        /* \"contracts/project.sol\":2227:2228  0 */\n      0x00\n        /* \"contracts/project.sol\":2196:2229  pets[petId].adopter == address(0) */\n      0xffffffffffffffffffffffffffffffffffffffff\n      and\n        /* \"contracts/project.sol\":2196:2200  pets */\n      0x01\n        /* \"contracts/project.sol\":2196:2207  pets[petId] */\n      0x00\n        /* \"contracts/project.sol\":2201:2206  petId */\n      dup5\n        /* \"contracts/project.sol\":2196:2207  pets[petId] */\n      dup2\n      mstore\n      0x20\n      add\n      swap1\n      dup2\n      mstore\n      0x20\n      add\n      0x00\n      keccak256\n        /* \"contracts/project.sol\":2196:2215  pets[petId].adopter */\n      0x03\n      add\n      0x00\n      swap1\n      sload\n      swap1\n      0x0100\n      exp\n      swap1\n      div\n      0xffffffffffffffffffffffffffffffffffffffff\n      and\n        /* \"contracts/project.sol\":2196:2229  pets[petId].adopter == address(0) */\n      0xffffffffffffffffffffffffffffffffffffffff\n      and\n      eq\n        /* \"contracts/project.sol\":2188:2256  require(pets[petId].adopter == address(0), \"Pet is already adopted\") */\n      tag_85\n      jumpi\n      mload(0x40)\n      0x08c379a000000000000000000000000000000000000000000000000000000000\n      dup2\n      mstore\n      0x04\n      add\n      tag_86\n      swap1\n      tag_87\n      jump\t// in\n    tag_86:\n      mload(0x40)\n      dup1\n      swap2\n      sub\n      swap1\n      revert\n    tag_85:\n        /* \"contracts/project.sol\":2287:2302  adoptionFeeRate */\n      sload(0x04)\n        /* \"contracts/project.sol\":2274:2283  msg.value */\n      callvalue\n        /* \"contracts/project.sol\":2274:2302  msg.value >= adoptionFeeRate */\n      lt\n      iszero\n        /* \"contracts/project.sol\":2266:2336  require(msg.value >= adoptionFeeRate, \"Insufficient fee for adoption\") */\n      tag_88\n      jumpi\n      mload(0x40)\n      0x08c379a000000000000000000000000000000000000000000000000000000000\n      dup2\n      mstore\n      0x04\n      add\n      tag_89\n      swap1\n      tag_90\n      jump\t// in\n    tag_89:\n      mload(0x40)\n      dup1\n      swap2\n      sub\n      swap1\n      revert\n    tag_88:\n        /* \"contracts/project.sol\":2369:2379  msg.sender */\n      caller\n        /* \"contracts/project.sol\":2347:2351  pets */\n      0x01\n        /* \"contracts/project.sol\":2347:2358  pets[petId] */\n      0x00\n        /* \"contracts/project.sol\":2352:2357  petId */\n      dup5\n        /* \"contracts/project.sol\":2347:2358  pets[petId] */\n      dup2\n      mstore\n      0x20\n      add\n      swap1\n      dup2\n      mstore\n      0x20\n      add\n      0x00\n      keccak256\n        /* \"contracts/project.sol\":2347:2366  pets[petId].adopter */\n      0x03\n      add\n      0x00\n        /* \"contracts/project.sol\":2347:2379  pets[petId].adopter = msg.sender */\n      0x0100\n      exp\n      dup2\n      sload\n      dup2\n      0xffffffffffffffffffffffffffffffffffffffff\n      mul\n      not\n      and\n      swap1\n      dup4\n      0xffffffffffffffffffffffffffffffffffffffff\n      and\n      mul\n      or\n      swap1\n      sstore\n      pop\n        /* \"contracts/project.sol\":2421:2436  block.timestamp */\n      timestamp\n        /* \"contracts/project.sol\":2389:2393  pets */\n      0x01\n        /* \"contracts/project.sol\":2389:2400  pets[petId] */\n      0x00\n        /* \"contracts/project.sol\":2394:2399  petId */\n      dup5\n        /* \"contracts/project.sol\":2389:2400  pets[petId] */\n      dup2\n      mstore\n      0x20\n      add\n      swap1\n      dup2\n      mstore\n      0x20\n      add\n      0x00\n      keccak256\n        /* \"contracts/project.sol\":2389:2418  pets[petId].adoptionStartTime */\n      0x04\n      add\n        /* \"contracts/project.sol\":2389:2436  pets[petId].adoptionStartTime = block.timestamp */\n      dup2\n      swap1\n      sstore\n      pop\n        /* \"contracts/project.sol\":2452:2498  PetAdopted(petId, msg.sender, block.timestamp) */\n      0x6bbc04cd9f7bf9831cd5eba47dc9f5f589da3dfe1324b72461514271655ceb99\n        /* \"contracts/project.sol\":2463:2468  petId */\n      dup3\n        /* \"contracts/project.sol\":2470:2480  msg.sender */\n      caller\n        /* \"contracts/project.sol\":2482:2497  block.timestamp */\n      timestamp\n        /* \"contracts/project.sol\":2452:2498  PetAdopted(petId, msg.sender, block.timestamp) */\n      mload(0x40)\n      tag_91\n      swap4\n      swap3\n      swap2\n      swap1\n      tag_92\n      jump\t// in\n    tag_91:\n      mload(0x40)\n      dup1\n      swap2\n      sub\n      swap1\n      log1\n        /* \"contracts/project.sol\":2110:2505  function adoptPet(uint256 petId) external payable validPetId(petId) {... */\n      pop\n      pop\n      jump\t// out\n        /* \"contracts/project.sol\":459:519  mapping(address => AdoptionHistory[]) public adoptionHistory */\n    tag_25:\n      mstore(0x20, 0x02)\n      dup2\n      0x00\n      mstore\n      keccak256(0x00, 0x40)\n      dup2\n      dup2\n      sload\n      dup2\n      lt\n      tag_93\n      jumpi\n      0x00\n      dup1\n      revert\n    tag_93:\n      swap1\n      0x00\n      mstore\n      keccak256(0x00, 0x20)\n      swap1\n      0x04\n      mul\n      add\n      0x00\n      swap2\n      pop\n      swap2\n      pop\n      pop\n      dup1\n      0x00\n      add\n      sload\n      swap1\n      dup1\n      0x01\n      add\n      sload\n      swap1\n      dup1\n      0x02\n      add\n      sload\n      swap1\n      dup1\n      0x03\n      add\n      sload\n      swap1\n      pop\n      dup5\n      jump\t// out\n        /* \"contracts/project.sol\":3634:3764  function getAdoptionHistory() external view returns (AdoptionHistory[] memory) {... */\n    tag_30:\n        /* \"contracts/project.sol\":3687:3711  AdoptionHistory[] memory */\n      0x60\n        /* \"contracts/project.sol\":3730:3745  adoptionHistory */\n      0x02\n        /* \"contracts/project.sol\":3730:3757  adoptionHistory[msg.sender] */\n      0x00\n        /* \"contracts/project.sol\":3746:3756  msg.sender */\n      caller\n        /* \"contracts/project.sol\":3730:3757  adoptionHistory[msg.sender] */\n      0xffffffffffffffffffffffffffffffffffffffff\n      and\n      0xffffffffffffffffffffffffffffffffffffffff\n      and\n      dup2\n      mstore\n      0x20\n      add\n      swap1\n      dup2\n      mstore\n      0x20\n      add\n      0x00\n      keccak256\n        /* \"contracts/project.sol\":3723:3757  return adoptionHistory[msg.sender] */\n      dup1\n      sload\n      dup1\n      0x20\n      mul\n      0x20\n      add\n      mload(0x40)\n      swap1\n      dup2\n      add\n      0x40\n      mstore\n      dup1\n      swap3\n      swap2\n      swap1\n      dup2\n      dup2\n      mstore\n      0x20\n      add\n      0x00\n      swap1\n    tag_96:\n      dup3\n      dup3\n      lt\n      iszero\n      tag_97\n      jumpi\n      dup4\n      dup3\n      swap1\n      0x00\n      mstore\n      keccak256(0x00, 0x20)\n      swap1\n      0x04\n      mul\n      add\n      mload(0x40)\n      dup1\n      0x80\n      add\n      0x40\n      mstore\n      swap1\n      dup2\n      0x00\n      dup3\n      add\n      sload\n      dup2\n      mstore\n      0x20\n      add\n      0x01\n      dup3\n      add\n      sload\n      dup2\n      mstore\n      0x20\n      add\n      0x02\n      dup3\n      add\n      sload\n      dup2\n      mstore\n      0x20\n      add\n      0x03\n      dup3\n      add\n      sload\n      dup2\n      mstore\n      pop\n      pop\n      dup2\n      mstore\n      0x20\n      add\n      swap1\n      0x01\n      add\n      swap1\n      jump(tag_96)\n    tag_97:\n      pop\n      pop\n      pop\n      pop\n      swap1\n      pop\n        /* \"contracts/project.sol\":3634:3764  function getAdoptionHistory() external view returns (AdoptionHistory[] memory) {... */\n      swap1\n      jump\t// out\n        /* \"contracts/project.sol\":3770:4332  function getAvailablePets() external view returns (uint256[] memory availablePetIds) {... */\n    tag_35:\n        /* \"contracts/project.sol\":3821:3853  uint256[] memory availablePetIds */\n      0x60\n        /* \"contracts/project.sol\":3865:3878  uint256 count */\n      0x00\n        /* \"contracts/project.sol\":3898:3907  uint256 i */\n      dup1\n        /* \"contracts/project.sol\":3893:4032  for (uint256 i = 0; i < totalPets; i++) {... */\n    tag_100:\n        /* \"contracts/project.sol\":3917:3926  totalPets */\n      sload(0x03)\n        /* \"contracts/project.sol\":3913:3914  i */\n      dup2\n        /* \"contracts/project.sol\":3913:3926  i < totalPets */\n      lt\n        /* \"contracts/project.sol\":3893:4032  for (uint256 i = 0; i < totalPets; i++) {... */\n      iszero\n      tag_101\n      jumpi\n        /* \"contracts/project.sol\":3978:3979  0 */\n      0x00\n        /* \"contracts/project.sol\":3951:3980  pets[i].adopter == address(0) */\n      0xffffffffffffffffffffffffffffffffffffffff\n      and\n        /* \"contracts/project.sol\":3951:3955  pets */\n      0x01\n        /* \"contracts/project.sol\":3951:3958  pets[i] */\n      0x00\n        /* \"contracts/project.sol\":3956:3957  i */\n      dup4\n        /* \"contracts/project.sol\":3951:3958  pets[i] */\n      dup2\n      mstore\n      0x20\n      add\n      swap1\n      dup2\n      mstore\n      0x20\n      add\n      0x00\n      keccak256\n        /* \"contracts/project.sol\":3951:3966  pets[i].adopter */\n      0x03\n      add\n      0x00\n      swap1\n      sload\n      swap1\n      0x0100\n      exp\n      swap1\n      div\n      0xffffffffffffffffffffffffffffffffffffffff\n      and\n        /* \"contracts/project.sol\":3951:3980  pets[i].adopter == address(0) */\n      0xffffffffffffffffffffffffffffffffffffffff\n      and\n      sub\n        /* \"contracts/project.sol\":3947:4022  if (pets[i].adopter == address(0)) {... */\n      tag_103\n      jumpi\n        /* \"contracts/project.sol\":4000:4007  count++ */\n      dup2\n      dup1\n      tag_104\n      swap1\n      tag_105\n      jump\t// in\n    tag_104:\n      swap3\n      pop\n      pop\n        /* \"contracts/project.sol\":3947:4022  if (pets[i].adopter == address(0)) {... */\n    tag_103:\n        /* \"contracts/project.sol\":3928:3931  i++ */\n      dup1\n      dup1\n      0x01\n      add\n      swap2\n      pop\n      pop\n        /* \"contracts/project.sol\":3893:4032  for (uint256 i = 0; i < totalPets; i++) {... */\n      jump(tag_100)\n    tag_101:\n      pop\n        /* \"contracts/project.sol\":4074:4079  count */\n      dup1\n        /* \"contracts/project.sol\":4060:4080  new uint256[](count) */\n      0xffffffffffffffff\n      dup2\n      gt\n      iszero\n      tag_106\n      jumpi\n      tag_107\n      tag_108\n      jump\t// in\n    tag_107:\n    tag_106:\n      mload(0x40)\n      swap1\n      dup1\n      dup3\n      mstore\n      dup1\n      0x20\n      mul\n      0x20\n      add\n      dup3\n      add\n      0x40\n      mstore\n      dup1\n      iszero\n      tag_109\n      jumpi\n      dup2\n      0x20\n      add\n      0x20\n      dup3\n      mul\n      dup1\n      calldatasize\n      dup4\n      calldatacopy\n      dup1\n      dup3\n      add\n      swap2\n      pop\n      pop\n      swap1\n      pop\n    tag_109:\n      pop\n        /* \"contracts/project.sol\":4042:4080  availablePetIds = new uint256[](count) */\n      swap2\n      pop\n        /* \"contracts/project.sol\":4098:4099  0 */\n      0x00\n        /* \"contracts/project.sol\":4090:4099  count = 0 */\n      swap1\n      pop\n        /* \"contracts/project.sol\":4115:4124  uint256 i */\n      0x00\n        /* \"contracts/project.sol\":4110:4293  for (uint256 i = 0; i < totalPets; i++) {... */\n    tag_110:\n        /* \"contracts/project.sol\":4134:4143  totalPets */\n      sload(0x03)\n        /* \"contracts/project.sol\":4130:4131  i */\n      dup2\n        /* \"contracts/project.sol\":4130:4143  i < totalPets */\n      lt\n        /* \"contracts/project.sol\":4110:4293  for (uint256 i = 0; i < totalPets; i++) {... */\n      iszero\n      tag_111\n      jumpi\n        /* \"contracts/project.sol\":4195:4196  0 */\n      0x00\n        /* \"contracts/project.sol\":4168:4197  pets[i].adopter == address(0) */\n      0xffffffffffffffffffffffffffffffffffffffff\n      and\n        /* \"contracts/project.sol\":4168:4172  pets */\n      0x01\n        /* \"contracts/project.sol\":4168:4175  pets[i] */\n      0x00\n        /* \"contracts/project.sol\":4173:4174  i */\n      dup4\n        /* \"contracts/project.sol\":4168:4175  pets[i] */\n      dup2\n      mstore\n      0x20\n      add\n      swap1\n      dup2\n      mstore\n      0x20\n      add\n      0x00\n      keccak256\n        /* \"contracts/project.sol\":4168:4183  pets[i].adopter */\n      0x03\n      add\n      0x00\n      swap1\n      sload\n      swap1\n      0x0100\n      exp\n      swap1\n      div\n      0xffffffffffffffffffffffffffffffffffffffff\n      and\n        /* \"contracts/project.sol\":4168:4197  pets[i].adopter == address(0) */\n      0xffffffffffffffffffffffffffffffffffffffff\n      and\n      sub\n        /* \"contracts/project.sol\":4164:4283  if (pets[i].adopter == address(0)) {... */\n      tag_113\n      jumpi\n        /* \"contracts/project.sol\":4242:4243  i */\n      dup1\n        /* \"contracts/project.sol\":4217:4232  availablePetIds */\n      dup4\n        /* \"contracts/project.sol\":4233:4238  count */\n      dup4\n        /* \"contracts/project.sol\":4217:4239  availablePetIds[count] */\n      dup2\n      mload\n      dup2\n      lt\n      tag_114\n      jumpi\n      tag_115\n      tag_116\n      jump\t// in\n    tag_115:\n    tag_114:\n      0x20\n      mul\n      0x20\n      add\n      add\n        /* \"contracts/project.sol\":4217:4243  availablePetIds[count] = i */\n      dup2\n      dup2\n      mstore\n      pop\n      pop\n        /* \"contracts/project.sol\":4261:4268  count++ */\n      dup2\n      dup1\n      tag_117\n      swap1\n      tag_105\n      jump\t// in\n    tag_117:\n      swap3\n      pop\n      pop\n        /* \"contracts/project.sol\":4164:4283  if (pets[i].adopter == address(0)) {... */\n    tag_113:\n        /* \"contracts/project.sol\":4145:4148  i++ */\n      dup1\n      dup1\n      0x01\n      add\n      swap2\n      pop\n      pop\n        /* \"contracts/project.sol\":4110:4293  for (uint256 i = 0; i < totalPets; i++) {... */\n      jump(tag_110)\n    tag_111:\n      pop\n        /* \"contracts/project.sol\":4303:4325  return availablePetIds */\n      pop\n        /* \"contracts/project.sol\":3770:4332  function getAvailablePets() external view returns (uint256[] memory availablePetIds) {... */\n      swap1\n      jump\t// out\n        /* \"contracts/project.sol\":1425:1573  function setAdoptionFeeRate(uint256 newRate) external onlyOwner {... */\n    tag_41:\n        /* \"contracts/project.sol\":668:673  owner */\n      0x00\n      dup1\n      sload\n      swap1\n      0x0100\n      exp\n      swap1\n      div\n      0xffffffffffffffffffffffffffffffffffffffff\n      and\n        /* \"contracts/project.sol\":654:673  msg.sender == owner */\n      0xffffffffffffffffffffffffffffffffffffffff\n      and\n        /* \"contracts/project.sol\":654:664  msg.sender */\n      caller\n        /* \"contracts/project.sol\":654:673  msg.sender == owner */\n      0xffffffffffffffffffffffffffffffffffffffff\n      and\n      eq\n        /* \"contracts/project.sol\":646:711  require(msg.sender == owner, \"Only owner can call this function\") */\n      tag_119\n      jumpi\n      mload(0x40)\n      0x08c379a000000000000000000000000000000000000000000000000000000000\n      dup2\n      mstore\n      0x04\n      add\n      tag_120\n      swap1\n      tag_121\n      jump\t// in\n    tag_120:\n      mload(0x40)\n      dup1\n      swap2\n      sub\n      swap1\n      revert\n    tag_119:\n        /* \"contracts/project.sol\":1517:1524  newRate */\n      dup1\n        /* \"contracts/project.sol\":1499:1514  adoptionFeeRate */\n      0x04\n        /* \"contracts/project.sol\":1499:1524  adoptionFeeRate = newRate */\n      dup2\n      swap1\n      sstore\n      pop\n        /* \"contracts/project.sol\":1539:1566  AdoptionFeeRateSet(newRate) */\n      0x76b21930ec5cd7f2240b14fa98d02b99c8aff60563d9d3711bd437be3e6e6325\n        /* \"contracts/project.sol\":1558:1565  newRate */\n      dup2\n        /* \"contracts/project.sol\":1539:1566  AdoptionFeeRateSet(newRate) */\n      mload(0x40)\n      tag_123\n      swap2\n      swap1\n      tag_46\n      jump\t// in\n    tag_123:\n      mload(0x40)\n      dup1\n      swap2\n      sub\n      swap1\n      log1\n        /* \"contracts/project.sol\":1425:1573  function setAdoptionFeeRate(uint256 newRate) external onlyOwner {... */\n      pop\n      jump\t// out\n        /* \"contracts/project.sol\":555:585  uint256 public adoptionFeeRate */\n    tag_44:\n      sload(0x04)\n      dup2\n      jump\t// out\n        /* \"contracts/project.sol\":84:104  address public owner */\n    tag_49:\n      0x00\n      dup1\n      sload\n      swap1\n      0x0100\n      exp\n      swap1\n      div\n      0xffffffffffffffffffffffffffffffffffffffff\n      and\n      dup2\n      jump\t// out\n        /* \"contracts/project.sol\":525:549  uint256 public totalPets */\n    tag_54:\n      sload(0x03)\n      dup2\n      jump\t// out\n        /* \"contracts/project.sol\":1579:1905  function addPet(string memory _petName, string memory _breed, uint256 _age) external onlyOwner {... */\n    tag_60:\n        /* \"contracts/project.sol\":668:673  owner */\n      0x00\n      dup1\n      sload\n      swap1\n      0x0100\n      exp\n      swap1\n      div\n      0xffffffffffffffffffffffffffffffffffffffff\n      and\n        /* \"contracts/project.sol\":654:673  msg.sender == owner */\n      0xffffffffffffffffffffffffffffffffffffffff\n      and\n        /* \"contracts/project.sol\":654:664  msg.sender */\n      caller\n        /* \"contracts/project.sol\":654:673  msg.sender == owner */\n      0xffffffffffffffffffffffffffffffffffffffff\n      and\n      eq\n        /* \"contracts/project.sol\":646:711  require(msg.sender == owner, \"Only owner can call this function\") */\n      tag_125\n      jumpi\n      mload(0x40)\n      0x08c379a000000000000000000000000000000000000000000000000000000000\n      dup2\n      mstore\n      0x04\n      add\n      tag_126\n      swap1\n      tag_121\n      jump\t// in\n    tag_126:\n      mload(0x40)\n      dup1\n      swap2\n      sub\n      swap1\n      revert\n    tag_125:\n        /* \"contracts/project.sol\":1684:1697  uint256 petId */\n      0x00\n        /* \"contracts/project.sol\":1700:1709  totalPets */\n      0x03\n      0x00\n        /* \"contracts/project.sol\":1700:1711  totalPets++ */\n      dup2\n      sload\n      dup1\n      swap3\n      swap2\n      swap1\n      tag_128\n      swap1\n      tag_105\n      jump\t// in\n    tag_128:\n      swap2\n      swap1\n      pop\n      sstore\n        /* \"contracts/project.sol\":1684:1711  uint256 petId = totalPets++ */\n      swap1\n      pop\n        /* \"contracts/project.sol\":1735:1898  Pet({... */\n      mload(0x40)\n      dup1\n      0xa0\n      add\n      0x40\n      mstore\n      dup1\n        /* \"contracts/project.sol\":1762:1770  _petName */\n      dup6\n        /* \"contracts/project.sol\":1735:1898  Pet({... */\n      dup2\n      mstore\n      0x20\n      add\n        /* \"contracts/project.sol\":1791:1797  _breed */\n      dup5\n        /* \"contracts/project.sol\":1735:1898  Pet({... */\n      dup2\n      mstore\n      0x20\n      add\n        /* \"contracts/project.sol\":1816:1820  _age */\n      dup4\n        /* \"contracts/project.sol\":1735:1898  Pet({... */\n      dup2\n      mstore\n      0x20\n      add\n        /* \"contracts/project.sol\":1851:1852  0 */\n      0x00\n        /* \"contracts/project.sol\":1735:1898  Pet({... */\n      0xffffffffffffffffffffffffffffffffffffffff\n      and\n      dup2\n      mstore\n      0x20\n      add\n        /* \"contracts/project.sol\":1886:1887  0 */\n      0x00\n        /* \"contracts/project.sol\":1735:1898  Pet({... */\n      dup2\n      mstore\n      pop\n        /* \"contracts/project.sol\":1721:1725  pets */\n      0x01\n        /* \"contracts/project.sol\":1721:1732  pets[petId] */\n      0x00\n        /* \"contracts/project.sol\":1726:1731  petId */\n      dup4\n        /* \"contracts/project.sol\":1721:1732  pets[petId] */\n      dup2\n      mstore\n      0x20\n      add\n      swap1\n      dup2\n      mstore\n      0x20\n      add\n      0x00\n      keccak256\n        /* \"contracts/project.sol\":1721:1898  pets[petId] = Pet({... */\n      0x00\n      dup3\n      add\n      mload\n      dup2\n      0x00\n      add\n      swap1\n      dup2\n      tag_129\n      swap2\n      swap1\n      tag_130\n      jump\t// in\n    tag_129:\n      pop\n      0x20\n      dup3\n      add\n      mload\n      dup2\n      0x01\n      add\n      swap1\n      dup2\n      tag_131\n      swap2\n      swap1\n      tag_130\n      jump\t// in\n    tag_131:\n      pop\n      0x40\n      dup3\n      add\n      mload\n      dup2\n      0x02\n      add\n      sstore\n      0x60\n      dup3\n      add\n      mload\n      dup2\n      0x03\n      add\n      exp(0x0100, 0x00)\n      dup2\n      sload\n      dup2\n      0xffffffffffffffffffffffffffffffffffffffff\n      mul\n      not\n      and\n      swap1\n      dup4\n      0xffffffffffffffffffffffffffffffffffffffff\n      and\n      mul\n      or\n      swap1\n      sstore\n      pop\n      0x80\n      dup3\n      add\n      mload\n      dup2\n      0x04\n      add\n      sstore\n      swap1\n      pop\n      pop\n        /* \"contracts/project.sol\":1674:1905  {... */\n      pop\n        /* \"contracts/project.sol\":1579:1905  function addPet(string memory _petName, string memory _breed, uint256 _age) external onlyOwner {... */\n      pop\n      pop\n      pop\n      jump\t// out\n        /* \"contracts/project.sol\":2511:3176  function returnPet(uint256 petId) external onlyAdopter(petId) validPetId(petId) {... */\n    tag_64:\n        /* \"contracts/project.sol\":2566:2571  petId */\n      dup1\n        /* \"contracts/project.sol\":803:807  pets */\n      0x01\n        /* \"contracts/project.sol\":803:814  pets[petId] */\n      0x00\n        /* \"contracts/project.sol\":808:813  petId */\n      dup3\n        /* \"contracts/project.sol\":803:814  pets[petId] */\n      dup2\n      mstore\n      0x20\n      add\n      swap1\n      dup2\n      mstore\n      0x20\n      add\n      0x00\n      keccak256\n        /* \"contracts/project.sol\":803:822  pets[petId].adopter */\n      0x03\n      add\n      0x00\n      swap1\n      sload\n      swap1\n      0x0100\n      exp\n      swap1\n      div\n      0xffffffffffffffffffffffffffffffffffffffff\n      and\n        /* \"contracts/project.sol\":789:822  msg.sender == pets[petId].adopter */\n      0xffffffffffffffffffffffffffffffffffffffff\n      and\n        /* \"contracts/project.sol\":789:799  msg.sender */\n      caller\n        /* \"contracts/project.sol\":789:822  msg.sender == pets[petId].adopter */\n      0xffffffffffffffffffffffffffffffffffffffff\n      and\n      eq\n        /* \"contracts/project.sol\":781:862  require(msg.sender == pets[petId].adopter, \"Only adopter can call this function\") */\n      tag_133\n      jumpi\n      mload(0x40)\n      0x08c379a000000000000000000000000000000000000000000000000000000000\n      dup2\n      mstore\n      0x04\n      add\n      tag_134\n      swap1\n      tag_135\n      jump\t// in\n    tag_134:\n      mload(0x40)\n      dup1\n      swap2\n      sub\n      swap1\n      revert\n    tag_133:\n        /* \"contracts/project.sol\":2584:2589  petId */\n      dup2\n        /* \"contracts/project.sol\":947:956  totalPets */\n      sload(0x03)\n        /* \"contracts/project.sol\":939:944  petId */\n      dup2\n        /* \"contracts/project.sol\":939:956  petId < totalPets */\n      lt\n        /* \"contracts/project.sol\":931:975  require(petId < totalPets, \"Invalid pet ID\") */\n      tag_137\n      jumpi\n      mload(0x40)\n      0x08c379a000000000000000000000000000000000000000000000000000000000\n      dup2\n      mstore\n      0x04\n      add\n      tag_138\n      swap1\n      tag_83\n      jump\t// in\n    tag_138:\n      mload(0x40)\n      dup1\n      swap2\n      sub\n      swap1\n      revert\n    tag_137:\n        /* \"contracts/project.sol\":2640:2641  0 */\n      0x00\n        /* \"contracts/project.sol\":2609:2642  pets[petId].adopter != address(0) */\n      0xffffffffffffffffffffffffffffffffffffffff\n      and\n        /* \"contracts/project.sol\":2609:2613  pets */\n      0x01\n        /* \"contracts/project.sol\":2609:2620  pets[petId] */\n      0x00\n        /* \"contracts/project.sol\":2614:2619  petId */\n      dup6\n        /* \"contracts/project.sol\":2609:2620  pets[petId] */\n      dup2\n      mstore\n      0x20\n      add\n      swap1\n      dup2\n      mstore\n      0x20\n      add\n      0x00\n      keccak256\n        /* \"contracts/project.sol\":2609:2628  pets[petId].adopter */\n      0x03\n      add\n      0x00\n      swap1\n      sload\n      swap1\n      0x0100\n      exp\n      swap1\n      div\n      0xffffffffffffffffffffffffffffffffffffffff\n      and\n        /* \"contracts/project.sol\":2609:2642  pets[petId].adopter != address(0) */\n      0xffffffffffffffffffffffffffffffffffffffff\n      and\n      sub\n        /* \"contracts/project.sol\":2601:2665  require(pets[petId].adopter != address(0), \"Pet is not adopted\") */\n      tag_140\n      jumpi\n      mload(0x40)\n      0x08c379a000000000000000000000000000000000000000000000000000000000\n      dup2\n      mstore\n      0x04\n      add\n      tag_141\n      swap1\n      tag_142\n      jump\t// in\n    tag_141:\n      mload(0x40)\n      dup1\n      swap2\n      sub\n      swap1\n      revert\n    tag_140:\n        /* \"contracts/project.sol\":2676:2699  uint256 adoptionEndTime */\n      0x00\n        /* \"contracts/project.sol\":2702:2717  block.timestamp */\n      timestamp\n        /* \"contracts/project.sol\":2676:2717  uint256 adoptionEndTime = block.timestamp */\n      swap1\n      pop\n        /* \"contracts/project.sol\":2727:2751  uint256 adoptionDuration */\n      0x00\n        /* \"contracts/project.sol\":2772:2776  pets */\n      0x01\n        /* \"contracts/project.sol\":2772:2783  pets[petId] */\n      0x00\n        /* \"contracts/project.sol\":2777:2782  petId */\n      dup7\n        /* \"contracts/project.sol\":2772:2783  pets[petId] */\n      dup2\n      mstore\n      0x20\n      add\n      swap1\n      dup2\n      mstore\n      0x20\n      add\n      0x00\n      keccak256\n        /* \"contracts/project.sol\":2772:2801  pets[petId].adoptionStartTime */\n      0x04\n      add\n      sload\n        /* \"contracts/project.sol\":2754:2769  adoptionEndTime */\n      dup3\n        /* \"contracts/project.sol\":2754:2801  adoptionEndTime - pets[petId].adoptionStartTime */\n      tag_143\n      swap2\n      swap1\n      tag_144\n      jump\t// in\n    tag_143:\n        /* \"contracts/project.sol\":2727:2801  uint256 adoptionDuration = adoptionEndTime - pets[petId].adoptionStartTime */\n      swap1\n      pop\n        /* \"contracts/project.sol\":2811:2830  uint256 adoptionFee */\n      0x00\n        /* \"contracts/project.sol\":2833:2871  calculateAdoptionFee(adoptionDuration) */\n      tag_145\n        /* \"contracts/project.sol\":2854:2870  adoptionDuration */\n      dup3\n        /* \"contracts/project.sol\":2833:2853  calculateAdoptionFee */\n      tag_146\n        /* \"contracts/project.sol\":2833:2871  calculateAdoptionFee(adoptionDuration) */\n      jump\t// in\n    tag_145:\n        /* \"contracts/project.sol\":2811:2871  uint256 adoptionFee = calculateAdoptionFee(adoptionDuration) */\n      swap1\n      pop\n        /* \"contracts/project.sol\":2887:2965  PetReturned(petId, msg.sender, adoptionEndTime, adoptionDuration, adoptionFee) */\n      0x63836415504234e0485c9cf0bdcc4459057a96e8e7384940c5affdafe83f0f20\n        /* \"contracts/project.sol\":2899:2904  petId */\n      dup7\n        /* \"contracts/project.sol\":2906:2916  msg.sender */\n      caller\n        /* \"contracts/project.sol\":2918:2933  adoptionEndTime */\n      dup6\n        /* \"contracts/project.sol\":2935:2951  adoptionDuration */\n      dup6\n        /* \"contracts/project.sol\":2953:2964  adoptionFee */\n      dup6\n        /* \"contracts/project.sol\":2887:2965  PetReturned(petId, msg.sender, adoptionEndTime, adoptionDuration, adoptionFee) */\n      mload(0x40)\n      tag_147\n      swap6\n      swap5\n      swap4\n      swap3\n      swap2\n      swap1\n      tag_148\n      jump\t// in\n    tag_147:\n      mload(0x40)\n      dup1\n      swap2\n      sub\n      swap1\n      log1\n        /* \"contracts/project.sol\":2976:2991  adoptionHistory */\n      0x02\n        /* \"contracts/project.sol\":2976:3003  adoptionHistory[msg.sender] */\n      0x00\n        /* \"contracts/project.sol\":2992:3002  msg.sender */\n      caller\n        /* \"contracts/project.sol\":2976:3003  adoptionHistory[msg.sender] */\n      0xffffffffffffffffffffffffffffffffffffffff\n      and\n      0xffffffffffffffffffffffffffffffffffffffff\n      and\n      dup2\n      mstore\n      0x20\n      add\n      swap1\n      dup2\n      mstore\n      0x20\n      add\n      0x00\n      keccak256\n        /* \"contracts/project.sol\":3009:3092  AdoptionHistory(petId, pets[petId].adoptionStartTime, adoptionEndTime, adoptionFee) */\n      mload(0x40)\n      dup1\n      0x80\n      add\n      0x40\n      mstore\n      dup1\n        /* \"contracts/project.sol\":3025:3030  petId */\n      dup9\n        /* \"contracts/project.sol\":3009:3092  AdoptionHistory(petId, pets[petId].adoptionStartTime, adoptionEndTime, adoptionFee) */\n      dup2\n      mstore\n      0x20\n      add\n        /* \"contracts/project.sol\":3032:3036  pets */\n      0x01\n        /* \"contracts/project.sol\":3032:3043  pets[petId] */\n      0x00\n        /* \"contracts/project.sol\":3037:3042  petId */\n      dup11\n        /* \"contracts/project.sol\":3032:3043  pets[petId] */\n      dup2\n      mstore\n      0x20\n      add\n      swap1\n      dup2\n      mstore\n      0x20\n      add\n      0x00\n      keccak256\n        /* \"contracts/project.sol\":3032:3061  pets[petId].adoptionStartTime */\n      0x04\n      add\n      sload\n        /* \"contracts/project.sol\":3009:3092  AdoptionHistory(petId, pets[petId].adoptionStartTime, adoptionEndTime, adoptionFee) */\n      dup2\n      mstore\n      0x20\n      add\n        /* \"contracts/project.sol\":3063:3078  adoptionEndTime */\n      dup6\n        /* \"contracts/project.sol\":3009:3092  AdoptionHistory(petId, pets[petId].adoptionStartTime, adoptionEndTime, adoptionFee) */\n      dup2\n      mstore\n      0x20\n      add\n        /* \"contracts/project.sol\":3080:3091  adoptionFee */\n      dup4\n        /* \"contracts/project.sol\":3009:3092  AdoptionHistory(petId, pets[petId].adoptionStartTime, adoptionEndTime, adoptionFee) */\n      dup2\n      mstore\n      pop\n        /* \"contracts/project.sol\":2976:3093  adoptionHistory[msg.sender].push(AdoptionHistory(petId, pets[petId].adoptionStartTime, adoptionEndTime, adoptionFee)) */\n      swap1\n      dup1\n      0x01\n      dup2\n      sload\n      add\n      dup1\n      dup3\n      sstore\n      dup1\n      swap2\n      pop\n      pop\n      0x01\n      swap1\n      sub\n      swap1\n      0x00\n      mstore\n      keccak256(0x00, 0x20)\n      swap1\n      0x04\n      mul\n      add\n      0x00\n      swap1\n      swap2\n      swap1\n      swap2\n      swap1\n      swap2\n      pop\n      0x00\n      dup3\n      add\n      mload\n      dup2\n      0x00\n      add\n      sstore\n      0x20\n      dup3\n      add\n      mload\n      dup2\n      0x01\n      add\n      sstore\n      0x40\n      dup3\n      add\n      mload\n      dup2\n      0x02\n      add\n      sstore\n      0x60\n      dup3\n      add\n      mload\n      dup2\n      0x03\n      add\n      sstore\n      pop\n      pop\n        /* \"contracts/project.sol\":3112:3117  owner */\n      0x00\n      dup1\n      sload\n      swap1\n      0x0100\n      exp\n      swap1\n      div\n      0xffffffffffffffffffffffffffffffffffffffff\n      and\n        /* \"contracts/project.sol\":3104:3127  payable(owner).transfer */\n      0xffffffffffffffffffffffffffffffffffffffff\n      and\n        /* \"contracts/project.sol\":3104:3140  payable(owner).transfer(adoptionFee) */\n      0x08fc\n        /* \"contracts/project.sol\":3128:3139  adoptionFee */\n      dup3\n        /* \"contracts/project.sol\":3104:3140  payable(owner).transfer(adoptionFee) */\n      swap1\n      dup2\n      iszero\n      mul\n      swap1\n      mload(0x40)\n      0x00\n      mload(0x40)\n      dup1\n      dup4\n      sub\n      dup2\n      dup6\n      dup9\n      dup9\n      call\n      swap4\n      pop\n      pop\n      pop\n      pop\n      iszero\n      dup1\n      iszero\n      tag_151\n      jumpi\n      returndatasize\n      0x00\n      dup1\n      returndatacopy\n      revert(0x00, returndatasize)\n    tag_151:\n      pop\n        /* \"contracts/project.sol\":3158:3162  pets */\n      0x01\n        /* \"contracts/project.sol\":3158:3169  pets[petId] */\n      0x00\n        /* \"contracts/project.sol\":3163:3168  petId */\n      dup8\n        /* \"contracts/project.sol\":3158:3169  pets[petId] */\n      dup2\n      mstore\n      0x20\n      add\n      swap1\n      dup2\n      mstore\n      0x20\n      add\n      0x00\n      keccak256\n      0x00\n        /* \"contracts/project.sol\":3151:3169  delete pets[petId] */\n      dup1\n      dup3\n      add\n      0x00\n      tag_152\n      swap2\n      swap1\n      tag_153\n      jump\t// in\n    tag_152:\n      0x01\n      dup3\n      add\n      0x00\n      tag_154\n      swap2\n      swap1\n      tag_153\n      jump\t// in\n    tag_154:\n      0x02\n      dup3\n      add\n      0x00\n      swap1\n      sstore\n      0x03\n      dup3\n      add\n      exp(0x0100, 0x00)\n      dup2\n      sload\n      swap1\n      0xffffffffffffffffffffffffffffffffffffffff\n      mul\n      not\n      and\n      swap1\n      sstore\n      0x04\n      dup3\n      add\n      0x00\n      swap1\n      sstore\n      pop\n      pop\n        /* \"contracts/project.sol\":2591:3176  {... */\n      pop\n      pop\n      pop\n        /* \"contracts/project.sol\":872:873  _ */\n      pop\n        /* \"contracts/project.sol\":2511:3176  function returnPet(uint256 petId) external onlyAdopter(petId) validPetId(petId) {... */\n      pop\n      pop\n      jump\t// out\n        /* \"contracts/project.sol\":418:453  mapping(uint256 => Pet) public pets */\n    tag_68:\n      mstore(0x20, 0x01)\n      dup1\n      0x00\n      mstore\n      keccak256(0x00, 0x40)\n      0x00\n      swap2\n      pop\n      swap1\n      pop\n      dup1\n      0x00\n      add\n      dup1\n      sload\n      tag_155\n      swap1\n      tag_156\n      jump\t// in\n    tag_155:\n      dup1\n      0x1f\n      add\n      0x20\n      dup1\n      swap2\n      div\n      mul\n      0x20\n      add\n      mload(0x40)\n      swap1\n      dup2\n      add\n      0x40\n      mstore\n      dup1\n      swap3\n      swap2\n      swap1\n      dup2\n      dup2\n      mstore\n      0x20\n      add\n      dup3\n      dup1\n      sload\n      tag_157\n      swap1\n      tag_156\n      jump\t// in\n    tag_157:\n      dup1\n      iszero\n      tag_158\n      jumpi\n      dup1\n      0x1f\n      lt\n      tag_159\n      jumpi\n      0x0100\n      dup1\n      dup4\n      sload\n      div\n      mul\n      dup4\n      mstore\n      swap2\n      0x20\n      add\n      swap2\n      jump(tag_158)\n    tag_159:\n      dup3\n      add\n      swap2\n      swap1\n      0x00\n      mstore\n      keccak256(0x00, 0x20)\n      swap1\n    tag_160:\n      dup2\n      sload\n      dup2\n      mstore\n      swap1\n      0x01\n      add\n      swap1\n      0x20\n      add\n      dup1\n      dup4\n      gt\n      tag_160\n      jumpi\n      dup3\n      swap1\n      sub\n      0x1f\n      and\n      dup3\n      add\n      swap2\n    tag_158:\n      pop\n      pop\n      pop\n      pop\n      pop\n      swap1\n      dup1\n      0x01\n      add\n      dup1\n      sload\n      tag_161\n      swap1\n      tag_156\n      jump\t// in\n    tag_161:\n      dup1\n      0x1f\n      add\n      0x20\n      dup1\n      swap2\n      div\n      mul\n      0x20\n      add\n      mload(0x40)\n      swap1\n      dup2\n      add\n      0x40\n      mstore\n      dup1\n      swap3\n      swap2\n      swap1\n      dup2\n      dup2\n      mstore\n      0x20\n      add\n      dup3\n      dup1\n      sload\n      tag_162\n      swap1\n      tag_156\n      jump\t// in\n    tag_162:\n      dup1\n      iszero\n      tag_163\n      jumpi\n      dup1\n      0x1f\n      lt\n      tag_164\n      jumpi\n      0x0100\n      dup1\n      dup4\n      sload\n      div\n      mul\n      dup4\n      mstore\n      swap2\n      0x20\n      add\n      swap2\n      jump(tag_163)\n    tag_164:\n      dup3\n      add\n      swap2\n      swap1\n      0x00\n      mstore\n      keccak256(0x00, 0x20)\n      swap1\n    tag_165:\n      dup2\n      sload\n      dup2\n      mstore\n      swap1\n      0x01\n      add\n      swap1\n      0x20\n      add\n      dup1\n      dup4\n      gt\n      tag_165\n      jumpi\n      dup3\n      swap1\n      sub\n      0x1f\n      and\n      dup3\n      add\n      swap2\n    tag_163:\n      pop\n      pop\n      pop\n      pop\n      pop\n      swap1\n      dup1\n      0x02\n      add\n      sload\n      swap1\n      dup1\n      0x03\n      add\n      0x00\n      swap1\n      sload\n      swap1\n      0x0100\n      exp\n      swap1\n      div\n      0xffffffffffffffffffffffffffffffffffffffff\n      and\n      swap1\n      dup1\n      0x04\n      add\n      sload\n      swap1\n      pop\n      dup6\n      jump\t// out\n        /* \"contracts/project.sol\":1911:2104  function deletePet(uint256 petId) external onlyOwner {... */\n    tag_74:\n        /* \"contracts/project.sol\":668:673  owner */\n      0x00\n      dup1\n      sload\n      swap1\n      0x0100\n      exp\n      swap1\n      div\n      0xffffffffffffffffffffffffffffffffffffffff\n      and\n        /* \"contracts/project.sol\":654:673  msg.sender == owner */\n      0xffffffffffffffffffffffffffffffffffffffff\n      and\n        /* \"contracts/project.sol\":654:664  msg.sender */\n      caller\n        /* \"contracts/project.sol\":654:673  msg.sender == owner */\n      0xffffffffffffffffffffffffffffffffffffffff\n      and\n      eq\n        /* \"contracts/project.sol\":646:711  require(msg.sender == owner, \"Only owner can call this function\") */\n      tag_167\n      jumpi\n      mload(0x40)\n      0x08c379a000000000000000000000000000000000000000000000000000000000\n      dup2\n      mstore\n      0x04\n      add\n      tag_168\n      swap1\n      tag_121\n      jump\t// in\n    tag_168:\n      mload(0x40)\n      dup1\n      swap2\n      sub\n      swap1\n      revert\n    tag_167:\n        /* \"contracts/project.sol\":2013:2014  0 */\n      0x00\n        /* \"contracts/project.sol\":1982:2015  pets[petId].adopter == address(0) */\n      0xffffffffffffffffffffffffffffffffffffffff\n      and\n        /* \"contracts/project.sol\":1982:1986  pets */\n      0x01\n        /* \"contracts/project.sol\":1982:1993  pets[petId] */\n      0x00\n        /* \"contracts/project.sol\":1987:1992  petId */\n      dup4\n        /* \"contracts/project.sol\":1982:1993  pets[petId] */\n      dup2\n      mstore\n      0x20\n      add\n      swap1\n      dup2\n      mstore\n      0x20\n      add\n      0x00\n      keccak256\n        /* \"contracts/project.sol\":1982:2001  pets[petId].adopter */\n      0x03\n      add\n      0x00\n      swap1\n      sload\n      swap1\n      0x0100\n      exp\n      swap1\n      div\n      0xffffffffffffffffffffffffffffffffffffffff\n      and\n        /* \"contracts/project.sol\":1982:2015  pets[petId].adopter == address(0) */\n      0xffffffffffffffffffffffffffffffffffffffff\n      and\n      eq\n        /* \"contracts/project.sol\":1974:2048  require(pets[petId].adopter == address(0), \"Cannot delete an adopted pet\") */\n      tag_170\n      jumpi\n      mload(0x40)\n      0x08c379a000000000000000000000000000000000000000000000000000000000\n      dup2\n      mstore\n      0x04\n      add\n      tag_171\n      swap1\n      tag_172\n      jump\t// in\n    tag_171:\n      mload(0x40)\n      dup1\n      swap2\n      sub\n      swap1\n      revert\n    tag_170:\n        /* \"contracts/project.sol\":2065:2069  pets */\n      0x01\n        /* \"contracts/project.sol\":2065:2076  pets[petId] */\n      0x00\n        /* \"contracts/project.sol\":2070:2075  petId */\n      dup3\n        /* \"contracts/project.sol\":2065:2076  pets[petId] */\n      dup2\n      mstore\n      0x20\n      add\n      swap1\n      dup2\n      mstore\n      0x20\n      add\n      0x00\n      keccak256\n      0x00\n        /* \"contracts/project.sol\":2058:2076  delete pets[petId] */\n      dup1\n      dup3\n      add\n      0x00\n      tag_173\n      swap2\n      swap1\n      tag_153\n      jump\t// in\n    tag_173:\n      0x01\n      dup3\n      add\n      0x00\n      tag_174\n      swap2\n      swap1\n      tag_153\n      jump\t// in\n    tag_174:\n      0x02\n      dup3\n      add\n      0x00\n      swap1\n      sstore\n      0x03\n      dup3\n      add\n      exp(0x0100, 0x00)\n      dup2\n      sload\n      swap1\n      0xffffffffffffffffffffffffffffffffffffffff\n      mul\n      not\n      and\n      swap1\n      sstore\n      0x04\n      dup3\n      add\n      0x00\n      swap1\n      sstore\n      pop\n      pop\n        /* \"contracts/project.sol\":2086:2095  totalPets */\n      0x03\n      0x00\n        /* \"contracts/project.sol\":2086:2097  totalPets-- */\n      dup2\n      sload\n      dup1\n      swap3\n      swap2\n      swap1\n      tag_175\n      swap1\n      tag_176\n      jump\t// in\n    tag_175:\n      swap2\n      swap1\n      pop\n      sstore\n      pop\n        /* \"contracts/project.sol\":1911:2104  function deletePet(uint256 petId) external onlyOwner {... */\n      pop\n      jump\t// out\n        /* \"contracts/project.sol\":3334:3628  function getPetDetails(uint256 petId) external view returns (string memory petName, string memory breed, uint256 age, address adopter, uint256 adoptionStartTime) {... */\n    tag_78:\n        /* \"contracts/project.sol\":3395:3416  string memory petName */\n      0x60\n        /* \"contracts/project.sol\":3418:3437  string memory breed */\n      dup1\n        /* \"contracts/project.sol\":3439:3450  uint256 age */\n      0x00\n        /* \"contracts/project.sol\":3452:3467  address adopter */\n      dup1\n        /* \"contracts/project.sol\":3469:3494  uint256 adoptionStartTime */\n      0x00\n        /* \"contracts/project.sol\":3506:3521  Pet storage pet */\n      dup1\n        /* \"contracts/project.sol\":3524:3528  pets */\n      0x01\n        /* \"contracts/project.sol\":3524:3535  pets[petId] */\n      0x00\n        /* \"contracts/project.sol\":3529:3534  petId */\n      dup9\n        /* \"contracts/project.sol\":3524:3535  pets[petId] */\n      dup2\n      mstore\n      0x20\n      add\n      swap1\n      dup2\n      mstore\n      0x20\n      add\n      0x00\n      keccak256\n        /* \"contracts/project.sol\":3506:3535  Pet storage pet = pets[petId] */\n      swap1\n      pop\n        /* \"contracts/project.sol\":3553:3556  pet */\n      dup1\n        /* \"contracts/project.sol\":3553:3564  pet.petName */\n      0x00\n      add\n        /* \"contracts/project.sol\":3566:3569  pet */\n      dup2\n        /* \"contracts/project.sol\":3566:3575  pet.breed */\n      0x01\n      add\n        /* \"contracts/project.sol\":3577:3580  pet */\n      dup3\n        /* \"contracts/project.sol\":3577:3584  pet.age */\n      0x02\n      add\n      sload\n        /* \"contracts/project.sol\":3586:3589  pet */\n      dup4\n        /* \"contracts/project.sol\":3586:3597  pet.adopter */\n      0x03\n      add\n      0x00\n      swap1\n      sload\n      swap1\n      0x0100\n      exp\n      swap1\n      div\n      0xffffffffffffffffffffffffffffffffffffffff\n      and\n        /* \"contracts/project.sol\":3599:3602  pet */\n      dup5\n        /* \"contracts/project.sol\":3599:3620  pet.adoptionStartTime */\n      0x04\n      add\n      sload\n        /* \"contracts/project.sol\":3545:3621  return (pet.petName, pet.breed, pet.age, pet.adopter, pet.adoptionStartTime) */\n      dup5\n      dup1\n      sload\n      tag_178\n      swap1\n      tag_156\n      jump\t// in\n    tag_178:\n      dup1\n      0x1f\n      add\n      0x20\n      dup1\n      swap2\n      div\n      mul\n      0x20\n      add\n      mload(0x40)\n      swap1\n      dup2\n      add\n      0x40\n      mstore\n      dup1\n      swap3\n      swap2\n      swap1\n      dup2\n      dup2\n      mstore\n      0x20\n      add\n      dup3\n      dup1\n      sload\n      tag_179\n      swap1\n      tag_156\n      jump\t// in\n    tag_179:\n      dup1\n      iszero\n      tag_180\n      jumpi\n      dup1\n      0x1f\n      lt\n      tag_181\n      jumpi\n      0x0100\n      dup1\n      dup4\n      sload\n      div\n      mul\n      dup4\n      mstore\n      swap2\n      0x20\n      add\n      swap2\n      jump(tag_180)\n    tag_181:\n      dup3\n      add\n      swap2\n      swap1\n      0x00\n      mstore\n      keccak256(0x00, 0x20)\n      swap1\n    tag_182:\n      dup2\n      sload\n      dup2\n      mstore\n      swap1\n      0x01\n      add\n      swap1\n      0x20\n      add\n      dup1\n      dup4\n      gt\n      tag_182\n      jumpi\n      dup3\n      swap1\n      sub\n      0x1f\n      and\n      dup3\n      add\n      swap2\n    tag_180:\n      pop\n      pop\n      pop\n      pop\n      pop\n      swap5\n      pop\n      dup4\n      dup1\n      sload\n      tag_183\n      swap1\n      tag_156\n      jump\t// in\n    tag_183:\n      dup1\n      0x1f\n      add\n      0x20\n      dup1\n      swap2\n      div\n      mul\n      0x20\n      add\n      mload(0x40)\n      swap1\n      dup2\n      add\n      0x40\n      mstore\n      dup1\n      swap3\n      swap2\n      swap1\n      dup2\n      dup2\n      mstore\n      0x20\n      add\n      dup3\n      dup1\n      sload\n      tag_184\n      swap1\n      tag_156\n      jump\t// in\n    tag_184:\n      dup1\n      iszero\n      tag_185\n      jumpi\n      dup1\n      0x1f\n      lt\n      tag_186\n      jumpi\n      0x0100\n      dup1\n      dup4\n      sload\n      div\n      mul\n      dup4\n      mstore\n      swap2\n      0x20\n      add\n      swap2\n      jump(tag_185)\n    tag_186:\n      dup3\n      add\n      swap2\n      swap1\n      0x00\n      mstore\n      keccak256(0x00, 0x20)\n      swap1\n    tag_187:\n      dup2\n      sload\n      dup2\n      mstore\n      swap1\n      0x01\n      add\n      swap1\n      0x20\n      add\n      dup1\n      dup4\n      gt\n      tag_187\n      jumpi\n      dup3\n      swap1\n      sub\n      0x1f\n      and\n      dup3\n      add\n      swap2\n    tag_185:\n      pop\n      pop\n      pop\n      pop\n      pop\n      swap4\n      pop\n      swap6\n      pop\n      swap6\n      pop\n      swap6\n      pop\n      swap6\n      pop\n      swap6\n      pop\n      pop\n        /* \"contracts/project.sol\":3334:3628  function getPetDetails(uint256 petId) external view returns (string memory petName, string memory breed, uint256 age, address adopter, uint256 adoptionStartTime) {... */\n      swap2\n      swap4\n      swap6\n      swap1\n      swap3\n      swap5\n      pop\n      jump\t// out\n        /* \"contracts/project.sol\":3182:3328  function calculateAdoptionFee(uint256 adoptionDuration) internal view returns (uint256) {... */\n    tag_146:\n        /* \"contracts/project.sol\":3261:3268  uint256 */\n      0x00\n        /* \"contracts/project.sol\":3306:3321  adoptionFeeRate */\n      sload(0x04)\n        /* \"contracts/project.sol\":3287:3303  adoptionDuration */\n      dup3\n        /* \"contracts/project.sol\":3287:3321  adoptionDuration * adoptionFeeRate */\n      tag_189\n      swap2\n      swap1\n      tag_190\n      jump\t// in\n    tag_189:\n        /* \"contracts/project.sol\":3280:3321  return adoptionDuration * adoptionFeeRate */\n      swap1\n      pop\n        /* \"contracts/project.sol\":3182:3328  function calculateAdoptionFee(uint256 adoptionDuration) internal view returns (uint256) {... */\n      swap2\n      swap1\n      pop\n      jump\t// out\n    tag_153:\n      pop\n      dup1\n      sload\n      tag_191\n      swap1\n      tag_156\n      jump\t// in\n    tag_191:\n      0x00\n      dup3\n      sstore\n      dup1\n      0x1f\n      lt\n      tag_193\n      jumpi\n      pop\n      jump(tag_192)\n    tag_193:\n      0x1f\n      add\n      0x20\n      swap1\n      div\n      swap1\n      0x00\n      mstore\n      keccak256(0x00, 0x20)\n      swap1\n      dup2\n      add\n      swap1\n      tag_194\n      swap2\n      swap1\n      tag_195\n      jump\t// in\n    tag_194:\n    tag_192:\n      pop\n      jump\t// out\n    tag_195:\n    tag_196:\n      dup1\n      dup3\n      gt\n      iszero\n      tag_197\n      jumpi\n      0x00\n      dup2\n      0x00\n      swap1\n      sstore\n      pop\n      0x01\n      add\n      jump(tag_196)\n    tag_197:\n      pop\n      swap1\n      jump\t// out\n        /* \"#utility.yul\":7:82   */\n    tag_198:\n        /* \"#utility.yul\":40:46   */\n      0x00\n        /* \"#utility.yul\":73:75   */\n      0x40\n        /* \"#utility.yul\":67:76   */\n      mload\n        /* \"#utility.yul\":57:76   */\n      swap1\n      pop\n        /* \"#utility.yul\":7:82   */\n      swap1\n      jump\t// out\n        /* \"#utility.yul\":88:205   */\n    tag_199:\n        /* \"#utility.yul\":197:198   */\n      0x00\n        /* \"#utility.yul\":194:195   */\n      dup1\n        /* \"#utility.yul\":187:199   */\n      revert\n        /* \"#utility.yul\":211:328   */\n    tag_200:\n        /* \"#utility.yul\":320:321   */\n      0x00\n        /* \"#utility.yul\":317:318   */\n      dup1\n        /* \"#utility.yul\":310:322   */\n      revert\n        /* \"#utility.yul\":334:411   */\n    tag_201:\n        /* \"#utility.yul\":371:378   */\n      0x00\n        /* \"#utility.yul\":400:405   */\n      dup2\n        /* \"#utility.yul\":389:405   */\n      swap1\n      pop\n        /* \"#utility.yul\":334:411   */\n      swap2\n      swap1\n      pop\n      jump\t// out\n        /* \"#utility.yul\":417:539   */\n    tag_202:\n        /* \"#utility.yul\":490:514   */\n      tag_274\n        /* \"#utility.yul\":508:513   */\n      dup2\n        /* \"#utility.yul\":490:514   */\n      tag_201\n      jump\t// in\n    tag_274:\n        /* \"#utility.yul\":483:488   */\n      dup2\n        /* \"#utility.yul\":480:515   */\n      eq\n        /* \"#utility.yul\":470:533   */\n      tag_275\n      jumpi\n        /* \"#utility.yul\":529:530   */\n      0x00\n        /* \"#utility.yul\":526:527   */\n      dup1\n        /* \"#utility.yul\":519:531   */\n      revert\n        /* \"#utility.yul\":470:533   */\n    tag_275:\n        /* \"#utility.yul\":417:539   */\n      pop\n      jump\t// out\n        /* \"#utility.yul\":545:684   */\n    tag_203:\n        /* \"#utility.yul\":591:596   */\n      0x00\n        /* \"#utility.yul\":629:635   */\n      dup2\n        /* \"#utility.yul\":616:636   */\n      calldataload\n        /* \"#utility.yul\":607:636   */\n      swap1\n      pop\n        /* \"#utility.yul\":645:678   */\n      tag_277\n        /* \"#utility.yul\":672:677   */\n      dup2\n        /* \"#utility.yul\":645:678   */\n      tag_202\n      jump\t// in\n    tag_277:\n        /* \"#utility.yul\":545:684   */\n      swap3\n      swap2\n      pop\n      pop\n      jump\t// out\n        /* \"#utility.yul\":690:1019   */\n    tag_19:\n        /* \"#utility.yul\":749:755   */\n      0x00\n        /* \"#utility.yul\":798:800   */\n      0x20\n        /* \"#utility.yul\":786:795   */\n      dup3\n        /* \"#utility.yul\":777:784   */\n      dup5\n        /* \"#utility.yul\":773:796   */\n      sub\n        /* \"#utility.yul\":769:801   */\n      slt\n        /* \"#utility.yul\":766:885   */\n      iszero\n      tag_279\n      jumpi\n        /* \"#utility.yul\":804:883   */\n      tag_280\n      tag_199\n      jump\t// in\n    tag_280:\n        /* \"#utility.yul\":766:885   */\n    tag_279:\n        /* \"#utility.yul\":924:925   */\n      0x00\n        /* \"#utility.yul\":949:1002   */\n      tag_281\n        /* \"#utility.yul\":994:1001   */\n      dup5\n        /* \"#utility.yul\":985:991   */\n      dup3\n        /* \"#utility.yul\":974:983   */\n      dup6\n        /* \"#utility.yul\":970:992   */\n      add\n        /* \"#utility.yul\":949:1002   */\n      tag_203\n      jump\t// in\n    tag_281:\n        /* \"#utility.yul\":939:1002   */\n      swap2\n      pop\n        /* \"#utility.yul\":895:1012   */\n      pop\n        /* \"#utility.yul\":690:1019   */\n      swap3\n      swap2\n      pop\n      pop\n      jump\t// out\n        /* \"#utility.yul\":1025:1151   */\n    tag_204:\n        /* \"#utility.yul\":1062:1069   */\n      0x00\n        /* \"#utility.yul\":1102:1144   */\n      0xffffffffffffffffffffffffffffffffffffffff\n        /* \"#utility.yul\":1095:1100   */\n      dup3\n        /* \"#utility.yul\":1091:1145   */\n      and\n        /* \"#utility.yul\":1080:1145   */\n      swap1\n      pop\n        /* \"#utility.yul\":1025:1151   */\n      swap2\n      swap1\n      pop\n      jump\t// out\n        /* \"#utility.yul\":1157:1253   */\n    tag_205:\n        /* \"#utility.yul\":1194:1201   */\n      0x00\n        /* \"#utility.yul\":1223:1247   */\n      tag_284\n        /* \"#utility.yul\":1241:1246   */\n      dup3\n        /* \"#utility.yul\":1223:1247   */\n      tag_204\n      jump\t// in\n    tag_284:\n        /* \"#utility.yul\":1212:1247   */\n      swap1\n      pop\n        /* \"#utility.yul\":1157:1253   */\n      swap2\n      swap1\n      pop\n      jump\t// out\n        /* \"#utility.yul\":1259:1381   */\n    tag_206:\n        /* \"#utility.yul\":1332:1356   */\n      tag_286\n        /* \"#utility.yul\":1350:1355   */\n      dup2\n        /* \"#utility.yul\":1332:1356   */\n      tag_205\n      jump\t// in\n    tag_286:\n        /* \"#utility.yul\":1325:1330   */\n      dup2\n        /* \"#utility.yul\":1322:1357   */\n      eq\n        /* \"#utility.yul\":1312:1375   */\n      tag_287\n      jumpi\n        /* \"#utility.yul\":1371:1372   */\n      0x00\n        /* \"#utility.yul\":1368:1369   */\n      dup1\n        /* \"#utility.yul\":1361:1373   */\n      revert\n        /* \"#utility.yul\":1312:1375   */\n    tag_287:\n        /* \"#utility.yul\":1259:1381   */\n      pop\n      jump\t// out\n        /* \"#utility.yul\":1387:1526   */\n    tag_207:\n        /* \"#utility.yul\":1433:1438   */\n      0x00\n        /* \"#utility.yul\":1471:1477   */\n      dup2\n        /* \"#utility.yul\":1458:1478   */\n      calldataload\n        /* \"#utility.yul\":1449:1478   */\n      swap1\n      pop\n        /* \"#utility.yul\":1487:1520   */\n      tag_289\n        /* \"#utility.yul\":1514:1519   */\n      dup2\n        /* \"#utility.yul\":1487:1520   */\n      tag_206\n      jump\t// in\n    tag_289:\n        /* \"#utility.yul\":1387:1526   */\n      swap3\n      swap2\n      pop\n      pop\n      jump\t// out\n        /* \"#utility.yul\":1532:2006   */\n    tag_24:\n        /* \"#utility.yul\":1600:1606   */\n      0x00\n        /* \"#utility.yul\":1608:1614   */\n      dup1\n        /* \"#utility.yul\":1657:1659   */\n      0x40\n        /* \"#utility.yul\":1645:1654   */\n      dup4\n        /* \"#utility.yul\":1636:1643   */\n      dup6\n        /* \"#utility.yul\":1632:1655   */\n      sub\n        /* \"#utility.yul\":1628:1660   */\n      slt\n        /* \"#utility.yul\":1625:1744   */\n      iszero\n      tag_291\n      jumpi\n        /* \"#utility.yul\":1663:1742   */\n      tag_292\n      tag_199\n      jump\t// in\n    tag_292:\n        /* \"#utility.yul\":1625:1744   */\n    tag_291:\n        /* \"#utility.yul\":1783:1784   */\n      0x00\n        /* \"#utility.yul\":1808:1861   */\n      tag_293\n        /* \"#utility.yul\":1853:1860   */\n      dup6\n        /* \"#utility.yul\":1844:1850   */\n      dup3\n        /* \"#utility.yul\":1833:1842   */\n      dup7\n        /* \"#utility.yul\":1829:1851   */\n      add\n        /* \"#utility.yul\":1808:1861   */\n      tag_207\n      jump\t// in\n    tag_293:\n        /* \"#utility.yul\":1798:1861   */\n      swap3\n      pop\n        /* \"#utility.yul\":1754:1871   */\n      pop\n        /* \"#utility.yul\":1910:1912   */\n      0x20\n        /* \"#utility.yul\":1936:1989   */\n      tag_294\n        /* \"#utility.yul\":1981:1988   */\n      dup6\n        /* \"#utility.yul\":1972:1978   */\n      dup3\n        /* \"#utility.yul\":1961:1970   */\n      dup7\n        /* \"#utility.yul\":1957:1979   */\n      add\n        /* \"#utility.yul\":1936:1989   */\n      tag_203\n      jump\t// in\n    tag_294:\n        /* \"#utility.yul\":1926:1989   */\n      swap2\n      pop\n        /* \"#utility.yul\":1881:1999   */\n      pop\n        /* \"#utility.yul\":1532:2006   */\n      swap3\n      pop\n      swap3\n      swap1\n      pop\n      jump\t// out\n        /* \"#utility.yul\":2012:2130   */\n    tag_208:\n        /* \"#utility.yul\":2099:2123   */\n      tag_296\n        /* \"#utility.yul\":2117:2122   */\n      dup2\n        /* \"#utility.yul\":2099:2123   */\n      tag_201\n      jump\t// in\n    tag_296:\n        /* \"#utility.yul\":2094:2097   */\n      dup3\n        /* \"#utility.yul\":2087:2124   */\n      mstore\n        /* \"#utility.yul\":2012:2130   */\n      pop\n      pop\n      jump\t// out\n        /* \"#utility.yul\":2136:2689   */\n    tag_27:\n        /* \"#utility.yul\":2313:2317   */\n      0x00\n        /* \"#utility.yul\":2351:2354   */\n      0x80\n        /* \"#utility.yul\":2340:2349   */\n      dup3\n        /* \"#utility.yul\":2336:2355   */\n      add\n        /* \"#utility.yul\":2328:2355   */\n      swap1\n      pop\n        /* \"#utility.yul\":2365:2436   */\n      tag_298\n        /* \"#utility.yul\":2433:2434   */\n      0x00\n        /* \"#utility.yul\":2422:2431   */\n      dup4\n        /* \"#utility.yul\":2418:2435   */\n      add\n        /* \"#utility.yul\":2409:2415   */\n      dup8\n        /* \"#utility.yul\":2365:2436   */\n      tag_208\n      jump\t// in\n    tag_298:\n        /* \"#utility.yul\":2446:2518   */\n      tag_299\n        /* \"#utility.yul\":2514:2516   */\n      0x20\n        /* \"#utility.yul\":2503:2512   */\n      dup4\n        /* \"#utility.yul\":2499:2517   */\n      add\n        /* \"#utility.yul\":2490:2496   */\n      dup7\n        /* \"#utility.yul\":2446:2518   */\n      tag_208\n      jump\t// in\n    tag_299:\n        /* \"#utility.yul\":2528:2600   */\n      tag_300\n        /* \"#utility.yul\":2596:2598   */\n      0x40\n        /* \"#utility.yul\":2585:2594   */\n      dup4\n        /* \"#utility.yul\":2581:2599   */\n      add\n        /* \"#utility.yul\":2572:2578   */\n      dup6\n        /* \"#utility.yul\":2528:2600   */\n      tag_208\n      jump\t// in\n    tag_300:\n        /* \"#utility.yul\":2610:2682   */\n      tag_301\n        /* \"#utility.yul\":2678:2680   */\n      0x60\n        /* \"#utility.yul\":2667:2676   */\n      dup4\n        /* \"#utility.yul\":2663:2681   */\n      add\n        /* \"#utility.yul\":2654:2660   */\n      dup5\n        /* \"#utility.yul\":2610:2682   */\n      tag_208\n      jump\t// in\n    tag_301:\n        /* \"#utility.yul\":2136:2689   */\n      swap6\n      swap5\n      pop\n      pop\n      pop\n      pop\n      pop\n      jump\t// out\n        /* \"#utility.yul\":2695:2840   */\n    tag_209:\n        /* \"#utility.yul\":2793:2799   */\n      0x00\n        /* \"#utility.yul\":2827:2832   */\n      dup2\n        /* \"#utility.yul\":2821:2833   */\n      mload\n        /* \"#utility.yul\":2811:2833   */\n      swap1\n      pop\n        /* \"#utility.yul\":2695:2840   */\n      swap2\n      swap1\n      pop\n      jump\t// out\n        /* \"#utility.yul\":2846:3061   */\n    tag_210:\n        /* \"#utility.yul\":2976:2987   */\n      0x00\n        /* \"#utility.yul\":3010:3016   */\n      dup3\n        /* \"#utility.yul\":3005:3008   */\n      dup3\n        /* \"#utility.yul\":2998:3017   */\n      mstore\n        /* \"#utility.yul\":3050:3054   */\n      0x20\n        /* \"#utility.yul\":3045:3048   */\n      dup3\n        /* \"#utility.yul\":3041:3055   */\n      add\n        /* \"#utility.yul\":3026:3055   */\n      swap1\n      pop\n        /* \"#utility.yul\":2846:3061   */\n      swap3\n      swap2\n      pop\n      pop\n      jump\t// out\n        /* \"#utility.yul\":3067:3230   */\n    tag_211:\n        /* \"#utility.yul\":3165:3169   */\n      0x00\n        /* \"#utility.yul\":3188:3191   */\n      dup2\n        /* \"#utility.yul\":3180:3191   */\n      swap1\n      pop\n        /* \"#utility.yul\":3218:3222   */\n      0x20\n        /* \"#utility.yul\":3213:3216   */\n      dup3\n        /* \"#utility.yul\":3209:3223   */\n      add\n        /* \"#utility.yul\":3201:3223   */\n      swap1\n      pop\n        /* \"#utility.yul\":3067:3230   */\n      swap2\n      swap1\n      pop\n      jump\t// out\n        /* \"#utility.yul\":3236:3344   */\n    tag_212:\n        /* \"#utility.yul\":3313:3337   */\n      tag_306\n        /* \"#utility.yul\":3331:3336   */\n      dup2\n        /* \"#utility.yul\":3313:3337   */\n      tag_201\n      jump\t// in\n    tag_306:\n        /* \"#utility.yul\":3308:3311   */\n      dup3\n        /* \"#utility.yul\":3301:3338   */\n      mstore\n        /* \"#utility.yul\":3236:3344   */\n      pop\n      pop\n      jump\t// out\n        /* \"#utility.yul\":3430:4319   */\n    tag_213:\n        /* \"#utility.yul\":3579:3583   */\n      0x80\n        /* \"#utility.yul\":3574:3577   */\n      dup3\n        /* \"#utility.yul\":3570:3584   */\n      add\n        /* \"#utility.yul\":3667:3671   */\n      0x00\n        /* \"#utility.yul\":3660:3665   */\n      dup3\n        /* \"#utility.yul\":3656:3672   */\n      add\n        /* \"#utility.yul\":3650:3673   */\n      mload\n        /* \"#utility.yul\":3686:3749   */\n      tag_308\n        /* \"#utility.yul\":3743:3747   */\n      0x00\n        /* \"#utility.yul\":3738:3741   */\n      dup6\n        /* \"#utility.yul\":3734:3748   */\n      add\n        /* \"#utility.yul\":3720:3732   */\n      dup3\n        /* \"#utility.yul\":3686:3749   */\n      tag_212\n      jump\t// in\n    tag_308:\n        /* \"#utility.yul\":3594:3759   */\n      pop\n        /* \"#utility.yul\":3854:3858   */\n      0x20\n        /* \"#utility.yul\":3847:3852   */\n      dup3\n        /* \"#utility.yul\":3843:3859   */\n      add\n        /* \"#utility.yul\":3837:3860   */\n      mload\n        /* \"#utility.yul\":3873:3936   */\n      tag_309\n        /* \"#utility.yul\":3930:3934   */\n      0x20\n        /* \"#utility.yul\":3925:3928   */\n      dup6\n        /* \"#utility.yul\":3921:3935   */\n      add\n        /* \"#utility.yul\":3907:3919   */\n      dup3\n        /* \"#utility.yul\":3873:3936   */\n      tag_212\n      jump\t// in\n    tag_309:\n        /* \"#utility.yul\":3769:3946   */\n      pop\n        /* \"#utility.yul\":4039:4043   */\n      0x40\n        /* \"#utility.yul\":4032:4037   */\n      dup3\n        /* \"#utility.yul\":4028:4044   */\n      add\n        /* \"#utility.yul\":4022:4045   */\n      mload\n        /* \"#utility.yul\":4058:4121   */\n      tag_310\n        /* \"#utility.yul\":4115:4119   */\n      0x40\n        /* \"#utility.yul\":4110:4113   */\n      dup6\n        /* \"#utility.yul\":4106:4120   */\n      add\n        /* \"#utility.yul\":4092:4104   */\n      dup3\n        /* \"#utility.yul\":4058:4121   */\n      tag_212\n      jump\t// in\n    tag_310:\n        /* \"#utility.yul\":3956:4131   */\n      pop\n        /* \"#utility.yul\":4220:4224   */\n      0x60\n        /* \"#utility.yul\":4213:4218   */\n      dup3\n        /* \"#utility.yul\":4209:4225   */\n      add\n        /* \"#utility.yul\":4203:4226   */\n      mload\n        /* \"#utility.yul\":4239:4302   */\n      tag_311\n        /* \"#utility.yul\":4296:4300   */\n      0x60\n        /* \"#utility.yul\":4291:4294   */\n      dup6\n        /* \"#utility.yul\":4287:4301   */\n      add\n        /* \"#utility.yul\":4273:4285   */\n      dup3\n        /* \"#utility.yul\":4239:4302   */\n      tag_212\n      jump\t// in\n    tag_311:\n        /* \"#utility.yul\":4141:4312   */\n      pop\n        /* \"#utility.yul\":3548:4319   */\n      pop\n        /* \"#utility.yul\":3430:4319   */\n      pop\n      pop\n      jump\t// out\n        /* \"#utility.yul\":4325:4628   */\n    tag_214:\n        /* \"#utility.yul\":4456:4466   */\n      0x00\n        /* \"#utility.yul\":4477:4585   */\n      tag_313\n        /* \"#utility.yul\":4581:4584   */\n      dup4\n        /* \"#utility.yul\":4573:4579   */\n      dup4\n        /* \"#utility.yul\":4477:4585   */\n      tag_213\n      jump\t// in\n    tag_313:\n        /* \"#utility.yul\":4617:4621   */\n      0x80\n        /* \"#utility.yul\":4612:4615   */\n      dup4\n        /* \"#utility.yul\":4608:4622   */\n      add\n        /* \"#utility.yul\":4594:4622   */\n      swap1\n      pop\n        /* \"#utility.yul\":4325:4628   */\n      swap3\n      swap2\n      pop\n      pop\n      jump\t// out\n        /* \"#utility.yul\":4634:4778   */\n    tag_215:\n        /* \"#utility.yul\":4735:4739   */\n      0x00\n        /* \"#utility.yul\":4767:4771   */\n      0x20\n        /* \"#utility.yul\":4762:4765   */\n      dup3\n        /* \"#utility.yul\":4758:4772   */\n      add\n        /* \"#utility.yul\":4750:4772   */\n      swap1\n      pop\n        /* \"#utility.yul\":4634:4778   */\n      swap2\n      swap1\n      pop\n      jump\t// out\n        /* \"#utility.yul\":4868:5848   */\n    tag_216:\n        /* \"#utility.yul\":5049:5052   */\n      0x00\n        /* \"#utility.yul\":5078:5163   */\n      tag_316\n        /* \"#utility.yul\":5157:5162   */\n      dup3\n        /* \"#utility.yul\":5078:5163   */\n      tag_209\n      jump\t// in\n    tag_316:\n        /* \"#utility.yul\":5179:5296   */\n      tag_317\n        /* \"#utility.yul\":5289:5295   */\n      dup2\n        /* \"#utility.yul\":5284:5287   */\n      dup6\n        /* \"#utility.yul\":5179:5296   */\n      tag_210\n      jump\t// in\n    tag_317:\n        /* \"#utility.yul\":5172:5296   */\n      swap4\n      pop\n        /* \"#utility.yul\":5320:5407   */\n      tag_318\n        /* \"#utility.yul\":5401:5406   */\n      dup4\n        /* \"#utility.yul\":5320:5407   */\n      tag_211\n      jump\t// in\n    tag_318:\n        /* \"#utility.yul\":5430:5437   */\n      dup1\n        /* \"#utility.yul\":5461:5462   */\n      0x00\n        /* \"#utility.yul\":5446:5823   */\n    tag_319:\n        /* \"#utility.yul\":5471:5477   */\n      dup4\n        /* \"#utility.yul\":5468:5469   */\n      dup2\n        /* \"#utility.yul\":5465:5478   */\n      lt\n        /* \"#utility.yul\":5446:5823   */\n      iszero\n      tag_321\n      jumpi\n        /* \"#utility.yul\":5547:5553   */\n      dup2\n        /* \"#utility.yul\":5541:5554   */\n      mload\n        /* \"#utility.yul\":5574:5699   */\n      tag_322\n        /* \"#utility.yul\":5695:5698   */\n      dup9\n        /* \"#utility.yul\":5680:5693   */\n      dup3\n        /* \"#utility.yul\":5574:5699   */\n      tag_214\n      jump\t// in\n    tag_322:\n        /* \"#utility.yul\":5567:5699   */\n      swap8\n      pop\n        /* \"#utility.yul\":5722:5813   */\n      tag_323\n        /* \"#utility.yul\":5806:5812   */\n      dup4\n        /* \"#utility.yul\":5722:5813   */\n      tag_215\n      jump\t// in\n    tag_323:\n        /* \"#utility.yul\":5712:5813   */\n      swap3\n      pop\n        /* \"#utility.yul\":5506:5823   */\n      pop\n        /* \"#utility.yul\":5493:5494   */\n      0x01\n        /* \"#utility.yul\":5490:5491   */\n      dup2\n        /* \"#utility.yul\":5486:5495   */\n      add\n        /* \"#utility.yul\":5481:5495   */\n      swap1\n      pop\n        /* \"#utility.yul\":5446:5823   */\n      jump(tag_319)\n    tag_321:\n        /* \"#utility.yul\":5450:5464   */\n      pop\n        /* \"#utility.yul\":5839:5842   */\n      dup6\n        /* \"#utility.yul\":5832:5842   */\n      swap4\n      pop\n        /* \"#utility.yul\":5054:5848   */\n      pop\n      pop\n      pop\n        /* \"#utility.yul\":4868:5848   */\n      swap3\n      swap2\n      pop\n      pop\n      jump\t// out\n        /* \"#utility.yul\":5854:6351   */\n    tag_32:\n        /* \"#utility.yul\":6059:6063   */\n      0x00\n        /* \"#utility.yul\":6097:6099   */\n      0x20\n        /* \"#utility.yul\":6086:6095   */\n      dup3\n        /* \"#utility.yul\":6082:6100   */\n      add\n        /* \"#utility.yul\":6074:6100   */\n      swap1\n      pop\n        /* \"#utility.yul\":6146:6155   */\n      dup2\n        /* \"#utility.yul\":6140:6144   */\n      dup2\n        /* \"#utility.yul\":6136:6156   */\n      sub\n        /* \"#utility.yul\":6132:6133   */\n      0x00\n        /* \"#utility.yul\":6121:6130   */\n      dup4\n        /* \"#utility.yul\":6117:6134   */\n      add\n        /* \"#utility.yul\":6110:6157   */\n      mstore\n        /* \"#utility.yul\":6174:6344   */\n      tag_325\n        /* \"#utility.yul\":6339:6343   */\n      dup2\n        /* \"#utility.yul\":6330:6336   */\n      dup5\n        /* \"#utility.yul\":6174:6344   */\n      tag_216\n      jump\t// in\n    tag_325:\n        /* \"#utility.yul\":6166:6344   */\n      swap1\n      pop\n        /* \"#utility.yul\":5854:6351   */\n      swap3\n      swap2\n      pop\n      pop\n      jump\t// out\n        /* \"#utility.yul\":6357:6471   */\n    tag_217:\n        /* \"#utility.yul\":6424:6430   */\n      0x00\n        /* \"#utility.yul\":6458:6463   */\n      dup2\n        /* \"#utility.yul\":6452:6464   */\n      mload\n        /* \"#utility.yul\":6442:6464   */\n      swap1\n      pop\n        /* \"#utility.yul\":6357:6471   */\n      swap2\n      swap1\n      pop\n      jump\t// out\n        /* \"#utility.yul\":6477:6661   */\n    tag_218:\n        /* \"#utility.yul\":6576:6587   */\n      0x00\n        /* \"#utility.yul\":6610:6616   */\n      dup3\n        /* \"#utility.yul\":6605:6608   */\n      dup3\n        /* \"#utility.yul\":6598:6617   */\n      mstore\n        /* \"#utility.yul\":6650:6654   */\n      0x20\n        /* \"#utility.yul\":6645:6648   */\n      dup3\n        /* \"#utility.yul\":6641:6655   */\n      add\n        /* \"#utility.yul\":6626:6655   */\n      swap1\n      pop\n        /* \"#utility.yul\":6477:6661   */\n      swap3\n      swap2\n      pop\n      pop\n      jump\t// out\n        /* \"#utility.yul\":6667:6799   */\n    tag_219:\n        /* \"#utility.yul\":6734:6738   */\n      0x00\n        /* \"#utility.yul\":6757:6760   */\n      dup2\n        /* \"#utility.yul\":6749:6760   */\n      swap1\n      pop\n        /* \"#utility.yul\":6787:6791   */\n      0x20\n        /* \"#utility.yul\":6782:6785   */\n      dup3\n        /* \"#utility.yul\":6778:6792   */\n      add\n        /* \"#utility.yul\":6770:6792   */\n      swap1\n      pop\n        /* \"#utility.yul\":6667:6799   */\n      swap2\n      swap1\n      pop\n      jump\t// out\n        /* \"#utility.yul\":6805:6984   */\n    tag_220:\n        /* \"#utility.yul\":6874:6884   */\n      0x00\n        /* \"#utility.yul\":6895:6941   */\n      tag_330\n        /* \"#utility.yul\":6937:6940   */\n      dup4\n        /* \"#utility.yul\":6929:6935   */\n      dup4\n        /* \"#utility.yul\":6895:6941   */\n      tag_212\n      jump\t// in\n    tag_330:\n        /* \"#utility.yul\":6973:6977   */\n      0x20\n        /* \"#utility.yul\":6968:6971   */\n      dup4\n        /* \"#utility.yul\":6964:6978   */\n      add\n        /* \"#utility.yul\":6950:6978   */\n      swap1\n      pop\n        /* \"#utility.yul\":6805:6984   */\n      swap3\n      swap2\n      pop\n      pop\n      jump\t// out\n        /* \"#utility.yul\":6990:7103   */\n    tag_221:\n        /* \"#utility.yul\":7060:7064   */\n      0x00\n        /* \"#utility.yul\":7092:7096   */\n      0x20\n        /* \"#utility.yul\":7087:7090   */\n      dup3\n        /* \"#utility.yul\":7083:7097   */\n      add\n        /* \"#utility.yul\":7075:7097   */\n      swap1\n      pop\n        /* \"#utility.yul\":6990:7103   */\n      swap2\n      swap1\n      pop\n      jump\t// out\n        /* \"#utility.yul\":7139:7871   */\n    tag_222:\n        /* \"#utility.yul\":7258:7261   */\n      0x00\n        /* \"#utility.yul\":7287:7341   */\n      tag_333\n        /* \"#utility.yul\":7335:7340   */\n      dup3\n        /* \"#utility.yul\":7287:7341   */\n      tag_217\n      jump\t// in\n    tag_333:\n        /* \"#utility.yul\":7357:7443   */\n      tag_334\n        /* \"#utility.yul\":7436:7442   */\n      dup2\n        /* \"#utility.yul\":7431:7434   */\n      dup6\n        /* \"#utility.yul\":7357:7443   */\n      tag_218\n      jump\t// in\n    tag_334:\n        /* \"#utility.yul\":7350:7443   */\n      swap4\n      pop\n        /* \"#utility.yul\":7467:7523   */\n      tag_335\n        /* \"#utility.yul\":7517:7522   */\n      dup4\n        /* \"#utility.yul\":7467:7523   */\n      tag_219\n      jump\t// in\n    tag_335:\n        /* \"#utility.yul\":7546:7553   */\n      dup1\n        /* \"#utility.yul\":7577:7578   */\n      0x00\n        /* \"#utility.yul\":7562:7846   */\n    tag_336:\n        /* \"#utility.yul\":7587:7593   */\n      dup4\n        /* \"#utility.yul\":7584:7585   */\n      dup2\n        /* \"#utility.yul\":7581:7594   */\n      lt\n        /* \"#utility.yul\":7562:7846   */\n      iszero\n      tag_338\n      jumpi\n        /* \"#utility.yul\":7663:7669   */\n      dup2\n        /* \"#utility.yul\":7657:7670   */\n      mload\n        /* \"#utility.yul\":7690:7753   */\n      tag_339\n        /* \"#utility.yul\":7749:7752   */\n      dup9\n        /* \"#utility.yul\":7734:7747   */\n      dup3\n        /* \"#utility.yul\":7690:7753   */\n      tag_220\n      jump\t// in\n    tag_339:\n        /* \"#utility.yul\":7683:7753   */\n      swap8\n      pop\n        /* \"#utility.yul\":7776:7836   */\n      tag_340\n        /* \"#utility.yul\":7829:7835   */\n      dup4\n        /* \"#utility.yul\":7776:7836   */\n      tag_221\n      jump\t// in\n    tag_340:\n        /* \"#utility.yul\":7766:7836   */\n      swap3\n      pop\n        /* \"#utility.yul\":7622:7846   */\n      pop\n        /* \"#utility.yul\":7609:7610   */\n      0x01\n        /* \"#utility.yul\":7606:7607   */\n      dup2\n        /* \"#utility.yul\":7602:7611   */\n      add\n        /* \"#utility.yul\":7597:7611   */\n      swap1\n      pop\n        /* \"#utility.yul\":7562:7846   */\n      jump(tag_336)\n    tag_338:\n        /* \"#utility.yul\":7566:7580   */\n      pop\n        /* \"#utility.yul\":7862:7865   */\n      dup6\n        /* \"#utility.yul\":7855:7865   */\n      swap4\n      pop\n        /* \"#utility.yul\":7263:7871   */\n      pop\n      pop\n      pop\n        /* \"#utility.yul\":7139:7871   */\n      swap3\n      swap2\n      pop\n      pop\n      jump\t// out\n        /* \"#utility.yul\":7877:8250   */\n    tag_37:\n        /* \"#utility.yul\":8020:8024   */\n      0x00\n        /* \"#utility.yul\":8058:8060   */\n      0x20\n        /* \"#utility.yul\":8047:8056   */\n      dup3\n        /* \"#utility.yul\":8043:8061   */\n      add\n        /* \"#utility.yul\":8035:8061   */\n      swap1\n      pop\n        /* \"#utility.yul\":8107:8116   */\n      dup2\n        /* \"#utility.yul\":8101:8105   */\n      dup2\n        /* \"#utility.yul\":8097:8117   */\n      sub\n        /* \"#utility.yul\":8093:8094   */\n      0x00\n        /* \"#utility.yul\":8082:8091   */\n      dup4\n        /* \"#utility.yul\":8078:8095   */\n      add\n        /* \"#utility.yul\":8071:8118   */\n      mstore\n        /* \"#utility.yul\":8135:8243   */\n      tag_342\n        /* \"#utility.yul\":8238:8242   */\n      dup2\n        /* \"#utility.yul\":8229:8235   */\n      dup5\n        /* \"#utility.yul\":8135:8243   */\n      tag_222\n      jump\t// in\n    tag_342:\n        /* \"#utility.yul\":8127:8243   */\n      swap1\n      pop\n        /* \"#utility.yul\":7877:8250   */\n      swap3\n      swap2\n      pop\n      pop\n      jump\t// out\n        /* \"#utility.yul\":8256:8478   */\n    tag_46:\n        /* \"#utility.yul\":8349:8353   */\n      0x00\n        /* \"#utility.yul\":8387:8389   */\n      0x20\n        /* \"#utility.yul\":8376:8385   */\n      dup3\n        /* \"#utility.yul\":8372:8390   */\n      add\n        /* \"#utility.yul\":8364:8390   */\n      swap1\n      pop\n        /* \"#utility.yul\":8400:8471   */\n      tag_344\n        /* \"#utility.yul\":8468:8469   */\n      0x00\n        /* \"#utility.yul\":8457:8466   */\n      dup4\n        /* \"#utility.yul\":8453:8470   */\n      add\n        /* \"#utility.yul\":8444:8450   */\n      dup5\n        /* \"#utility.yul\":8400:8471   */\n      tag_208\n      jump\t// in\n    tag_344:\n        /* \"#utility.yul\":8256:8478   */\n      swap3\n      swap2\n      pop\n      pop\n      jump\t// out\n        /* \"#utility.yul\":8484:8602   */\n    tag_223:\n        /* \"#utility.yul\":8571:8595   */\n      tag_346\n        /* \"#utility.yul\":8589:8594   */\n      dup2\n        /* \"#utility.yul\":8571:8595   */\n      tag_205\n      jump\t// in\n    tag_346:\n        /* \"#utility.yul\":8566:8569   */\n      dup3\n        /* \"#utility.yul\":8559:8596   */\n      mstore\n        /* \"#utility.yul\":8484:8602   */\n      pop\n      pop\n      jump\t// out\n        /* \"#utility.yul\":8608:8830   */\n    tag_51:\n        /* \"#utility.yul\":8701:8705   */\n      0x00\n        /* \"#utility.yul\":8739:8741   */\n      0x20\n        /* \"#utility.yul\":8728:8737   */\n      dup3\n        /* \"#utility.yul\":8724:8742   */\n      add\n        /* \"#utility.yul\":8716:8742   */\n      swap1\n      pop\n        /* \"#utility.yul\":8752:8823   */\n      tag_348\n        /* \"#utility.yul\":8820:8821   */\n      0x00\n        /* \"#utility.yul\":8809:8818   */\n      dup4\n        /* \"#utility.yul\":8805:8822   */\n      add\n        /* \"#utility.yul\":8796:8802   */\n      dup5\n        /* \"#utility.yul\":8752:8823   */\n      tag_223\n      jump\t// in\n    tag_348:\n        /* \"#utility.yul\":8608:8830   */\n      swap3\n      swap2\n      pop\n      pop\n      jump\t// out\n        /* \"#utility.yul\":8836:8953   */\n    tag_224:\n        /* \"#utility.yul\":8945:8946   */\n      0x00\n        /* \"#utility.yul\":8942:8943   */\n      dup1\n        /* \"#utility.yul\":8935:8947   */\n      revert\n        /* \"#utility.yul\":8959:9076   */\n    tag_225:\n        /* \"#utility.yul\":9068:9069   */\n      0x00\n        /* \"#utility.yul\":9065:9066   */\n      dup1\n        /* \"#utility.yul\":9058:9070   */\n      revert\n        /* \"#utility.yul\":9082:9184   */\n    tag_226:\n        /* \"#utility.yul\":9123:9129   */\n      0x00\n        /* \"#utility.yul\":9174:9176   */\n      0x1f\n        /* \"#utility.yul\":9170:9177   */\n      not\n        /* \"#utility.yul\":9165:9167   */\n      0x1f\n        /* \"#utility.yul\":9158:9163   */\n      dup4\n        /* \"#utility.yul\":9154:9168   */\n      add\n        /* \"#utility.yul\":9150:9178   */\n      and\n        /* \"#utility.yul\":9140:9178   */\n      swap1\n      pop\n        /* \"#utility.yul\":9082:9184   */\n      swap2\n      swap1\n      pop\n      jump\t// out\n        /* \"#utility.yul\":9190:9370   */\n    tag_108:\n        /* \"#utility.yul\":9238:9315   */\n      0x4e487b7100000000000000000000000000000000000000000000000000000000\n        /* \"#utility.yul\":9235:9236   */\n      0x00\n        /* \"#utility.yul\":9228:9316   */\n      mstore\n        /* \"#utility.yul\":9335:9339   */\n      0x41\n        /* \"#utility.yul\":9332:9333   */\n      0x04\n        /* \"#utility.yul\":9325:9340   */\n      mstore\n        /* \"#utility.yul\":9359:9363   */\n      0x24\n        /* \"#utility.yul\":9356:9357   */\n      0x00\n        /* \"#utility.yul\":9349:9364   */\n      revert\n        /* \"#utility.yul\":9376:9657   */\n    tag_227:\n        /* \"#utility.yul\":9459:9486   */\n      tag_354\n        /* \"#utility.yul\":9481:9485   */\n      dup3\n        /* \"#utility.yul\":9459:9486   */\n      tag_226\n      jump\t// in\n    tag_354:\n        /* \"#utility.yul\":9451:9457   */\n      dup2\n        /* \"#utility.yul\":9447:9487   */\n      add\n        /* \"#utility.yul\":9589:9595   */\n      dup2\n        /* \"#utility.yul\":9577:9587   */\n      dup2\n        /* \"#utility.yul\":9574:9596   */\n      lt\n        /* \"#utility.yul\":9553:9571   */\n      0xffffffffffffffff\n        /* \"#utility.yul\":9541:9551   */\n      dup3\n        /* \"#utility.yul\":9538:9572   */\n      gt\n        /* \"#utility.yul\":9535:9597   */\n      or\n        /* \"#utility.yul\":9532:9620   */\n      iszero\n      tag_355\n      jumpi\n        /* \"#utility.yul\":9600:9618   */\n      tag_356\n      tag_108\n      jump\t// in\n    tag_356:\n        /* \"#utility.yul\":9532:9620   */\n    tag_355:\n        /* \"#utility.yul\":9640:9650   */\n      dup1\n        /* \"#utility.yul\":9636:9638   */\n      0x40\n        /* \"#utility.yul\":9629:9651   */\n      mstore\n        /* \"#utility.yul\":9419:9657   */\n      pop\n        /* \"#utility.yul\":9376:9657   */\n      pop\n      pop\n      jump\t// out\n        /* \"#utility.yul\":9663:9792   */\n    tag_228:\n        /* \"#utility.yul\":9697:9703   */\n      0x00\n        /* \"#utility.yul\":9724:9744   */\n      tag_358\n      tag_198\n      jump\t// in\n    tag_358:\n        /* \"#utility.yul\":9714:9744   */\n      swap1\n      pop\n        /* \"#utility.yul\":9753:9786   */\n      tag_359\n        /* \"#utility.yul\":9781:9785   */\n      dup3\n        /* \"#utility.yul\":9773:9779   */\n      dup3\n        /* \"#utility.yul\":9753:9786   */\n      tag_227\n      jump\t// in\n    tag_359:\n        /* \"#utility.yul\":9663:9792   */\n      swap2\n      swap1\n      pop\n      jump\t// out\n        /* \"#utility.yul\":9798:10106   */\n    tag_229:\n        /* \"#utility.yul\":9860:9864   */\n      0x00\n        /* \"#utility.yul\":9950:9968   */\n      0xffffffffffffffff\n        /* \"#utility.yul\":9942:9948   */\n      dup3\n        /* \"#utility.yul\":9939:9969   */\n      gt\n        /* \"#utility.yul\":9936:9992   */\n      iszero\n      tag_361\n      jumpi\n        /* \"#utility.yul\":9972:9990   */\n      tag_362\n      tag_108\n      jump\t// in\n    tag_362:\n        /* \"#utility.yul\":9936:9992   */\n    tag_361:\n        /* \"#utility.yul\":10010:10039   */\n      tag_363\n        /* \"#utility.yul\":10032:10038   */\n      dup3\n        /* \"#utility.yul\":10010:10039   */\n      tag_226\n      jump\t// in\n    tag_363:\n        /* \"#utility.yul\":10002:10039   */\n      swap1\n      pop\n        /* \"#utility.yul\":10094:10098   */\n      0x20\n        /* \"#utility.yul\":10088:10092   */\n      dup2\n        /* \"#utility.yul\":10084:10099   */\n      add\n        /* \"#utility.yul\":10076:10099   */\n      swap1\n      pop\n        /* \"#utility.yul\":9798:10106   */\n      swap2\n      swap1\n      pop\n      jump\t// out\n        /* \"#utility.yul\":10112:10260   */\n    tag_230:\n        /* \"#utility.yul\":10210:10216   */\n      dup3\n        /* \"#utility.yul\":10205:10208   */\n      dup2\n        /* \"#utility.yul\":10200:10203   */\n      dup4\n        /* \"#utility.yul\":10187:10217   */\n      calldatacopy\n        /* \"#utility.yul\":10251:10252   */\n      0x00\n        /* \"#utility.yul\":10242:10248   */\n      dup4\n        /* \"#utility.yul\":10237:10240   */\n      dup4\n        /* \"#utility.yul\":10233:10249   */\n      add\n        /* \"#utility.yul\":10226:10253   */\n      mstore\n        /* \"#utility.yul\":10112:10260   */\n      pop\n      pop\n      pop\n      jump\t// out\n        /* \"#utility.yul\":10266:10691   */\n    tag_231:\n        /* \"#utility.yul\":10344:10349   */\n      0x00\n        /* \"#utility.yul\":10369:10435   */\n      tag_366\n        /* \"#utility.yul\":10385:10434   */\n      tag_367\n        /* \"#utility.yul\":10427:10433   */\n      dup5\n        /* \"#utility.yul\":10385:10434   */\n      tag_229\n      jump\t// in\n    tag_367:\n        /* \"#utility.yul\":10369:10435   */\n      tag_228\n      jump\t// in\n    tag_366:\n        /* \"#utility.yul\":10360:10435   */\n      swap1\n      pop\n        /* \"#utility.yul\":10458:10464   */\n      dup3\n        /* \"#utility.yul\":10451:10456   */\n      dup2\n        /* \"#utility.yul\":10444:10465   */\n      mstore\n        /* \"#utility.yul\":10496:10500   */\n      0x20\n        /* \"#utility.yul\":10489:10494   */\n      dup2\n        /* \"#utility.yul\":10485:10501   */\n      add\n        /* \"#utility.yul\":10534:10537   */\n      dup5\n        /* \"#utility.yul\":10525:10531   */\n      dup5\n        /* \"#utility.yul\":10520:10523   */\n      dup5\n        /* \"#utility.yul\":10516:10532   */\n      add\n        /* \"#utility.yul\":10513:10538   */\n      gt\n        /* \"#utility.yul\":10510:10622   */\n      iszero\n      tag_368\n      jumpi\n        /* \"#utility.yul\":10541:10620   */\n      tag_369\n      tag_225\n      jump\t// in\n    tag_369:\n        /* \"#utility.yul\":10510:10622   */\n    tag_368:\n        /* \"#utility.yul\":10631:10685   */\n      tag_370\n        /* \"#utility.yul\":10678:10684   */\n      dup5\n        /* \"#utility.yul\":10673:10676   */\n      dup3\n        /* \"#utility.yul\":10668:10671   */\n      dup6\n        /* \"#utility.yul\":10631:10685   */\n      tag_230\n      jump\t// in\n    tag_370:\n        /* \"#utility.yul\":10350:10691   */\n      pop\n        /* \"#utility.yul\":10266:10691   */\n      swap4\n      swap3\n      pop\n      pop\n      pop\n      jump\t// out\n        /* \"#utility.yul\":10711:11051   */\n    tag_232:\n        /* \"#utility.yul\":10767:10772   */\n      0x00\n        /* \"#utility.yul\":10816:10819   */\n      dup3\n        /* \"#utility.yul\":10809:10813   */\n      0x1f\n        /* \"#utility.yul\":10801:10807   */\n      dup4\n        /* \"#utility.yul\":10797:10814   */\n      add\n        /* \"#utility.yul\":10793:10820   */\n      slt\n        /* \"#utility.yul\":10783:10905   */\n      tag_372\n      jumpi\n        /* \"#utility.yul\":10824:10903   */\n      tag_373\n      tag_224\n      jump\t// in\n    tag_373:\n        /* \"#utility.yul\":10783:10905   */\n    tag_372:\n        /* \"#utility.yul\":10941:10947   */\n      dup2\n        /* \"#utility.yul\":10928:10948   */\n      calldataload\n        /* \"#utility.yul\":10966:11045   */\n      tag_374\n        /* \"#utility.yul\":11041:11044   */\n      dup5\n        /* \"#utility.yul\":11033:11039   */\n      dup3\n        /* \"#utility.yul\":11026:11030   */\n      0x20\n        /* \"#utility.yul\":11018:11024   */\n      dup7\n        /* \"#utility.yul\":11014:11031   */\n      add\n        /* \"#utility.yul\":10966:11045   */\n      tag_231\n      jump\t// in\n    tag_374:\n        /* \"#utility.yul\":10957:11045   */\n      swap2\n      pop\n        /* \"#utility.yul\":10773:11051   */\n      pop\n        /* \"#utility.yul\":10711:11051   */\n      swap3\n      swap2\n      pop\n      pop\n      jump\t// out\n        /* \"#utility.yul\":11057:12036   */\n    tag_59:\n        /* \"#utility.yul\":11154:11160   */\n      0x00\n        /* \"#utility.yul\":11162:11168   */\n      dup1\n        /* \"#utility.yul\":11170:11176   */\n      0x00\n        /* \"#utility.yul\":11219:11221   */\n      0x60\n        /* \"#utility.yul\":11207:11216   */\n      dup5\n        /* \"#utility.yul\":11198:11205   */\n      dup7\n        /* \"#utility.yul\":11194:11217   */\n      sub\n        /* \"#utility.yul\":11190:11222   */\n      slt\n        /* \"#utility.yul\":11187:11306   */\n      iszero\n      tag_376\n      jumpi\n        /* \"#utility.yul\":11225:11304   */\n      tag_377\n      tag_199\n      jump\t// in\n    tag_377:\n        /* \"#utility.yul\":11187:11306   */\n    tag_376:\n        /* \"#utility.yul\":11373:11374   */\n      0x00\n        /* \"#utility.yul\":11362:11371   */\n      dup5\n        /* \"#utility.yul\":11358:11375   */\n      add\n        /* \"#utility.yul\":11345:11376   */\n      calldataload\n        /* \"#utility.yul\":11403:11421   */\n      0xffffffffffffffff\n        /* \"#utility.yul\":11395:11401   */\n      dup2\n        /* \"#utility.yul\":11392:11422   */\n      gt\n        /* \"#utility.yul\":11389:11506   */\n      iszero\n      tag_378\n      jumpi\n        /* \"#utility.yul\":11425:11504   */\n      tag_379\n      tag_200\n      jump\t// in\n    tag_379:\n        /* \"#utility.yul\":11389:11506   */\n    tag_378:\n        /* \"#utility.yul\":11530:11593   */\n      tag_380\n        /* \"#utility.yul\":11585:11592   */\n      dup7\n        /* \"#utility.yul\":11576:11582   */\n      dup3\n        /* \"#utility.yul\":11565:11574   */\n      dup8\n        /* \"#utility.yul\":11561:11583   */\n      add\n        /* \"#utility.yul\":11530:11593   */\n      tag_232\n      jump\t// in\n    tag_380:\n        /* \"#utility.yul\":11520:11593   */\n      swap4\n      pop\n        /* \"#utility.yul\":11316:11603   */\n      pop\n        /* \"#utility.yul\":11670:11672   */\n      0x20\n        /* \"#utility.yul\":11659:11668   */\n      dup5\n        /* \"#utility.yul\":11655:11673   */\n      add\n        /* \"#utility.yul\":11642:11674   */\n      calldataload\n        /* \"#utility.yul\":11701:11719   */\n      0xffffffffffffffff\n        /* \"#utility.yul\":11693:11699   */\n      dup2\n        /* \"#utility.yul\":11690:11720   */\n      gt\n        /* \"#utility.yul\":11687:11804   */\n      iszero\n      tag_381\n      jumpi\n        /* \"#utility.yul\":11723:11802   */\n      tag_382\n      tag_200\n      jump\t// in\n    tag_382:\n        /* \"#utility.yul\":11687:11804   */\n    tag_381:\n        /* \"#utility.yul\":11828:11891   */\n      tag_383\n        /* \"#utility.yul\":11883:11890   */\n      dup7\n        /* \"#utility.yul\":11874:11880   */\n      dup3\n        /* \"#utility.yul\":11863:11872   */\n      dup8\n        /* \"#utility.yul\":11859:11881   */\n      add\n        /* \"#utility.yul\":11828:11891   */\n      tag_232\n      jump\t// in\n    tag_383:\n        /* \"#utility.yul\":11818:11891   */\n      swap3\n      pop\n        /* \"#utility.yul\":11613:11901   */\n      pop\n        /* \"#utility.yul\":11940:11942   */\n      0x40\n        /* \"#utility.yul\":11966:12019   */\n      tag_384\n        /* \"#utility.yul\":12011:12018   */\n      dup7\n        /* \"#utility.yul\":12002:12008   */\n      dup3\n        /* \"#utility.yul\":11991:12000   */\n      dup8\n        /* \"#utility.yul\":11987:12009   */\n      add\n        /* \"#utility.yul\":11966:12019   */\n      tag_203\n      jump\t// in\n    tag_384:\n        /* \"#utility.yul\":11956:12019   */\n      swap2\n      pop\n        /* \"#utility.yul\":11911:12029   */\n      pop\n        /* \"#utility.yul\":11057:12036   */\n      swap3\n      pop\n      swap3\n      pop\n      swap3\n      jump\t// out\n        /* \"#utility.yul\":12042:12141   */\n    tag_233:\n        /* \"#utility.yul\":12094:12100   */\n      0x00\n        /* \"#utility.yul\":12128:12133   */\n      dup2\n        /* \"#utility.yul\":12122:12134   */\n      mload\n        /* \"#utility.yul\":12112:12134   */\n      swap1\n      pop\n        /* \"#utility.yul\":12042:12141   */\n      swap2\n      swap1\n      pop\n      jump\t// out\n        /* \"#utility.yul\":12147:12316   */\n    tag_234:\n        /* \"#utility.yul\":12231:12242   */\n      0x00\n        /* \"#utility.yul\":12265:12271   */\n      dup3\n        /* \"#utility.yul\":12260:12263   */\n      dup3\n        /* \"#utility.yul\":12253:12272   */\n      mstore\n        /* \"#utility.yul\":12305:12309   */\n      0x20\n        /* \"#utility.yul\":12300:12303   */\n      dup3\n        /* \"#utility.yul\":12296:12310   */\n      add\n        /* \"#utility.yul\":12281:12310   */\n      swap1\n      pop\n        /* \"#utility.yul\":12147:12316   */\n      swap3\n      swap2\n      pop\n      pop\n      jump\t// out\n        /* \"#utility.yul\":12322:12461   */\n    tag_235:\n        /* \"#utility.yul\":12411:12417   */\n      dup3\n        /* \"#utility.yul\":12406:12409   */\n      dup2\n        /* \"#utility.yul\":12401:12404   */\n      dup4\n        /* \"#utility.yul\":12395:12418   */\n      mcopy\n        /* \"#utility.yul\":12452:12453   */\n      0x00\n        /* \"#utility.yul\":12443:12449   */\n      dup4\n        /* \"#utility.yul\":12438:12441   */\n      dup4\n        /* \"#utility.yul\":12434:12450   */\n      add\n        /* \"#utility.yul\":12427:12454   */\n      mstore\n        /* \"#utility.yul\":12322:12461   */\n      pop\n      pop\n      pop\n      jump\t// out\n        /* \"#utility.yul\":12467:12844   */\n    tag_236:\n        /* \"#utility.yul\":12555:12558   */\n      0x00\n        /* \"#utility.yul\":12583:12622   */\n      tag_389\n        /* \"#utility.yul\":12616:12621   */\n      dup3\n        /* \"#utility.yul\":12583:12622   */\n      tag_233\n      jump\t// in\n    tag_389:\n        /* \"#utility.yul\":12638:12709   */\n      tag_390\n        /* \"#utility.yul\":12702:12708   */\n      dup2\n        /* \"#utility.yul\":12697:12700   */\n      dup6\n        /* \"#utility.yul\":12638:12709   */\n      tag_234\n      jump\t// in\n    tag_390:\n        /* \"#utility.yul\":12631:12709   */\n      swap4\n      pop\n        /* \"#utility.yul\":12718:12783   */\n      tag_391\n        /* \"#utility.yul\":12776:12782   */\n      dup2\n        /* \"#utility.yul\":12771:12774   */\n      dup6\n        /* \"#utility.yul\":12764:12768   */\n      0x20\n        /* \"#utility.yul\":12757:12762   */\n      dup7\n        /* \"#utility.yul\":12753:12769   */\n      add\n        /* \"#utility.yul\":12718:12783   */\n      tag_235\n      jump\t// in\n    tag_391:\n        /* \"#utility.yul\":12808:12837   */\n      tag_392\n        /* \"#utility.yul\":12830:12836   */\n      dup2\n        /* \"#utility.yul\":12808:12837   */\n      tag_226\n      jump\t// in\n    tag_392:\n        /* \"#utility.yul\":12803:12806   */\n      dup5\n        /* \"#utility.yul\":12799:12838   */\n      add\n        /* \"#utility.yul\":12792:12838   */\n      swap2\n      pop\n        /* \"#utility.yul\":12559:12844   */\n      pop\n        /* \"#utility.yul\":12467:12844   */\n      swap3\n      swap2\n      pop\n      pop\n      jump\t// out\n        /* \"#utility.yul\":12850:13696   */\n    tag_70:\n        /* \"#utility.yul\":13095:13099   */\n      0x00\n        /* \"#utility.yul\":13133:13136   */\n      0xa0\n        /* \"#utility.yul\":13122:13131   */\n      dup3\n        /* \"#utility.yul\":13118:13137   */\n      add\n        /* \"#utility.yul\":13110:13137   */\n      swap1\n      pop\n        /* \"#utility.yul\":13183:13192   */\n      dup2\n        /* \"#utility.yul\":13177:13181   */\n      dup2\n        /* \"#utility.yul\":13173:13193   */\n      sub\n        /* \"#utility.yul\":13169:13170   */\n      0x00\n        /* \"#utility.yul\":13158:13167   */\n      dup4\n        /* \"#utility.yul\":13154:13171   */\n      add\n        /* \"#utility.yul\":13147:13194   */\n      mstore\n        /* \"#utility.yul\":13211:13289   */\n      tag_394\n        /* \"#utility.yul\":13284:13288   */\n      dup2\n        /* \"#utility.yul\":13275:13281   */\n      dup9\n        /* \"#utility.yul\":13211:13289   */\n      tag_236\n      jump\t// in\n    tag_394:\n        /* \"#utility.yul\":13203:13289   */\n      swap1\n      pop\n        /* \"#utility.yul\":13336:13345   */\n      dup2\n        /* \"#utility.yul\":13330:13334   */\n      dup2\n        /* \"#utility.yul\":13326:13346   */\n      sub\n        /* \"#utility.yul\":13321:13323   */\n      0x20\n        /* \"#utility.yul\":13310:13319   */\n      dup4\n        /* \"#utility.yul\":13306:13324   */\n      add\n        /* \"#utility.yul\":13299:13347   */\n      mstore\n        /* \"#utility.yul\":13364:13442   */\n      tag_395\n        /* \"#utility.yul\":13437:13441   */\n      dup2\n        /* \"#utility.yul\":13428:13434   */\n      dup8\n        /* \"#utility.yul\":13364:13442   */\n      tag_236\n      jump\t// in\n    tag_395:\n        /* \"#utility.yul\":13356:13442   */\n      swap1\n      pop\n        /* \"#utility.yul\":13452:13524   */\n      tag_396\n        /* \"#utility.yul\":13520:13522   */\n      0x40\n        /* \"#utility.yul\":13509:13518   */\n      dup4\n        /* \"#utility.yul\":13505:13523   */\n      add\n        /* \"#utility.yul\":13496:13502   */\n      dup7\n        /* \"#utility.yul\":13452:13524   */\n      tag_208\n      jump\t// in\n    tag_396:\n        /* \"#utility.yul\":13534:13606   */\n      tag_397\n        /* \"#utility.yul\":13602:13604   */\n      0x60\n        /* \"#utility.yul\":13591:13600   */\n      dup4\n        /* \"#utility.yul\":13587:13605   */\n      add\n        /* \"#utility.yul\":13578:13584   */\n      dup6\n        /* \"#utility.yul\":13534:13606   */\n      tag_223\n      jump\t// in\n    tag_397:\n        /* \"#utility.yul\":13616:13689   */\n      tag_398\n        /* \"#utility.yul\":13684:13687   */\n      0x80\n        /* \"#utility.yul\":13673:13682   */\n      dup4\n        /* \"#utility.yul\":13669:13688   */\n      add\n        /* \"#utility.yul\":13660:13666   */\n      dup5\n        /* \"#utility.yul\":13616:13689   */\n      tag_208\n      jump\t// in\n    tag_398:\n        /* \"#utility.yul\":12850:13696   */\n      swap7\n      swap6\n      pop\n      pop\n      pop\n      pop\n      pop\n      pop\n      jump\t// out\n        /* \"#utility.yul\":13702:13866   */\n    tag_237:\n        /* \"#utility.yul\":13842:13858   */\n      0x496e76616c696420706574204944000000000000000000000000000000000000\n        /* \"#utility.yul\":13838:13839   */\n      0x00\n        /* \"#utility.yul\":13830:13836   */\n      dup3\n        /* \"#utility.yul\":13826:13840   */\n      add\n        /* \"#utility.yul\":13819:13859   */\n      mstore\n        /* \"#utility.yul\":13702:13866   */\n      pop\n      jump\t// out\n        /* \"#utility.yul\":13872:14238   */\n    tag_238:\n        /* \"#utility.yul\":14014:14017   */\n      0x00\n        /* \"#utility.yul\":14035:14102   */\n      tag_401\n        /* \"#utility.yul\":14099:14101   */\n      0x0e\n        /* \"#utility.yul\":14094:14097   */\n      dup4\n        /* \"#utility.yul\":14035:14102   */\n      tag_234\n      jump\t// in\n    tag_401:\n        /* \"#utility.yul\":14028:14102   */\n      swap2\n      pop\n        /* \"#utility.yul\":14111:14204   */\n      tag_402\n        /* \"#utility.yul\":14200:14203   */\n      dup3\n        /* \"#utility.yul\":14111:14204   */\n      tag_237\n      jump\t// in\n    tag_402:\n        /* \"#utility.yul\":14229:14231   */\n      0x20\n        /* \"#utility.yul\":14224:14227   */\n      dup3\n        /* \"#utility.yul\":14220:14232   */\n      add\n        /* \"#utility.yul\":14213:14232   */\n      swap1\n      pop\n        /* \"#utility.yul\":13872:14238   */\n      swap2\n      swap1\n      pop\n      jump\t// out\n        /* \"#utility.yul\":14244:14663   */\n    tag_83:\n        /* \"#utility.yul\":14410:14414   */\n      0x00\n        /* \"#utility.yul\":14448:14450   */\n      0x20\n        /* \"#utility.yul\":14437:14446   */\n      dup3\n        /* \"#utility.yul\":14433:14451   */\n      add\n        /* \"#utility.yul\":14425:14451   */\n      swap1\n      pop\n        /* \"#utility.yul\":14497:14506   */\n      dup2\n        /* \"#utility.yul\":14491:14495   */\n      dup2\n        /* \"#utility.yul\":14487:14507   */\n      sub\n        /* \"#utility.yul\":14483:14484   */\n      0x00\n        /* \"#utility.yul\":14472:14481   */\n      dup4\n        /* \"#utility.yul\":14468:14485   */\n      add\n        /* \"#utility.yul\":14461:14508   */\n      mstore\n        /* \"#utility.yul\":14525:14656   */\n      tag_404\n        /* \"#utility.yul\":14651:14655   */\n      dup2\n        /* \"#utility.yul\":14525:14656   */\n      tag_238\n      jump\t// in\n    tag_404:\n        /* \"#utility.yul\":14517:14656   */\n      swap1\n      pop\n        /* \"#utility.yul\":14244:14663   */\n      swap2\n      swap1\n      pop\n      jump\t// out\n        /* \"#utility.yul\":14669:14841   */\n    tag_239:\n        /* \"#utility.yul\":14809:14833   */\n      0x50657420697320616c72656164792061646f7074656400000000000000000000\n        /* \"#utility.yul\":14805:14806   */\n      0x00\n        /* \"#utility.yul\":14797:14803   */\n      dup3\n        /* \"#utility.yul\":14793:14807   */\n      add\n        /* \"#utility.yul\":14786:14834   */\n      mstore\n        /* \"#utility.yul\":14669:14841   */\n      pop\n      jump\t// out\n        /* \"#utility.yul\":14847:15213   */\n    tag_240:\n        /* \"#utility.yul\":14989:14992   */\n      0x00\n        /* \"#utility.yul\":15010:15077   */\n      tag_407\n        /* \"#utility.yul\":15074:15076   */\n      0x16\n        /* \"#utility.yul\":15069:15072   */\n      dup4\n        /* \"#utility.yul\":15010:15077   */\n      tag_234\n      jump\t// in\n    tag_407:\n        /* \"#utility.yul\":15003:15077   */\n      swap2\n      pop\n        /* \"#utility.yul\":15086:15179   */\n      tag_408\n        /* \"#utility.yul\":15175:15178   */\n      dup3\n        /* \"#utility.yul\":15086:15179   */\n      tag_239\n      jump\t// in\n    tag_408:\n        /* \"#utility.yul\":15204:15206   */\n      0x20\n        /* \"#utility.yul\":15199:15202   */\n      dup3\n        /* \"#utility.yul\":15195:15207   */\n      add\n        /* \"#utility.yul\":15188:15207   */\n      swap1\n      pop\n        /* \"#utility.yul\":14847:15213   */\n      swap2\n      swap1\n      pop\n      jump\t// out\n        /* \"#utility.yul\":15219:15638   */\n    tag_87:\n        /* \"#utility.yul\":15385:15389   */\n      0x00\n        /* \"#utility.yul\":15423:15425   */\n      0x20\n        /* \"#utility.yul\":15412:15421   */\n      dup3\n        /* \"#utility.yul\":15408:15426   */\n      add\n        /* \"#utility.yul\":15400:15426   */\n      swap1\n      pop\n        /* \"#utility.yul\":15472:15481   */\n      dup2\n        /* \"#utility.yul\":15466:15470   */\n      dup2\n        /* \"#utility.yul\":15462:15482   */\n      sub\n        /* \"#utility.yul\":15458:15459   */\n      0x00\n        /* \"#utility.yul\":15447:15456   */\n      dup4\n        /* \"#utility.yul\":15443:15460   */\n      add\n        /* \"#utility.yul\":15436:15483   */\n      mstore\n        /* \"#utility.yul\":15500:15631   */\n      tag_410\n        /* \"#utility.yul\":15626:15630   */\n      dup2\n        /* \"#utility.yul\":15500:15631   */\n      tag_240\n      jump\t// in\n    tag_410:\n        /* \"#utility.yul\":15492:15631   */\n      swap1\n      pop\n        /* \"#utility.yul\":15219:15638   */\n      swap2\n      swap1\n      pop\n      jump\t// out\n        /* \"#utility.yul\":15644:15823   */\n    tag_241:\n        /* \"#utility.yul\":15784:15815   */\n      0x496e73756666696369656e742066656520666f722061646f7074696f6e000000\n        /* \"#utility.yul\":15780:15781   */\n      0x00\n        /* \"#utility.yul\":15772:15778   */\n      dup3\n        /* \"#utility.yul\":15768:15782   */\n      add\n        /* \"#utility.yul\":15761:15816   */\n      mstore\n        /* \"#utility.yul\":15644:15823   */\n      pop\n      jump\t// out\n        /* \"#utility.yul\":15829:16195   */\n    tag_242:\n        /* \"#utility.yul\":15971:15974   */\n      0x00\n        /* \"#utility.yul\":15992:16059   */\n      tag_413\n        /* \"#utility.yul\":16056:16058   */\n      0x1d\n        /* \"#utility.yul\":16051:16054   */\n      dup4\n        /* \"#utility.yul\":15992:16059   */\n      tag_234\n      jump\t// in\n    tag_413:\n        /* \"#utility.yul\":15985:16059   */\n      swap2\n      pop\n        /* \"#utility.yul\":16068:16161   */\n      tag_414\n        /* \"#utility.yul\":16157:16160   */\n      dup3\n        /* \"#utility.yul\":16068:16161   */\n      tag_241\n      jump\t// in\n    tag_414:\n        /* \"#utility.yul\":16186:16188   */\n      0x20\n        /* \"#utility.yul\":16181:16184   */\n      dup3\n        /* \"#utility.yul\":16177:16189   */\n      add\n        /* \"#utility.yul\":16170:16189   */\n      swap1\n      pop\n        /* \"#utility.yul\":15829:16195   */\n      swap2\n      swap1\n      pop\n      jump\t// out\n        /* \"#utility.yul\":16201:16620   */\n    tag_90:\n        /* \"#utility.yul\":16367:16371   */\n      0x00\n        /* \"#utility.yul\":16405:16407   */\n      0x20\n        /* \"#utility.yul\":16394:16403   */\n      dup3\n        /* \"#utility.yul\":16390:16408   */\n      add\n        /* \"#utility.yul\":16382:16408   */\n      swap1\n      pop\n        /* \"#utility.yul\":16454:16463   */\n      dup2\n        /* \"#utility.yul\":16448:16452   */\n      dup2\n        /* \"#utility.yul\":16444:16464   */\n      sub\n        /* \"#utility.yul\":16440:16441   */\n      0x00\n        /* \"#utility.yul\":16429:16438   */\n      dup4\n        /* \"#utility.yul\":16425:16442   */\n      add\n        /* \"#utility.yul\":16418:16465   */\n      mstore\n        /* \"#utility.yul\":16482:16613   */\n      tag_416\n        /* \"#utility.yul\":16608:16612   */\n      dup2\n        /* \"#utility.yul\":16482:16613   */\n      tag_242\n      jump\t// in\n    tag_416:\n        /* \"#utility.yul\":16474:16613   */\n      swap1\n      pop\n        /* \"#utility.yul\":16201:16620   */\n      swap2\n      swap1\n      pop\n      jump\t// out\n        /* \"#utility.yul\":16626:17068   */\n    tag_92:\n        /* \"#utility.yul\":16775:16779   */\n      0x00\n        /* \"#utility.yul\":16813:16815   */\n      0x60\n        /* \"#utility.yul\":16802:16811   */\n      dup3\n        /* \"#utility.yul\":16798:16816   */\n      add\n        /* \"#utility.yul\":16790:16816   */\n      swap1\n      pop\n        /* \"#utility.yul\":16826:16897   */\n      tag_418\n        /* \"#utility.yul\":16894:16895   */\n      0x00\n        /* \"#utility.yul\":16883:16892   */\n      dup4\n        /* \"#utility.yul\":16879:16896   */\n      add\n        /* \"#utility.yul\":16870:16876   */\n      dup7\n        /* \"#utility.yul\":16826:16897   */\n      tag_208\n      jump\t// in\n    tag_418:\n        /* \"#utility.yul\":16907:16979   */\n      tag_419\n        /* \"#utility.yul\":16975:16977   */\n      0x20\n        /* \"#utility.yul\":16964:16973   */\n      dup4\n        /* \"#utility.yul\":16960:16978   */\n      add\n        /* \"#utility.yul\":16951:16957   */\n      dup6\n        /* \"#utility.yul\":16907:16979   */\n      tag_223\n      jump\t// in\n    tag_419:\n        /* \"#utility.yul\":16989:17061   */\n      tag_420\n        /* \"#utility.yul\":17057:17059   */\n      0x40\n        /* \"#utility.yul\":17046:17055   */\n      dup4\n        /* \"#utility.yul\":17042:17060   */\n      add\n        /* \"#utility.yul\":17033:17039   */\n      dup5\n        /* \"#utility.yul\":16989:17061   */\n      tag_208\n      jump\t// in\n    tag_420:\n        /* \"#utility.yul\":16626:17068   */\n      swap5\n      swap4\n      pop\n      pop\n      pop\n      pop\n      jump\t// out\n        /* \"#utility.yul\":17074:17254   */\n    tag_243:\n        /* \"#utility.yul\":17122:17199   */\n      0x4e487b7100000000000000000000000000000000000000000000000000000000\n        /* \"#utility.yul\":17119:17120   */\n      0x00\n        /* \"#utility.yul\":17112:17200   */\n      mstore\n        /* \"#utility.yul\":17219:17223   */\n      0x11\n        /* \"#utility.yul\":17216:17217   */\n      0x04\n        /* \"#utility.yul\":17209:17224   */\n      mstore\n        /* \"#utility.yul\":17243:17247   */\n      0x24\n        /* \"#utility.yul\":17240:17241   */\n      0x00\n        /* \"#utility.yul\":17233:17248   */\n      revert\n        /* \"#utility.yul\":17260:17493   */\n    tag_105:\n        /* \"#utility.yul\":17299:17302   */\n      0x00\n        /* \"#utility.yul\":17322:17346   */\n      tag_423\n        /* \"#utility.yul\":17340:17345   */\n      dup3\n        /* \"#utility.yul\":17322:17346   */\n      tag_201\n      jump\t// in\n    tag_423:\n        /* \"#utility.yul\":17313:17346   */\n      swap2\n      pop\n        /* \"#utility.yul\":17368:17434   */\n      0xffffffffffffffffffffffffffffffffffffffffffffffffffffffffffffffff\n        /* \"#utility.yul\":17361:17366   */\n      dup3\n        /* \"#utility.yul\":17358:17435   */\n      sub\n        /* \"#utility.yul\":17355:17458   */\n      tag_424\n      jumpi\n        /* \"#utility.yul\":17438:17456   */\n      tag_425\n      tag_243\n      jump\t// in\n    tag_425:\n        /* \"#utility.yul\":17355:17458   */\n    tag_424:\n        /* \"#utility.yul\":17485:17486   */\n      0x01\n        /* \"#utility.yul\":17478:17483   */\n      dup3\n        /* \"#utility.yul\":17474:17487   */\n      add\n        /* \"#utility.yul\":17467:17487   */\n      swap1\n      pop\n        /* \"#utility.yul\":17260:17493   */\n      swap2\n      swap1\n      pop\n      jump\t// out\n        /* \"#utility.yul\":17499:17679   */\n    tag_116:\n        /* \"#utility.yul\":17547:17624   */\n      0x4e487b7100000000000000000000000000000000000000000000000000000000\n        /* \"#utility.yul\":17544:17545   */\n      0x00\n        /* \"#utility.yul\":17537:17625   */\n      mstore\n        /* \"#utility.yul\":17644:17648   */\n      0x32\n        /* \"#utility.yul\":17641:17642   */\n      0x04\n        /* \"#utility.yul\":17634:17649   */\n      mstore\n        /* \"#utility.yul\":17668:17672   */\n      0x24\n        /* \"#utility.yul\":17665:17666   */\n      0x00\n        /* \"#utility.yul\":17658:17673   */\n      revert\n        /* \"#utility.yul\":17685:17905   */\n    tag_244:\n        /* \"#utility.yul\":17825:17859   */\n      0x4f6e6c79206f776e65722063616e2063616c6c20746869732066756e6374696f\n        /* \"#utility.yul\":17821:17822   */\n      0x00\n        /* \"#utility.yul\":17813:17819   */\n      dup3\n        /* \"#utility.yul\":17809:17823   */\n      add\n        /* \"#utility.yul\":17802:17860   */\n      mstore\n        /* \"#utility.yul\":17894:17897   */\n      0x6e00000000000000000000000000000000000000000000000000000000000000\n        /* \"#utility.yul\":17889:17891   */\n      0x20\n        /* \"#utility.yul\":17881:17887   */\n      dup3\n        /* \"#utility.yul\":17877:17892   */\n      add\n        /* \"#utility.yul\":17870:17898   */\n      mstore\n        /* \"#utility.yul\":17685:17905   */\n      pop\n      jump\t// out\n        /* \"#utility.yul\":17911:18277   */\n    tag_245:\n        /* \"#utility.yul\":18053:18056   */\n      0x00\n        /* \"#utility.yul\":18074:18141   */\n      tag_429\n        /* \"#utility.yul\":18138:18140   */\n      0x21\n        /* \"#utility.yul\":18133:18136   */\n      dup4\n        /* \"#utility.yul\":18074:18141   */\n      tag_234\n      jump\t// in\n    tag_429:\n        /* \"#utility.yul\":18067:18141   */\n      swap2\n      pop\n        /* \"#utility.yul\":18150:18243   */\n      tag_430\n        /* \"#utility.yul\":18239:18242   */\n      dup3\n        /* \"#utility.yul\":18150:18243   */\n      tag_244\n      jump\t// in\n    tag_430:\n        /* \"#utility.yul\":18268:18270   */\n      0x40\n        /* \"#utility.yul\":18263:18266   */\n      dup3\n        /* \"#utility.yul\":18259:18271   */\n      add\n        /* \"#utility.yul\":18252:18271   */\n      swap1\n      pop\n        /* \"#utility.yul\":17911:18277   */\n      swap2\n      swap1\n      pop\n      jump\t// out\n        /* \"#utility.yul\":18283:18702   */\n    tag_121:\n        /* \"#utility.yul\":18449:18453   */\n      0x00\n        /* \"#utility.yul\":18487:18489   */\n      0x20\n        /* \"#utility.yul\":18476:18485   */\n      dup3\n        /* \"#utility.yul\":18472:18490   */\n      add\n        /* \"#utility.yul\":18464:18490   */\n      swap1\n      pop\n        /* \"#utility.yul\":18536:18545   */\n      dup2\n        /* \"#utility.yul\":18530:18534   */\n      dup2\n        /* \"#utility.yul\":18526:18546   */\n      sub\n        /* \"#utility.yul\":18522:18523   */\n      0x00\n        /* \"#utility.yul\":18511:18520   */\n      dup4\n        /* \"#utility.yul\":18507:18524   */\n      add\n        /* \"#utility.yul\":18500:18547   */\n      mstore\n        /* \"#utility.yul\":18564:18695   */\n      tag_432\n        /* \"#utility.yul\":18690:18694   */\n      dup2\n        /* \"#utility.yul\":18564:18695   */\n      tag_245\n      jump\t// in\n    tag_432:\n        /* \"#utility.yul\":18556:18695   */\n      swap1\n      pop\n        /* \"#utility.yul\":18283:18702   */\n      swap2\n      swap1\n      pop\n      jump\t// out\n        /* \"#utility.yul\":18708:18888   */\n    tag_246:\n        /* \"#utility.yul\":18756:18833   */\n      0x4e487b7100000000000000000000000000000000000000000000000000000000\n        /* \"#utility.yul\":18753:18754   */\n      0x00\n        /* \"#utility.yul\":18746:18834   */\n      mstore\n        /* \"#utility.yul\":18853:18857   */\n      0x22\n        /* \"#utility.yul\":18850:18851   */\n      0x04\n        /* \"#utility.yul\":18843:18858   */\n      mstore\n        /* \"#utility.yul\":18877:18881   */\n      0x24\n        /* \"#utility.yul\":18874:18875   */\n      0x00\n        /* \"#utility.yul\":18867:18882   */\n      revert\n        /* \"#utility.yul\":18894:19214   */\n    tag_156:\n        /* \"#utility.yul\":18938:18944   */\n      0x00\n        /* \"#utility.yul\":18975:18976   */\n      0x02\n        /* \"#utility.yul\":18969:18973   */\n      dup3\n        /* \"#utility.yul\":18965:18977   */\n      div\n        /* \"#utility.yul\":18955:18977   */\n      swap1\n      pop\n        /* \"#utility.yul\":19022:19023   */\n      0x01\n        /* \"#utility.yul\":19016:19020   */\n      dup3\n        /* \"#utility.yul\":19012:19024   */\n      and\n        /* \"#utility.yul\":19043:19061   */\n      dup1\n        /* \"#utility.yul\":19033:19114   */\n      tag_435\n      jumpi\n        /* \"#utility.yul\":19099:19103   */\n      0x7f\n        /* \"#utility.yul\":19091:19097   */\n      dup3\n        /* \"#utility.yul\":19087:19104   */\n      and\n        /* \"#utility.yul\":19077:19104   */\n      swap2\n      pop\n        /* \"#utility.yul\":19033:19114   */\n    tag_435:\n        /* \"#utility.yul\":19161:19163   */\n      0x20\n        /* \"#utility.yul\":19153:19159   */\n      dup3\n        /* \"#utility.yul\":19150:19164   */\n      lt\n        /* \"#utility.yul\":19130:19148   */\n      dup2\n        /* \"#utility.yul\":19127:19165   */\n      sub\n        /* \"#utility.yul\":19124:19208   */\n      tag_436\n      jumpi\n        /* \"#utility.yul\":19180:19198   */\n      tag_437\n      tag_246\n      jump\t// in\n    tag_437:\n        /* \"#utility.yul\":19124:19208   */\n    tag_436:\n        /* \"#utility.yul\":18945:19214   */\n      pop\n        /* \"#utility.yul\":18894:19214   */\n      swap2\n      swap1\n      pop\n      jump\t// out\n        /* \"#utility.yul\":19220:19361   */\n    tag_247:\n        /* \"#utility.yul\":19269:19273   */\n      0x00\n        /* \"#utility.yul\":19292:19295   */\n      dup2\n        /* \"#utility.yul\":19284:19295   */\n      swap1\n      pop\n        /* \"#utility.yul\":19315:19318   */\n      dup2\n        /* \"#utility.yul\":19312:19313   */\n      0x00\n        /* \"#utility.yul\":19305:19319   */\n      mstore\n        /* \"#utility.yul\":19349:19353   */\n      0x20\n        /* \"#utility.yul\":19346:19347   */\n      0x00\n        /* \"#utility.yul\":19336:19354   */\n      keccak256\n        /* \"#utility.yul\":19328:19354   */\n      swap1\n      pop\n        /* \"#utility.yul\":19220:19361   */\n      swap2\n      swap1\n      pop\n      jump\t// out\n        /* \"#utility.yul\":19367:19460   */\n    tag_248:\n        /* \"#utility.yul\":19404:19410   */\n      0x00\n        /* \"#utility.yul\":19451:19453   */\n      0x20\n        /* \"#utility.yul\":19446:19448   */\n      0x1f\n        /* \"#utility.yul\":19439:19444   */\n      dup4\n        /* \"#utility.yul\":19435:19449   */\n      add\n        /* \"#utility.yul\":19431:19454   */\n      div\n        /* \"#utility.yul\":19421:19454   */\n      swap1\n      pop\n        /* \"#utility.yul\":19367:19460   */\n      swap2\n      swap1\n      pop\n      jump\t// out\n        /* \"#utility.yul\":19466:19573   */\n    tag_249:\n        /* \"#utility.yul\":19510:19518   */\n      0x00\n        /* \"#utility.yul\":19560:19565   */\n      dup3\n        /* \"#utility.yul\":19554:19558   */\n      dup3\n        /* \"#utility.yul\":19550:19566   */\n      shl\n        /* \"#utility.yul\":19529:19566   */\n      swap1\n      pop\n        /* \"#utility.yul\":19466:19573   */\n      swap3\n      swap2\n      pop\n      pop\n      jump\t// out\n        /* \"#utility.yul\":19579:19972   */\n    tag_250:\n        /* \"#utility.yul\":19648:19654   */\n      0x00\n        /* \"#utility.yul\":19698:19699   */\n      0x08\n        /* \"#utility.yul\":19686:19696   */\n      dup4\n        /* \"#utility.yul\":19682:19700   */\n      mul\n        /* \"#utility.yul\":19721:19818   */\n      tag_442\n        /* \"#utility.yul\":19751:19817   */\n      0xffffffffffffffffffffffffffffffffffffffffffffffffffffffffffffffff\n        /* \"#utility.yul\":19740:19749   */\n      dup3\n        /* \"#utility.yul\":19721:19818   */\n      tag_249\n      jump\t// in\n    tag_442:\n        /* \"#utility.yul\":19839:19878   */\n      tag_443\n        /* \"#utility.yul\":19869:19877   */\n      dup7\n        /* \"#utility.yul\":19858:19867   */\n      dup4\n        /* \"#utility.yul\":19839:19878   */\n      tag_249\n      jump\t// in\n    tag_443:\n        /* \"#utility.yul\":19827:19878   */\n      swap6\n      pop\n        /* \"#utility.yul\":19911:19915   */\n      dup1\n        /* \"#utility.yul\":19907:19916   */\n      not\n        /* \"#utility.yul\":19900:19905   */\n      dup5\n        /* \"#utility.yul\":19896:19917   */\n      and\n        /* \"#utility.yul\":19887:19917   */\n      swap4\n      pop\n        /* \"#utility.yul\":19960:19964   */\n      dup1\n        /* \"#utility.yul\":19950:19958   */\n      dup7\n        /* \"#utility.yul\":19946:19965   */\n      and\n        /* \"#utility.yul\":19939:19944   */\n      dup5\n        /* \"#utility.yul\":19936:19966   */\n      or\n        /* \"#utility.yul\":19926:19966   */\n      swap3\n      pop\n        /* \"#utility.yul\":19655:19972   */\n      pop\n      pop\n        /* \"#utility.yul\":19579:19972   */\n      swap4\n      swap3\n      pop\n      pop\n      pop\n      jump\t// out\n        /* \"#utility.yul\":19978:20038   */\n    tag_251:\n        /* \"#utility.yul\":20006:20009   */\n      0x00\n        /* \"#utility.yul\":20027:20032   */\n      dup2\n        /* \"#utility.yul\":20020:20032   */\n      swap1\n      pop\n        /* \"#utility.yul\":19978:20038   */\n      swap2\n      swap1\n      pop\n      jump\t// out\n        /* \"#utility.yul\":20044:20186   */\n    tag_252:\n        /* \"#utility.yul\":20094:20103   */\n      0x00\n        /* \"#utility.yul\":20127:20180   */\n      tag_446\n        /* \"#utility.yul\":20145:20179   */\n      tag_447\n        /* \"#utility.yul\":20154:20178   */\n      tag_448\n        /* \"#utility.yul\":20172:20177   */\n      dup5\n        /* \"#utility.yul\":20154:20178   */\n      tag_201\n      jump\t// in\n    tag_448:\n        /* \"#utility.yul\":20145:20179   */\n      tag_251\n      jump\t// in\n    tag_447:\n        /* \"#utility.yul\":20127:20180   */\n      tag_201\n      jump\t// in\n    tag_446:\n        /* \"#utility.yul\":20114:20180   */\n      swap1\n      pop\n        /* \"#utility.yul\":20044:20186   */\n      swap2\n      swap1\n      pop\n      jump\t// out\n        /* \"#utility.yul\":20192:20267   */\n    tag_253:\n        /* \"#utility.yul\":20235:20238   */\n      0x00\n        /* \"#utility.yul\":20256:20261   */\n      dup2\n        /* \"#utility.yul\":20249:20261   */\n      swap1\n      pop\n        /* \"#utility.yul\":20192:20267   */\n      swap2\n      swap1\n      pop\n      jump\t// out\n        /* \"#utility.yul\":20273:20542   */\n    tag_254:\n        /* \"#utility.yul\":20383:20422   */\n      tag_451\n        /* \"#utility.yul\":20414:20421   */\n      dup4\n        /* \"#utility.yul\":20383:20422   */\n      tag_252\n      jump\t// in\n    tag_451:\n        /* \"#utility.yul\":20444:20535   */\n      tag_452\n        /* \"#utility.yul\":20493:20534   */\n      tag_453\n        /* \"#utility.yul\":20517:20533   */\n      dup3\n        /* \"#utility.yul\":20493:20534   */\n      tag_253\n      jump\t// in\n    tag_453:\n        /* \"#utility.yul\":20485:20491   */\n      dup5\n        /* \"#utility.yul\":20478:20482   */\n      dup5\n        /* \"#utility.yul\":20472:20483   */\n      sload\n        /* \"#utility.yul\":20444:20535   */\n      tag_250\n      jump\t// in\n    tag_452:\n        /* \"#utility.yul\":20438:20442   */\n      dup3\n        /* \"#utility.yul\":20431:20536   */\n      sstore\n        /* \"#utility.yul\":20349:20542   */\n      pop\n        /* \"#utility.yul\":20273:20542   */\n      pop\n      pop\n      pop\n      jump\t// out\n        /* \"#utility.yul\":20548:20621   */\n    tag_255:\n        /* \"#utility.yul\":20593:20596   */\n      0x00\n        /* \"#utility.yul\":20548:20621   */\n      swap1\n      jump\t// out\n        /* \"#utility.yul\":20627:20816   */\n    tag_256:\n        /* \"#utility.yul\":20704:20736   */\n      tag_456\n      tag_255\n      jump\t// in\n    tag_456:\n        /* \"#utility.yul\":20745:20810   */\n      tag_457\n        /* \"#utility.yul\":20803:20809   */\n      dup2\n        /* \"#utility.yul\":20795:20801   */\n      dup5\n        /* \"#utility.yul\":20789:20793   */\n      dup5\n        /* \"#utility.yul\":20745:20810   */\n      tag_254\n      jump\t// in\n    tag_457:\n        /* \"#utility.yul\":20680:20816   */\n      pop\n        /* \"#utility.yul\":20627:20816   */\n      pop\n      pop\n      jump\t// out\n        /* \"#utility.yul\":20822:21008   */\n    tag_257:\n        /* \"#utility.yul\":20882:21002   */\n    tag_459:\n        /* \"#utility.yul\":20899:20902   */\n      dup2\n        /* \"#utility.yul\":20892:20897   */\n      dup2\n        /* \"#utility.yul\":20889:20903   */\n      lt\n        /* \"#utility.yul\":20882:21002   */\n      iszero\n      tag_461\n      jumpi\n        /* \"#utility.yul\":20953:20992   */\n      tag_462\n        /* \"#utility.yul\":20990:20991   */\n      0x00\n        /* \"#utility.yul\":20983:20988   */\n      dup3\n        /* \"#utility.yul\":20953:20992   */\n      tag_256\n      jump\t// in\n    tag_462:\n        /* \"#utility.yul\":20926:20927   */\n      0x01\n        /* \"#utility.yul\":20919:20924   */\n      dup2\n        /* \"#utility.yul\":20915:20928   */\n      add\n        /* \"#utility.yul\":20906:20928   */\n      swap1\n      pop\n        /* \"#utility.yul\":20882:21002   */\n      jump(tag_459)\n    tag_461:\n        /* \"#utility.yul\":20822:21008   */\n      pop\n      pop\n      jump\t// out\n        /* \"#utility.yul\":21014:21557   */\n    tag_258:\n        /* \"#utility.yul\":21115:21117   */\n      0x1f\n        /* \"#utility.yul\":21110:21113   */\n      dup3\n        /* \"#utility.yul\":21107:21118   */\n      gt\n        /* \"#utility.yul\":21104:21550   */\n      iszero\n      tag_464\n      jumpi\n        /* \"#utility.yul\":21149:21187   */\n      tag_465\n        /* \"#utility.yul\":21181:21186   */\n      dup2\n        /* \"#utility.yul\":21149:21187   */\n      tag_247\n      jump\t// in\n    tag_465:\n        /* \"#utility.yul\":21233:21262   */\n      tag_466\n        /* \"#utility.yul\":21251:21261   */\n      dup5\n        /* \"#utility.yul\":21233:21262   */\n      tag_248\n      jump\t// in\n    tag_466:\n        /* \"#utility.yul\":21223:21231   */\n      dup2\n        /* \"#utility.yul\":21219:21263   */\n      add\n        /* \"#utility.yul\":21416:21418   */\n      0x20\n        /* \"#utility.yul\":21404:21414   */\n      dup6\n        /* \"#utility.yul\":21401:21419   */\n      lt\n        /* \"#utility.yul\":21398:21447   */\n      iszero\n      tag_467\n      jumpi\n        /* \"#utility.yul\":21437:21445   */\n      dup2\n        /* \"#utility.yul\":21422:21445   */\n      swap1\n      pop\n        /* \"#utility.yul\":21398:21447   */\n    tag_467:\n        /* \"#utility.yul\":21460:21540   */\n      tag_468\n        /* \"#utility.yul\":21516:21538   */\n      tag_469\n        /* \"#utility.yul\":21534:21537   */\n      dup6\n        /* \"#utility.yul\":21516:21538   */\n      tag_248\n      jump\t// in\n    tag_469:\n        /* \"#utility.yul\":21506:21514   */\n      dup4\n        /* \"#utility.yul\":21502:21539   */\n      add\n        /* \"#utility.yul\":21489:21500   */\n      dup3\n        /* \"#utility.yul\":21460:21540   */\n      tag_257\n      jump\t// in\n    tag_468:\n        /* \"#utility.yul\":21119:21550   */\n      pop\n      pop\n        /* \"#utility.yul\":21104:21550   */\n    tag_464:\n        /* \"#utility.yul\":21014:21557   */\n      pop\n      pop\n      pop\n      jump\t// out\n        /* \"#utility.yul\":21563:21680   */\n    tag_259:\n        /* \"#utility.yul\":21617:21625   */\n      0x00\n        /* \"#utility.yul\":21667:21672   */\n      dup3\n        /* \"#utility.yul\":21661:21665   */\n      dup3\n        /* \"#utility.yul\":21657:21673   */\n      shr\n        /* \"#utility.yul\":21636:21673   */\n      swap1\n      pop\n        /* \"#utility.yul\":21563:21680   */\n      swap3\n      swap2\n      pop\n      pop\n      jump\t// out\n        /* \"#utility.yul\":21686:21855   */\n    tag_260:\n        /* \"#utility.yul\":21730:21736   */\n      0x00\n        /* \"#utility.yul\":21763:21814   */\n      tag_472\n        /* \"#utility.yul\":21811:21812   */\n      0x00\n        /* \"#utility.yul\":21807:21813   */\n      not\n        /* \"#utility.yul\":21799:21804   */\n      dup5\n        /* \"#utility.yul\":21796:21797   */\n      0x08\n        /* \"#utility.yul\":21792:21805   */\n      mul\n        /* \"#utility.yul\":21763:21814   */\n      tag_259\n      jump\t// in\n    tag_472:\n        /* \"#utility.yul\":21759:21815   */\n      not\n        /* \"#utility.yul\":21844:21848   */\n      dup1\n        /* \"#utility.yul\":21838:21842   */\n      dup4\n        /* \"#utility.yul\":21834:21849   */\n      and\n        /* \"#utility.yul\":21824:21849   */\n      swap2\n      pop\n        /* \"#utility.yul\":21737:21855   */\n      pop\n        /* \"#utility.yul\":21686:21855   */\n      swap3\n      swap2\n      pop\n      pop\n      jump\t// out\n        /* \"#utility.yul\":21860:22155   */\n    tag_261:\n        /* \"#utility.yul\":21936:21940   */\n      0x00\n        /* \"#utility.yul\":22082:22111   */\n      tag_474\n        /* \"#utility.yul\":22107:22110   */\n      dup4\n        /* \"#utility.yul\":22101:22105   */\n      dup4\n        /* \"#utility.yul\":22082:22111   */\n      tag_260\n      jump\t// in\n    tag_474:\n        /* \"#utility.yul\":22074:22111   */\n      swap2\n      pop\n        /* \"#utility.yul\":22144:22147   */\n      dup3\n        /* \"#utility.yul\":22141:22142   */\n      0x02\n        /* \"#utility.yul\":22137:22148   */\n      mul\n        /* \"#utility.yul\":22131:22135   */\n      dup3\n        /* \"#utility.yul\":22128:22149   */\n      or\n        /* \"#utility.yul\":22120:22149   */\n      swap1\n      pop\n        /* \"#utility.yul\":21860:22155   */\n      swap3\n      swap2\n      pop\n      pop\n      jump\t// out\n        /* \"#utility.yul\":22160:23555   */\n    tag_130:\n        /* \"#utility.yul\":22277:22314   */\n      tag_476\n        /* \"#utility.yul\":22310:22313   */\n      dup3\n        /* \"#utility.yul\":22277:22314   */\n      tag_233\n      jump\t// in\n    tag_476:\n        /* \"#utility.yul\":22379:22397   */\n      0xffffffffffffffff\n        /* \"#utility.yul\":22371:22377   */\n      dup2\n        /* \"#utility.yul\":22368:22398   */\n      gt\n        /* \"#utility.yul\":22365:22421   */\n      iszero\n      tag_477\n      jumpi\n        /* \"#utility.yul\":22401:22419   */\n      tag_478\n      tag_108\n      jump\t// in\n    tag_478:\n        /* \"#utility.yul\":22365:22421   */\n    tag_477:\n        /* \"#utility.yul\":22445:22483   */\n      tag_479\n        /* \"#utility.yul\":22477:22481   */\n      dup3\n        /* \"#utility.yul\":22471:22482   */\n      sload\n        /* \"#utility.yul\":22445:22483   */\n      tag_156\n      jump\t// in\n    tag_479:\n        /* \"#utility.yul\":22530:22597   */\n      tag_480\n        /* \"#utility.yul\":22590:22596   */\n      dup3\n        /* \"#utility.yul\":22582:22588   */\n      dup3\n        /* \"#utility.yul\":22576:22580   */\n      dup6\n        /* \"#utility.yul\":22530:22597   */\n      tag_258\n      jump\t// in\n    tag_480:\n        /* \"#utility.yul\":22624:22625   */\n      0x00\n        /* \"#utility.yul\":22648:22652   */\n      0x20\n        /* \"#utility.yul\":22635:22652   */\n      swap1\n      pop\n        /* \"#utility.yul\":22680:22682   */\n      0x1f\n        /* \"#utility.yul\":22672:22678   */\n      dup4\n        /* \"#utility.yul\":22669:22683   */\n      gt\n        /* \"#utility.yul\":22697:22698   */\n      0x01\n        /* \"#utility.yul\":22692:23310   */\n      dup2\n      eq\n      tag_482\n      jumpi\n        /* \"#utility.yul\":23354:23355   */\n      0x00\n        /* \"#utility.yul\":23371:23377   */\n      dup5\n        /* \"#utility.yul\":23368:23445   */\n      iszero\n      tag_483\n      jumpi\n        /* \"#utility.yul\":23420:23429   */\n      dup3\n        /* \"#utility.yul\":23415:23418   */\n      dup8\n        /* \"#utility.yul\":23411:23430   */\n      add\n        /* \"#utility.yul\":23405:23431   */\n      mload\n        /* \"#utility.yul\":23396:23431   */\n      swap1\n      pop\n        /* \"#utility.yul\":23368:23445   */\n    tag_483:\n        /* \"#utility.yul\":23471:23538   */\n      tag_484\n        /* \"#utility.yul\":23531:23537   */\n      dup6\n        /* \"#utility.yul\":23524:23529   */\n      dup3\n        /* \"#utility.yul\":23471:23538   */\n      tag_261\n      jump\t// in\n    tag_484:\n        /* \"#utility.yul\":23465:23469   */\n      dup7\n        /* \"#utility.yul\":23458:23539   */\n      sstore\n        /* \"#utility.yul\":23327:23549   */\n      pop\n        /* \"#utility.yul\":22662:23549   */\n      jump(tag_481)\n        /* \"#utility.yul\":22692:23310   */\n    tag_482:\n        /* \"#utility.yul\":22744:22748   */\n      0x1f\n        /* \"#utility.yul\":22740:22749   */\n      not\n        /* \"#utility.yul\":22732:22738   */\n      dup5\n        /* \"#utility.yul\":22728:22750   */\n      and\n        /* \"#utility.yul\":22778:22815   */\n      tag_485\n        /* \"#utility.yul\":22810:22814   */\n      dup7\n        /* \"#utility.yul\":22778:22815   */\n      tag_247\n      jump\t// in\n    tag_485:\n        /* \"#utility.yul\":22837:22838   */\n      0x00\n        /* \"#utility.yul\":22851:23059   */\n    tag_486:\n        /* \"#utility.yul\":22865:22872   */\n      dup3\n        /* \"#utility.yul\":22862:22863   */\n      dup2\n        /* \"#utility.yul\":22859:22873   */\n      lt\n        /* \"#utility.yul\":22851:23059   */\n      iszero\n      tag_488\n      jumpi\n        /* \"#utility.yul\":22944:22953   */\n      dup5\n        /* \"#utility.yul\":22939:22942   */\n      dup10\n        /* \"#utility.yul\":22935:22954   */\n      add\n        /* \"#utility.yul\":22929:22955   */\n      mload\n        /* \"#utility.yul\":22921:22927   */\n      dup3\n        /* \"#utility.yul\":22914:22956   */\n      sstore\n        /* \"#utility.yul\":22995:22996   */\n      0x01\n        /* \"#utility.yul\":22987:22993   */\n      dup3\n        /* \"#utility.yul\":22983:22997   */\n      add\n        /* \"#utility.yul\":22973:22997   */\n      swap2\n      pop\n        /* \"#utility.yul\":23042:23044   */\n      0x20\n        /* \"#utility.yul\":23031:23040   */\n      dup6\n        /* \"#utility.yul\":23027:23045   */\n      add\n        /* \"#utility.yul\":23014:23045   */\n      swap5\n      pop\n        /* \"#utility.yul\":22888:22892   */\n      0x20\n        /* \"#utility.yul\":22885:22886   */\n      dup2\n        /* \"#utility.yul\":22881:22893   */\n      add\n        /* \"#utility.yul\":22876:22893   */\n      swap1\n      pop\n        /* \"#utility.yul\":22851:23059   */\n      jump(tag_486)\n    tag_488:\n        /* \"#utility.yul\":23087:23093   */\n      dup7\n        /* \"#utility.yul\":23078:23085   */\n      dup4\n        /* \"#utility.yul\":23075:23094   */\n      lt\n        /* \"#utility.yul\":23072:23251   */\n      iszero\n      tag_489\n      jumpi\n        /* \"#utility.yul\":23145:23154   */\n      dup5\n        /* \"#utility.yul\":23140:23143   */\n      dup10\n        /* \"#utility.yul\":23136:23155   */\n      add\n        /* \"#utility.yul\":23130:23156   */\n      mload\n        /* \"#utility.yul\":23188:23236   */\n      tag_490\n        /* \"#utility.yul\":23230:23234   */\n      0x1f\n        /* \"#utility.yul\":23222:23228   */\n      dup10\n        /* \"#utility.yul\":23218:23235   */\n      and\n        /* \"#utility.yul\":23207:23216   */\n      dup3\n        /* \"#utility.yul\":23188:23236   */\n      tag_260\n      jump\t// in\n    tag_490:\n        /* \"#utility.yul\":23180:23186   */\n      dup4\n        /* \"#utility.yul\":23173:23237   */\n      sstore\n        /* \"#utility.yul\":23095:23251   */\n      pop\n        /* \"#utility.yul\":23072:23251   */\n    tag_489:\n        /* \"#utility.yul\":23297:23298   */\n      0x01\n        /* \"#utility.yul\":23293:23294   */\n      0x02\n        /* \"#utility.yul\":23285:23291   */\n      dup9\n        /* \"#utility.yul\":23281:23295   */\n      mul\n        /* \"#utility.yul\":23277:23299   */\n      add\n        /* \"#utility.yul\":23271:23275   */\n      dup9\n        /* \"#utility.yul\":23264:23300   */\n      sstore\n        /* \"#utility.yul\":22699:23310   */\n      pop\n      pop\n      pop\n        /* \"#utility.yul\":22662:23549   */\n    tag_481:\n      pop\n        /* \"#utility.yul\":22252:23555   */\n      pop\n      pop\n      pop\n        /* \"#utility.yul\":22160:23555   */\n      pop\n      pop\n      jump\t// out\n        /* \"#utility.yul\":23561:23783   */\n    tag_262:\n        /* \"#utility.yul\":23701:23735   */\n      0x4f6e6c792061646f707465722063616e2063616c6c20746869732066756e6374\n        /* \"#utility.yul\":23697:23698   */\n      0x00\n        /* \"#utility.yul\":23689:23695   */\n      dup3\n        /* \"#utility.yul\":23685:23699   */\n      add\n        /* \"#utility.yul\":23678:23736   */\n      mstore\n        /* \"#utility.yul\":23770:23775   */\n      0x696f6e0000000000000000000000000000000000000000000000000000000000\n        /* \"#utility.yul\":23765:23767   */\n      0x20\n        /* \"#utility.yul\":23757:23763   */\n      dup3\n        /* \"#utility.yul\":23753:23768   */\n      add\n        /* \"#utility.yul\":23746:23776   */\n      mstore\n        /* \"#utility.yul\":23561:23783   */\n      pop\n      jump\t// out\n        /* \"#utility.yul\":23789:24155   */\n    tag_263:\n        /* \"#utility.yul\":23931:23934   */\n      0x00\n        /* \"#utility.yul\":23952:24019   */\n      tag_493\n        /* \"#utility.yul\":24016:24018   */\n      0x23\n        /* \"#utility.yul\":24011:24014   */\n      dup4\n        /* \"#utility.yul\":23952:24019   */\n      tag_234\n      jump\t// in\n    tag_493:\n        /* \"#utility.yul\":23945:24019   */\n      swap2\n      pop\n        /* \"#utility.yul\":24028:24121   */\n      tag_494\n        /* \"#utility.yul\":24117:24120   */\n      dup3\n        /* \"#utility.yul\":24028:24121   */\n      tag_262\n      jump\t// in\n    tag_494:\n        /* \"#utility.yul\":24146:24148   */\n      0x40\n        /* \"#utility.yul\":24141:24144   */\n      dup3\n        /* \"#utility.yul\":24137:24149   */\n      add\n        /* \"#utility.yul\":24130:24149   */\n      swap1\n      pop\n        /* \"#utility.yul\":23789:24155   */\n      swap2\n      swap1\n      pop\n      jump\t// out\n        /* \"#utility.yul\":24161:24580   */\n    tag_135:\n        /* \"#utility.yul\":24327:24331   */\n      0x00\n        /* \"#utility.yul\":24365:24367   */\n      0x20\n        /* \"#utility.yul\":24354:24363   */\n      dup3\n        /* \"#utility.yul\":24350:24368   */\n      add\n        /* \"#utility.yul\":24342:24368   */\n      swap1\n      pop\n        /* \"#utility.yul\":24414:24423   */\n      dup2\n        /* \"#utility.yul\":24408:24412   */\n      dup2\n        /* \"#utility.yul\":24404:24424   */\n      sub\n        /* \"#utility.yul\":24400:24401   */\n      0x00\n        /* \"#utility.yul\":24389:24398   */\n      dup4\n        /* \"#utility.yul\":24385:24402   */\n      add\n        /* \"#utility.yul\":24378:24425   */\n      mstore\n        /* \"#utility.yul\":24442:24573   */\n      tag_496\n        /* \"#utility.yul\":24568:24572   */\n      dup2\n        /* \"#utility.yul\":24442:24573   */\n      tag_263\n      jump\t// in\n    tag_496:\n        /* \"#utility.yul\":24434:24573   */\n      swap1\n      pop\n        /* \"#utility.yul\":24161:24580   */\n      swap2\n      swap1\n      pop\n      jump\t// out\n        /* \"#utility.yul\":24586:24754   */\n    tag_264:\n        /* \"#utility.yul\":24726:24746   */\n      0x506574206973206e6f742061646f707465640000000000000000000000000000\n        /* \"#utility.yul\":24722:24723   */\n      0x00\n        /* \"#utility.yul\":24714:24720   */\n      dup3\n        /* \"#utility.yul\":24710:24724   */\n      add\n        /* \"#utility.yul\":24703:24747   */\n      mstore\n        /* \"#utility.yul\":24586:24754   */\n      pop\n      jump\t// out\n        /* \"#utility.yul\":24760:25126   */\n    tag_265:\n        /* \"#utility.yul\":24902:24905   */\n      0x00\n        /* \"#utility.yul\":24923:24990   */\n      tag_499\n        /* \"#utility.yul\":24987:24989   */\n      0x12\n        /* \"#utility.yul\":24982:24985   */\n      dup4\n        /* \"#utility.yul\":24923:24990   */\n      tag_234\n      jump\t// in\n    tag_499:\n        /* \"#utility.yul\":24916:24990   */\n      swap2\n      pop\n        /* \"#utility.yul\":24999:25092   */\n      tag_500\n        /* \"#utility.yul\":25088:25091   */\n      dup3\n        /* \"#utility.yul\":24999:25092   */\n      tag_264\n      jump\t// in\n    tag_500:\n        /* \"#utility.yul\":25117:25119   */\n      0x20\n        /* \"#utility.yul\":25112:25115   */\n      dup3\n        /* \"#utility.yul\":25108:25120   */\n      add\n        /* \"#utility.yul\":25101:25120   */\n      swap1\n      pop\n        /* \"#utility.yul\":24760:25126   */\n      swap2\n      swap1\n      pop\n      jump\t// out\n        /* \"#utility.yul\":25132:25551   */\n    tag_142:\n        /* \"#utility.yul\":25298:25302   */\n      0x00\n        /* \"#utility.yul\":25336:25338   */\n      0x20\n        /* \"#utility.yul\":25325:25334   */\n      dup3\n        /* \"#utility.yul\":25321:25339   */\n      add\n        /* \"#utility.yul\":25313:25339   */\n      swap1\n      pop\n        /* \"#utility.yul\":25385:25394   */\n      dup2\n        /* \"#utility.yul\":25379:25383   */\n      dup2\n        /* \"#utility.yul\":25375:25395   */\n      sub\n        /* \"#utility.yul\":25371:25372   */\n      0x00\n        /* \"#utility.yul\":25360:25369   */\n      dup4\n        /* \"#utility.yul\":25356:25373   */\n      add\n        /* \"#utility.yul\":25349:25396   */\n      mstore\n        /* \"#utility.yul\":25413:25544   */\n      tag_502\n        /* \"#utility.yul\":25539:25543   */\n      dup2\n        /* \"#utility.yul\":25413:25544   */\n      tag_265\n      jump\t// in\n    tag_502:\n        /* \"#utility.yul\":25405:25544   */\n      swap1\n      pop\n        /* \"#utility.yul\":25132:25551   */\n      swap2\n      swap1\n      pop\n      jump\t// out\n        /* \"#utility.yul\":25557:25751   */\n    tag_144:\n        /* \"#utility.yul\":25597:25601   */\n      0x00\n        /* \"#utility.yul\":25617:25637   */\n      tag_504\n        /* \"#utility.yul\":25635:25636   */\n      dup3\n        /* \"#utility.yul\":25617:25637   */\n      tag_201\n      jump\t// in\n    tag_504:\n        /* \"#utility.yul\":25612:25637   */\n      swap2\n      pop\n        /* \"#utility.yul\":25651:25671   */\n      tag_505\n        /* \"#utility.yul\":25669:25670   */\n      dup4\n        /* \"#utility.yul\":25651:25671   */\n      tag_201\n      jump\t// in\n    tag_505:\n        /* \"#utility.yul\":25646:25671   */\n      swap3\n      pop\n        /* \"#utility.yul\":25695:25696   */\n      dup3\n        /* \"#utility.yul\":25692:25693   */\n      dup3\n        /* \"#utility.yul\":25688:25697   */\n      sub\n        /* \"#utility.yul\":25680:25697   */\n      swap1\n      pop\n        /* \"#utility.yul\":25719:25720   */\n      dup2\n        /* \"#utility.yul\":25713:25717   */\n      dup2\n        /* \"#utility.yul\":25710:25721   */\n      gt\n        /* \"#utility.yul\":25707:25744   */\n      iszero\n      tag_506\n      jumpi\n        /* \"#utility.yul\":25724:25742   */\n      tag_507\n      tag_243\n      jump\t// in\n    tag_507:\n        /* \"#utility.yul\":25707:25744   */\n    tag_506:\n        /* \"#utility.yul\":25557:25751   */\n      swap3\n      swap2\n      pop\n      pop\n      jump\t// out\n        /* \"#utility.yul\":25757:26421   */\n    tag_148:\n        /* \"#utility.yul\":25962:25966   */\n      0x00\n        /* \"#utility.yul\":26000:26003   */\n      0xa0\n        /* \"#utility.yul\":25989:25998   */\n      dup3\n        /* \"#utility.yul\":25985:26004   */\n      add\n        /* \"#utility.yul\":25977:26004   */\n      swap1\n      pop\n        /* \"#utility.yul\":26014:26085   */\n      tag_509\n        /* \"#utility.yul\":26082:26083   */\n      0x00\n        /* \"#utility.yul\":26071:26080   */\n      dup4\n        /* \"#utility.yul\":26067:26084   */\n      add\n        /* \"#utility.yul\":26058:26064   */\n      dup9\n        /* \"#utility.yul\":26014:26085   */\n      tag_208\n      jump\t// in\n    tag_509:\n        /* \"#utility.yul\":26095:26167   */\n      tag_510\n        /* \"#utility.yul\":26163:26165   */\n      0x20\n        /* \"#utility.yul\":26152:26161   */\n      dup4\n        /* \"#utility.yul\":26148:26166   */\n      add\n        /* \"#utility.yul\":26139:26145   */\n      dup8\n        /* \"#utility.yul\":26095:26167   */\n      tag_223\n      jump\t// in\n    tag_510:\n        /* \"#utility.yul\":26177:26249   */\n      tag_511\n        /* \"#utility.yul\":26245:26247   */\n      0x40\n        /* \"#utility.yul\":26234:26243   */\n      dup4\n        /* \"#utility.yul\":26230:26248   */\n      add\n        /* \"#utility.yul\":26221:26227   */\n      dup7\n        /* \"#utility.yul\":26177:26249   */\n      tag_208\n      jump\t// in\n    tag_511:\n        /* \"#utility.yul\":26259:26331   */\n      tag_512\n        /* \"#utility.yul\":26327:26329   */\n      0x60\n        /* \"#utility.yul\":26316:26325   */\n      dup4\n        /* \"#utility.yul\":26312:26330   */\n      add\n        /* \"#utility.yul\":26303:26309   */\n      dup6\n        /* \"#utility.yul\":26259:26331   */\n      tag_208\n      jump\t// in\n    tag_512:\n        /* \"#utility.yul\":26341:26414   */\n      tag_513\n        /* \"#utility.yul\":26409:26412   */\n      0x80\n        /* \"#utility.yul\":26398:26407   */\n      dup4\n        /* \"#utility.yul\":26394:26413   */\n      add\n        /* \"#utility.yul\":26385:26391   */\n      dup5\n        /* \"#utility.yul\":26341:26414   */\n      tag_208\n      jump\t// in\n    tag_513:\n        /* \"#utility.yul\":25757:26421   */\n      swap7\n      swap6\n      pop\n      pop\n      pop\n      pop\n      pop\n      pop\n      jump\t// out\n        /* \"#utility.yul\":26427:26605   */\n    tag_266:\n        /* \"#utility.yul\":26567:26597   */\n      0x43616e6e6f742064656c65746520616e2061646f707465642070657400000000\n        /* \"#utility.yul\":26563:26564   */\n      0x00\n        /* \"#utility.yul\":26555:26561   */\n      dup3\n        /* \"#utility.yul\":26551:26565   */\n      add\n        /* \"#utility.yul\":26544:26598   */\n      mstore\n        /* \"#utility.yul\":26427:26605   */\n      pop\n      jump\t// out\n        /* \"#utility.yul\":26611:26977   */\n    tag_267:\n        /* \"#utility.yul\":26753:26756   */\n      0x00\n        /* \"#utility.yul\":26774:26841   */\n      tag_516\n        /* \"#utility.yul\":26838:26840   */\n      0x1c\n        /* \"#utility.yul\":26833:26836   */\n      dup4\n        /* \"#utility.yul\":26774:26841   */\n      tag_234\n      jump\t// in\n    tag_516:\n        /* \"#utility.yul\":26767:26841   */\n      swap2\n      pop\n        /* \"#utility.yul\":26850:26943   */\n      tag_517\n        /* \"#utility.yul\":26939:26942   */\n      dup3\n        /* \"#utility.yul\":26850:26943   */\n      tag_266\n      jump\t// in\n    tag_517:\n        /* \"#utility.yul\":26968:26970   */\n      0x20\n        /* \"#utility.yul\":26963:26966   */\n      dup3\n        /* \"#utility.yul\":26959:26971   */\n      add\n        /* \"#utility.yul\":26952:26971   */\n      swap1\n      pop\n        /* \"#utility.yul\":26611:26977   */\n      swap2\n      swap1\n      pop\n      jump\t// out\n        /* \"#utility.yul\":26983:27402   */\n    tag_172:\n        /* \"#utility.yul\":27149:27153   */\n      0x00\n        /* \"#utility.yul\":27187:27189   */\n      0x20\n        /* \"#utility.yul\":27176:27185   */\n      dup3\n        /* \"#utility.yul\":27172:27190   */\n      add\n        /* \"#utility.yul\":27164:27190   */\n      swap1\n      pop\n        /* \"#utility.yul\":27236:27245   */\n      dup2\n        /* \"#utility.yul\":27230:27234   */\n      dup2\n        /* \"#utility.yul\":27226:27246   */\n      sub\n        /* \"#utility.yul\":27222:27223   */\n      0x00\n        /* \"#utility.yul\":27211:27220   */\n      dup4\n        /* \"#utility.yul\":27207:27224   */\n      add\n        /* \"#utility.yul\":27200:27247   */\n      mstore\n        /* \"#utility.yul\":27264:27395   */\n      tag_519\n        /* \"#utility.yul\":27390:27394   */\n      dup2\n        /* \"#utility.yul\":27264:27395   */\n      tag_267\n      jump\t// in\n    tag_519:\n        /* \"#utility.yul\":27256:27395   */\n      swap1\n      pop\n        /* \"#utility.yul\":26983:27402   */\n      swap2\n      swap1\n      pop\n      jump\t// out\n        /* \"#utility.yul\":27408:27579   */\n    tag_176:\n        /* \"#utility.yul\":27447:27450   */\n      0x00\n        /* \"#utility.yul\":27470:27494   */\n      tag_521\n        /* \"#utility.yul\":27488:27493   */\n      dup3\n        /* \"#utility.yul\":27470:27494   */\n      tag_201\n      jump\t// in\n    tag_521:\n        /* \"#utility.yul\":27461:27494   */\n      swap2\n      pop\n        /* \"#utility.yul\":27516:27520   */\n      0x00\n        /* \"#utility.yul\":27509:27514   */\n      dup3\n        /* \"#utility.yul\":27506:27521   */\n      sub\n        /* \"#utility.yul\":27503:27544   */\n      tag_522\n      jumpi\n        /* \"#utility.yul\":27524:27542   */\n      tag_523\n      tag_243\n      jump\t// in\n    tag_523:\n        /* \"#utility.yul\":27503:27544   */\n    tag_522:\n        /* \"#utility.yul\":27571:27572   */\n      0x01\n        /* \"#utility.yul\":27564:27569   */\n      dup3\n        /* \"#utility.yul\":27560:27573   */\n      sub\n        /* \"#utility.yul\":27553:27573   */\n      swap1\n      pop\n        /* \"#utility.yul\":27408:27579   */\n      swap2\n      swap1\n      pop\n      jump\t// out\n        /* \"#utility.yul\":27585:27995   */\n    tag_190:\n        /* \"#utility.yul\":27625:27632   */\n      0x00\n        /* \"#utility.yul\":27648:27668   */\n      tag_525\n        /* \"#utility.yul\":27666:27667   */\n      dup3\n        /* \"#utility.yul\":27648:27668   */\n      tag_201\n      jump\t// in\n    tag_525:\n        /* \"#utility.yul\":27643:27668   */\n      swap2\n      pop\n        /* \"#utility.yul\":27682:27702   */\n      tag_526\n        /* \"#utility.yul\":27700:27701   */\n      dup4\n        /* \"#utility.yul\":27682:27702   */\n      tag_201\n      jump\t// in\n    tag_526:\n        /* \"#utility.yul\":27677:27702   */\n      swap3\n      pop\n        /* \"#utility.yul\":27737:27738   */\n      dup3\n        /* \"#utility.yul\":27734:27735   */\n      dup3\n        /* \"#utility.yul\":27730:27739   */\n      mul\n        /* \"#utility.yul\":27759:27789   */\n      tag_527\n        /* \"#utility.yul\":27777:27788   */\n      dup2\n        /* \"#utility.yul\":27759:27789   */\n      tag_201\n      jump\t// in\n    tag_527:\n        /* \"#utility.yul\":27748:27789   */\n      swap2\n      pop\n        /* \"#utility.yul\":27938:27939   */\n      dup3\n        /* \"#utility.yul\":27929:27936   */\n      dup3\n        /* \"#utility.yul\":27925:27940   */\n      div\n        /* \"#utility.yul\":27922:27923   */\n      dup5\n        /* \"#utility.yul\":27919:27941   */\n      eq\n        /* \"#utility.yul\":27899:27900   */\n      dup4\n        /* \"#utility.yul\":27892:27901   */\n      iszero\n        /* \"#utility.yul\":27872:27955   */\n      or\n        /* \"#utility.yul\":27849:27988   */\n      tag_528\n      jumpi\n        /* \"#utility.yul\":27968:27986   */\n      tag_529\n      tag_243\n      jump\t// in\n    tag_529:\n        /* \"#utility.yul\":27849:27988   */\n    tag_528:\n        /* \"#utility.yul\":27633:27995   */\n      pop\n        /* \"#utility.yul\":27585:27995   */\n      swap3\n      swap2\n      pop\n      pop\n      jump\t// out\n\n    auxdata: 0xa2646970667358221220fd51c190f823df992dfb6a3bcaadf0c42cd9f3ef7b28eceebaacf67a3cc3ad7a64736f6c634300081a0033\n}\n",
				"bytecode": {
					"linkReferences": {},
					"object": "6080604052348015600e575f80fd5b50335f806101000a81548173ffffffffffffffffffffffffffffffffffffffff021916908373ffffffffffffffffffffffffffffffffffffffff160217905550662386f26fc10000600481905550612069806100695f395ff3fe6080604052600436106100c1575f3560e01c80638da5cb5b1161007e578063bdb92e8e11610058578063bdb92e8e14610242578063cfb869bf1461026a578063d749e429146102aa578063d89fd4b4146102d2576100c1565b80638da5cb5b146101c6578063987eae8f146101f0578063ae37a1b51461021a576100c1565b806319b81577146100c557806339e776ae146100e15780633fb53d79146101205780634f154c541461014a5780635476fc70146101745780638a150da71461019c575b5f80fd5b6100df60048036038101906100da91906112b9565b610312565b005b3480156100ec575f80fd5b506101076004803603810190610102919061133e565b6104e7565b604051610117949392919061138b565b60405180910390f35b34801561012b575f80fd5b5061013461052d565b60405161014191906114d8565b60405180910390f35b348015610155575f80fd5b5061015e6105eb565b60405161016b91906115a0565b60405180910390f35b34801561017f575f80fd5b5061019a600480360381019061019591906112b9565b61077e565b005b3480156101a7575f80fd5b506101b061084c565b6040516101bd91906115c0565b60405180910390f35b3480156101d1575f80fd5b506101da610852565b6040516101e791906115e8565b60405180910390f35b3480156101fb575f80fd5b50610204610875565b60405161021191906115c0565b60405180910390f35b348015610225575f80fd5b50610240600480360381019061023b919061173d565b61087b565b005b34801561024d575f80fd5b50610268600480360381019061026391906112b9565b6109fc565b005b348015610275575f80fd5b50610290600480360381019061028b91906112b9565b610d86565b6040516102a1959493929190611825565b60405180910390f35b3480156102b5575f80fd5b506102d060048036038101906102cb91906112b9565b610ee3565b005b3480156102dd575f80fd5b506102f860048036038101906102f391906112b9565b611090565b604051610309959493929190611825565b60405180910390f35b806003548110610357576040517f08c379a000000000000000000000000000000000000000000000000000000000815260040161034e906118ce565b60405180910390fd5b5f73ffffffffffffffffffffffffffffffffffffffff1660015f8481526020019081526020015f206003015f9054906101000a900473ffffffffffffffffffffffffffffffffffffffff1673ffffffffffffffffffffffffffffffffffffffff16146103f8576040517f08c379a00000000000000000000000000000000000000000000000000000000081526004016103ef90611936565b60405180910390fd5b60045434101561043d576040517f08c379a00000000000000000000000000000000000000000000000000000000081526004016104349061199e565b60405180910390fd5b3360015f8481526020019081526020015f206003015f6101000a81548173ffffffffffffffffffffffffffffffffffffffff021916908373ffffffffffffffffffffffffffffffffffffffff1602179055504260015f8481526020019081526020015f20600401819055507f6bbc04cd9f7bf9831cd5eba47dc9f5f589da3dfe1324b72461514271655ceb998233426040516104db939291906119bc565b60405180910390a15050565b6002602052815f5260405f208181548110610500575f80fd5b905f5260205f2090600402015f9150915050805f0154908060010154908060020154908060030154905084565b606060025f3373ffffffffffffffffffffffffffffffffffffffff1673ffffffffffffffffffffffffffffffffffffffff1681526020019081526020015f20805480602002602001604051908101604052809291908181526020015f905b828210156105e2578382905f5260205f2090600402016040518060800160405290815f820154815260200160018201548152602001600282015481526020016003820154815250508152602001906001019061058b565b50505050905090565b60605f805b60035481101561067c575f73ffffffffffffffffffffffffffffffffffffffff1660015f8381526020019081526020015f206003015f9054906101000a900473ffffffffffffffffffffffffffffffffffffffff1673ffffffffffffffffffffffffffffffffffffffff160361066f57818061066b90611a1e565b9250505b80806001019150506105f0565b508067ffffffffffffffff81111561069757610696611619565b5b6040519080825280602002602001820160405280156106c55781602001602082028036833780820191505090505b5091505f90505f5b600354811015610779575f73ffffffffffffffffffffffffffffffffffffffff1660015f8381526020019081526020015f206003015f9054906101000a900473ffffffffffffffffffffffffffffffffffffffff1673ffffffffffffffffffffffffffffffffffffffff160361076c578083838151811061075157610750611a65565b5b602002602001018181525050818061076890611a1e565b9250505b80806001019150506106cd565b505090565b5f8054906101000a900473ffffffffffffffffffffffffffffffffffffffff1673ffffffffffffffffffffffffffffffffffffffff163373ffffffffffffffffffffffffffffffffffffffff161461080b576040517f08c379a000000000000000000000000000000000000000000000000000000000815260040161080290611b02565b60405180910390fd5b806004819055507f76b21930ec5cd7f2240b14fa98d02b99c8aff60563d9d3711bd437be3e6e63258160405161084191906115c0565b60405180910390a150565b60045481565b5f8054906101000a900473ffffffffffffffffffffffffffffffffffffffff1681565b60035481565b5f8054906101000a900473ffffffffffffffffffffffffffffffffffffffff1673ffffffffffffffffffffffffffffffffffffffff163373ffffffffffffffffffffffffffffffffffffffff1614610908576040517f08c379a00000000000000000000000000000000000000000000000000000000081526004016108ff90611b02565b60405180910390fd5b5f60035f81548092919061091b90611a1e565b9190505590506040518060a001604052808581526020018481526020018381526020015f73ffffffffffffffffffffffffffffffffffffffff1681526020015f81525060015f8381526020019081526020015f205f820151815f0190816109829190611d1a565b5060208201518160010190816109989190611d1a565b50604082015181600201556060820151816003015f6101000a81548173ffffffffffffffffffffffffffffffffffffffff021916908373ffffffffffffffffffffffffffffffffffffffff1602179055506080820151816004015590505050505050565b8060015f8281526020019081526020015f206003015f9054906101000a900473ffffffffffffffffffffffffffffffffffffffff1673ffffffffffffffffffffffffffffffffffffffff163373ffffffffffffffffffffffffffffffffffffffff1614610a9e576040517f08c379a0000000000000000000000000000000000000000000000000000000008152600401610a9590611e59565b60405180910390fd5b816003548110610ae3576040517f08c379a0000000000000000000000000000000000000000000000000000000008152600401610ada906118ce565b60405180910390fd5b5f73ffffffffffffffffffffffffffffffffffffffff1660015f8581526020019081526020015f206003015f9054906101000a900473ffffffffffffffffffffffffffffffffffffffff1673ffffffffffffffffffffffffffffffffffffffff1603610b84576040517f08c379a0000000000000000000000000000000000000000000000000000000008152600401610b7b90611ec1565b60405180910390fd5b5f4290505f60015f8681526020019081526020015f206004015482610ba99190611edf565b90505f610bb582611207565b90507f63836415504234e0485c9cf0bdcc4459057a96e8e7384940c5affdafe83f0f208633858585604051610bee959493929190611f12565b60405180910390a160025f3373ffffffffffffffffffffffffffffffffffffffff1673ffffffffffffffffffffffffffffffffffffffff1681526020019081526020015f20604051806080016040528088815260200160015f8a81526020019081526020015f2060040154815260200185815260200183815250908060018154018082558091505060019003905f5260205f2090600402015f909190919091505f820151815f015560208201518160010155604082015181600201556060820151816003015550505f8054906101000a900473ffffffffffffffffffffffffffffffffffffffff1673ffffffffffffffffffffffffffffffffffffffff166108fc8290811502906040515f60405180830381858888f19350505050158015610d18573d5f803e3d5ffd5b5060015f8781526020019081526020015f205f8082015f610d39919061121d565b600182015f610d48919061121d565b600282015f9055600382015f6101000a81549073ffffffffffffffffffffffffffffffffffffffff0219169055600482015f90555050505050505050565b6001602052805f5260405f205f91509050805f018054610da590611b4d565b80601f0160208091040260200160405190810160405280929190818152602001828054610dd190611b4d565b8015610e1c5780601f10610df357610100808354040283529160200191610e1c565b820191905f5260205f20905b815481529060010190602001808311610dff57829003601f168201915b505050505090806001018054610e3190611b4d565b80601f0160208091040260200160405190810160405280929190818152602001828054610e5d90611b4d565b8015610ea85780601f10610e7f57610100808354040283529160200191610ea8565b820191905f5260205f20905b815481529060010190602001808311610e8b57829003601f168201915b505050505090806002015490806003015f9054906101000a900473ffffffffffffffffffffffffffffffffffffffff16908060040154905085565b5f8054906101000a900473ffffffffffffffffffffffffffffffffffffffff1673ffffffffffffffffffffffffffffffffffffffff163373ffffffffffffffffffffffffffffffffffffffff1614610f70576040517f08c379a0000000000000000000000000000000000000000000000000000000008152600401610f6790611b02565b60405180910390fd5b5f73ffffffffffffffffffffffffffffffffffffffff1660015f8381526020019081526020015f206003015f9054906101000a900473ffffffffffffffffffffffffffffffffffffffff1673ffffffffffffffffffffffffffffffffffffffff1614611011576040517f08c379a000000000000000000000000000000000000000000000000000000000815260040161100890611fad565b60405180910390fd5b60015f8281526020019081526020015f205f8082015f611031919061121d565b600182015f611040919061121d565b600282015f9055600382015f6101000a81549073ffffffffffffffffffffffffffffffffffffffff0219169055600482015f9055505060035f81548092919061108890611fcb565b919050555050565b6060805f805f8060015f8881526020019081526020015f209050805f01816001018260020154836003015f9054906101000a900473ffffffffffffffffffffffffffffffffffffffff1684600401548480546110eb90611b4d565b80601f016020809104026020016040519081016040528092919081815260200182805461111790611b4d565b80156111625780601f1061113957610100808354040283529160200191611162565b820191905f5260205f20905b81548152906001019060200180831161114557829003601f168201915b5050505050945083805461117590611b4d565b80601f01602080910402602001604051908101604052809291908181526020018280546111a190611b4d565b80156111ec5780601f106111c3576101008083540402835291602001916111ec565b820191905f5260205f20905b8154815290600101906020018083116111cf57829003601f168201915b50505050509350955095509550955095505091939590929450565b5f600454826112169190611ff2565b9050919050565b50805461122990611b4d565b5f825580601f1061123a5750611257565b601f0160209004905f5260205f2090810190611256919061125a565b5b50565b5b80821115611271575f815f90555060010161125b565b5090565b5f604051905090565b5f80fd5b5f80fd5b5f819050919050565b61129881611286565b81146112a2575f80fd5b50565b5f813590506112b38161128f565b92915050565b5f602082840312156112ce576112cd61127e565b5b5f6112db848285016112a5565b91505092915050565b5f73ffffffffffffffffffffffffffffffffffffffff82169050919050565b5f61130d826112e4565b9050919050565b61131d81611303565b8114611327575f80fd5b50565b5f8135905061133881611314565b92915050565b5f80604083850312156113545761135361127e565b5b5f6113618582860161132a565b9250506020611372858286016112a5565b9150509250929050565b61138581611286565b82525050565b5f60808201905061139e5f83018761137c565b6113ab602083018661137c565b6113b8604083018561137c565b6113c5606083018461137c565b95945050505050565b5f81519050919050565b5f82825260208201905092915050565b5f819050602082019050919050565b61140081611286565b82525050565b608082015f82015161141a5f8501826113f7565b50602082015161142d60208501826113f7565b50604082015161144060408501826113f7565b50606082015161145360608501826113f7565b50505050565b5f6114648383611406565b60808301905092915050565b5f602082019050919050565b5f611486826113ce565b61149081856113d8565b935061149b836113e8565b805f5b838110156114cb5781516114b28882611459565b97506114bd83611470565b92505060018101905061149e565b5085935050505092915050565b5f6020820190508181035f8301526114f0818461147c565b905092915050565b5f81519050919050565b5f82825260208201905092915050565b5f819050602082019050919050565b5f61152c83836113f7565b60208301905092915050565b5f602082019050919050565b5f61154e826114f8565b6115588185611502565b935061156383611512565b805f5b8381101561159357815161157a8882611521565b975061158583611538565b925050600181019050611566565b5085935050505092915050565b5f6020820190508181035f8301526115b88184611544565b905092915050565b5f6020820190506115d35f83018461137c565b92915050565b6115e281611303565b82525050565b5f6020820190506115fb5f8301846115d9565b92915050565b5f80fd5b5f80fd5b5f601f19601f8301169050919050565b7f4e487b71000000000000000000000000000000000000000000000000000000005f52604160045260245ffd5b61164f82611609565b810181811067ffffffffffffffff8211171561166e5761166d611619565b5b80604052505050565b5f611680611275565b905061168c8282611646565b919050565b5f67ffffffffffffffff8211156116ab576116aa611619565b5b6116b482611609565b9050602081019050919050565b828183375f83830152505050565b5f6116e16116dc84611691565b611677565b9050828152602081018484840111156116fd576116fc611605565b5b6117088482856116c1565b509392505050565b5f82601f83011261172457611723611601565b5b81356117348482602086016116cf565b91505092915050565b5f805f606084860312156117545761175361127e565b5b5f84013567ffffffffffffffff81111561177157611770611282565b5b61177d86828701611710565b935050602084013567ffffffffffffffff81111561179e5761179d611282565b5b6117aa86828701611710565b92505060406117bb868287016112a5565b9150509250925092565b5f81519050919050565b5f82825260208201905092915050565b8281835e5f83830152505050565b5f6117f7826117c5565b61180181856117cf565b93506118118185602086016117df565b61181a81611609565b840191505092915050565b5f60a0820190508181035f83015261183d81886117ed565b9050818103602083015261185181876117ed565b9050611860604083018661137c565b61186d60608301856115d9565b61187a608083018461137c565b9695505050505050565b7f496e76616c6964207065742049440000000000000000000000000000000000005f82015250565b5f6118b8600e836117cf565b91506118c382611884565b602082019050919050565b5f6020820190508181035f8301526118e5816118ac565b9050919050565b7f50657420697320616c72656164792061646f70746564000000000000000000005f82015250565b5f6119206016836117cf565b915061192b826118ec565b602082019050919050565b5f6020820190508181035f83015261194d81611914565b9050919050565b7f496e73756666696369656e742066656520666f722061646f7074696f6e0000005f82015250565b5f611988601d836117cf565b915061199382611954565b602082019050919050565b5f6020820190508181035f8301526119b58161197c565b9050919050565b5f6060820190506119cf5f83018661137c565b6119dc60208301856115d9565b6119e9604083018461137c565b949350505050565b7f4e487b71000000000000000000000000000000000000000000000000000000005f52601160045260245ffd5b5f611a2882611286565b91507fffffffffffffffffffffffffffffffffffffffffffffffffffffffffffffffff8203611a5a57611a596119f1565b5b600182019050919050565b7f4e487b71000000000000000000000000000000000000000000000000000000005f52603260045260245ffd5b7f4f6e6c79206f776e65722063616e2063616c6c20746869732066756e6374696f5f8201527f6e00000000000000000000000000000000000000000000000000000000000000602082015250565b5f611aec6021836117cf565b9150611af782611a92565b604082019050919050565b5f6020820190508181035f830152611b1981611ae0565b9050919050565b7f4e487b71000000000000000000000000000000000000000000000000000000005f52602260045260245ffd5b5f6002820490506001821680611b6457607f821691505b602082108103611b7757611b76611b20565b5b50919050565b5f819050815f5260205f209050919050565b5f6020601f8301049050919050565b5f82821b905092915050565b5f60088302611bd97fffffffffffffffffffffffffffffffffffffffffffffffffffffffffffffffff82611b9e565b611be38683611b9e565b95508019841693508086168417925050509392505050565b5f819050919050565b5f611c1e611c19611c1484611286565b611bfb565b611286565b9050919050565b5f819050919050565b611c3783611c04565b611c4b611c4382611c25565b848454611baa565b825550505050565b5f90565b611c5f611c53565b611c6a818484611c2e565b505050565b5b81811015611c8d57611c825f82611c57565b600181019050611c70565b5050565b601f821115611cd257611ca381611b7d565b611cac84611b8f565b81016020851015611cbb578190505b611ccf611cc785611b8f565b830182611c6f565b50505b505050565b5f82821c905092915050565b5f611cf25f1984600802611cd7565b1980831691505092915050565b5f611d0a8383611ce3565b9150826002028217905092915050565b611d23826117c5565b67ffffffffffffffff811115611d3c57611d3b611619565b5b611d468254611b4d565b611d51828285611c91565b5f60209050601f831160018114611d82575f8415611d70578287015190505b611d7a8582611cff565b865550611de1565b601f198416611d9086611b7d565b5f5b82811015611db757848901518255600182019150602085019450602081019050611d92565b86831015611dd45784890151611dd0601f891682611ce3565b8355505b6001600288020188555050505b505050505050565b7f4f6e6c792061646f707465722063616e2063616c6c20746869732066756e63745f8201527f696f6e0000000000000000000000000000000000000000000000000000000000602082015250565b5f611e436023836117cf565b9150611e4e82611de9565b604082019050919050565b5f6020820190508181035f830152611e7081611e37565b9050919050565b7f506574206973206e6f742061646f7074656400000000000000000000000000005f82015250565b5f611eab6012836117cf565b9150611eb682611e77565b602082019050919050565b5f6020820190508181035f830152611ed881611e9f565b9050919050565b5f611ee982611286565b9150611ef483611286565b9250828203905081811115611f0c57611f0b6119f1565b5b92915050565b5f60a082019050611f255f83018861137c565b611f3260208301876115d9565b611f3f604083018661137c565b611f4c606083018561137c565b611f59608083018461137c565b9695505050505050565b7f43616e6e6f742064656c65746520616e2061646f7074656420706574000000005f82015250565b5f611f97601c836117cf565b9150611fa282611f63565b602082019050919050565b5f6020820190508181035f830152611fc481611f8b565b9050919050565b5f611fd582611286565b91505f8203611fe757611fe66119f1565b5b600182039050919050565b5f611ffc82611286565b915061200783611286565b925082820261201581611286565b9150828204841483151761202c5761202b6119f1565b5b509291505056fea2646970667358221220fd51c190f823df992dfb6a3bcaadf0c42cd9f3ef7b28eceebaacf67a3cc3ad7a64736f6c634300081a0033",
					"opcodes": "PUSH1 0x80 PUSH1 0x40 MSTORE CALLVALUE DUP1 ISZERO PUSH1 0xE JUMPI PUSH0 DUP1 REVERT JUMPDEST POP CALLER PUSH0 DUP1 PUSH2 0x100 EXP DUP2 SLOAD DUP2 PUSH20 0xFFFFFFFFFFFFFFFFFFFFFFFFFFFFFFFFFFFFFFFF MUL NOT AND SWAP1 DUP4 PUSH20 0xFFFFFFFFFFFFFFFFFFFFFFFFFFFFFFFFFFFFFFFF AND MUL OR SWAP1 SSTORE POP PUSH7 0x2386F26FC10000 PUSH1 0x4 DUP2 SWAP1 SSTORE POP PUSH2 0x2069 DUP1 PUSH2 0x69 PUSH0 CODECOPY PUSH0 RETURN INVALID PUSH1 0x80 PUSH1 0x40 MSTORE PUSH1 0x4 CALLDATASIZE LT PUSH2 0xC1 JUMPI PUSH0 CALLDATALOAD PUSH1 0xE0 SHR DUP1 PUSH4 0x8DA5CB5B GT PUSH2 0x7E JUMPI DUP1 PUSH4 0xBDB92E8E GT PUSH2 0x58 JUMPI DUP1 PUSH4 0xBDB92E8E EQ PUSH2 0x242 JUMPI DUP1 PUSH4 0xCFB869BF EQ PUSH2 0x26A JUMPI DUP1 PUSH4 0xD749E429 EQ PUSH2 0x2AA JUMPI DUP1 PUSH4 0xD89FD4B4 EQ PUSH2 0x2D2 JUMPI PUSH2 0xC1 JUMP JUMPDEST DUP1 PUSH4 0x8DA5CB5B EQ PUSH2 0x1C6 JUMPI DUP1 PUSH4 0x987EAE8F EQ PUSH2 0x1F0 JUMPI DUP1 PUSH4 0xAE37A1B5 EQ PUSH2 0x21A JUMPI PUSH2 0xC1 JUMP JUMPDEST DUP1 PUSH4 0x19B81577 EQ PUSH2 0xC5 JUMPI DUP1 PUSH4 0x39E776AE EQ PUSH2 0xE1 JUMPI DUP1 PUSH4 0x3FB53D79 EQ PUSH2 0x120 JUMPI DUP1 PUSH4 0x4F154C54 EQ PUSH2 0x14A JUMPI DUP1 PUSH4 0x5476FC70 EQ PUSH2 0x174 JUMPI DUP1 PUSH4 0x8A150DA7 EQ PUSH2 0x19C JUMPI JUMPDEST PUSH0 DUP1 REVERT JUMPDEST PUSH2 0xDF PUSH1 0x4 DUP1 CALLDATASIZE SUB DUP2 ADD SWAP1 PUSH2 0xDA SWAP2 SWAP1 PUSH2 0x12B9 JUMP JUMPDEST PUSH2 0x312 JUMP JUMPDEST STOP JUMPDEST CALLVALUE DUP1 ISZERO PUSH2 0xEC JUMPI PUSH0 DUP1 REVERT JUMPDEST POP PUSH2 0x107 PUSH1 0x4 DUP1 CALLDATASIZE SUB DUP2 ADD SWAP1 PUSH2 0x102 SWAP2 SWAP1 PUSH2 0x133E JUMP JUMPDEST PUSH2 0x4E7 JUMP JUMPDEST PUSH1 0x40 MLOAD PUSH2 0x117 SWAP5 SWAP4 SWAP3 SWAP2 SWAP1 PUSH2 0x138B JUMP JUMPDEST PUSH1 0x40 MLOAD DUP1 SWAP2 SUB SWAP1 RETURN JUMPDEST CALLVALUE DUP1 ISZERO PUSH2 0x12B JUMPI PUSH0 DUP1 REVERT JUMPDEST POP PUSH2 0x134 PUSH2 0x52D JUMP JUMPDEST PUSH1 0x40 MLOAD PUSH2 0x141 SWAP2 SWAP1 PUSH2 0x14D8 JUMP JUMPDEST PUSH1 0x40 MLOAD DUP1 SWAP2 SUB SWAP1 RETURN JUMPDEST CALLVALUE DUP1 ISZERO PUSH2 0x155 JUMPI PUSH0 DUP1 REVERT JUMPDEST POP PUSH2 0x15E PUSH2 0x5EB JUMP JUMPDEST PUSH1 0x40 MLOAD PUSH2 0x16B SWAP2 SWAP1 PUSH2 0x15A0 JUMP JUMPDEST PUSH1 0x40 MLOAD DUP1 SWAP2 SUB SWAP1 RETURN JUMPDEST CALLVALUE DUP1 ISZERO PUSH2 0x17F JUMPI PUSH0 DUP1 REVERT JUMPDEST POP PUSH2 0x19A PUSH1 0x4 DUP1 CALLDATASIZE SUB DUP2 ADD SWAP1 PUSH2 0x195 SWAP2 SWAP1 PUSH2 0x12B9 JUMP JUMPDEST PUSH2 0x77E JUMP JUMPDEST STOP JUMPDEST CALLVALUE DUP1 ISZERO PUSH2 0x1A7 JUMPI PUSH0 DUP1 REVERT JUMPDEST POP PUSH2 0x1B0 PUSH2 0x84C JUMP JUMPDEST PUSH1 0x40 MLOAD PUSH2 0x1BD SWAP2 SWAP1 PUSH2 0x15C0 JUMP JUMPDEST PUSH1 0x40 MLOAD DUP1 SWAP2 SUB SWAP1 RETURN JUMPDEST CALLVALUE DUP1 ISZERO PUSH2 0x1D1 JUMPI PUSH0 DUP1 REVERT JUMPDEST POP PUSH2 0x1DA PUSH2 0x852 JUMP JUMPDEST PUSH1 0x40 MLOAD PUSH2 0x1E7 SWAP2 SWAP1 PUSH2 0x15E8 JUMP JUMPDEST PUSH1 0x40 MLOAD DUP1 SWAP2 SUB SWAP1 RETURN JUMPDEST CALLVALUE DUP1 ISZERO PUSH2 0x1FB JUMPI PUSH0 DUP1 REVERT JUMPDEST POP PUSH2 0x204 PUSH2 0x875 JUMP JUMPDEST PUSH1 0x40 MLOAD PUSH2 0x211 SWAP2 SWAP1 PUSH2 0x15C0 JUMP JUMPDEST PUSH1 0x40 MLOAD DUP1 SWAP2 SUB SWAP1 RETURN JUMPDEST CALLVALUE DUP1 ISZERO PUSH2 0x225 JUMPI PUSH0 DUP1 REVERT JUMPDEST POP PUSH2 0x240 PUSH1 0x4 DUP1 CALLDATASIZE SUB DUP2 ADD SWAP1 PUSH2 0x23B SWAP2 SWAP1 PUSH2 0x173D JUMP JUMPDEST PUSH2 0x87B JUMP JUMPDEST STOP JUMPDEST CALLVALUE DUP1 ISZERO PUSH2 0x24D JUMPI PUSH0 DUP1 REVERT JUMPDEST POP PUSH2 0x268 PUSH1 0x4 DUP1 CALLDATASIZE SUB DUP2 ADD SWAP1 PUSH2 0x263 SWAP2 SWAP1 PUSH2 0x12B9 JUMP JUMPDEST PUSH2 0x9FC JUMP JUMPDEST STOP JUMPDEST CALLVALUE DUP1 ISZERO PUSH2 0x275 JUMPI PUSH0 DUP1 REVERT JUMPDEST POP PUSH2 0x290 PUSH1 0x4 DUP1 CALLDATASIZE SUB DUP2 ADD SWAP1 PUSH2 0x28B SWAP2 SWAP1 PUSH2 0x12B9 JUMP JUMPDEST PUSH2 0xD86 JUMP JUMPDEST PUSH1 0x40 MLOAD PUSH2 0x2A1 SWAP6 SWAP5 SWAP4 SWAP3 SWAP2 SWAP1 PUSH2 0x1825 JUMP JUMPDEST PUSH1 0x40 MLOAD DUP1 SWAP2 SUB SWAP1 RETURN JUMPDEST CALLVALUE DUP1 ISZERO PUSH2 0x2B5 JUMPI PUSH0 DUP1 REVERT JUMPDEST POP PUSH2 0x2D0 PUSH1 0x4 DUP1 CALLDATASIZE SUB DUP2 ADD SWAP1 PUSH2 0x2CB SWAP2 SWAP1 PUSH2 0x12B9 JUMP JUMPDEST PUSH2 0xEE3 JUMP JUMPDEST STOP JUMPDEST CALLVALUE DUP1 ISZERO PUSH2 0x2DD JUMPI PUSH0 DUP1 REVERT JUMPDEST POP PUSH2 0x2F8 PUSH1 0x4 DUP1 CALLDATASIZE SUB DUP2 ADD SWAP1 PUSH2 0x2F3 SWAP2 SWAP1 PUSH2 0x12B9 JUMP JUMPDEST PUSH2 0x1090 JUMP JUMPDEST PUSH1 0x40 MLOAD PUSH2 0x309 SWAP6 SWAP5 SWAP4 SWAP3 SWAP2 SWAP1 PUSH2 0x1825 JUMP JUMPDEST PUSH1 0x40 MLOAD DUP1 SWAP2 SUB SWAP1 RETURN JUMPDEST DUP1 PUSH1 0x3 SLOAD DUP2 LT PUSH2 0x357 JUMPI PUSH1 0x40 MLOAD PUSH32 0x8C379A000000000000000000000000000000000000000000000000000000000 DUP2 MSTORE PUSH1 0x4 ADD PUSH2 0x34E SWAP1 PUSH2 0x18CE JUMP JUMPDEST PUSH1 0x40 MLOAD DUP1 SWAP2 SUB SWAP1 REVERT JUMPDEST PUSH0 PUSH20 0xFFFFFFFFFFFFFFFFFFFFFFFFFFFFFFFFFFFFFFFF AND PUSH1 0x1 PUSH0 DUP5 DUP2 MSTORE PUSH1 0x20 ADD SWAP1 DUP2 MSTORE PUSH1 0x20 ADD PUSH0 KECCAK256 PUSH1 0x3 ADD PUSH0 SWAP1 SLOAD SWAP1 PUSH2 0x100 EXP SWAP1 DIV PUSH20 0xFFFFFFFFFFFFFFFFFFFFFFFFFFFFFFFFFFFFFFFF AND PUSH20 0xFFFFFFFFFFFFFFFFFFFFFFFFFFFFFFFFFFFFFFFF AND EQ PUSH2 0x3F8 JUMPI PUSH1 0x40 MLOAD PUSH32 0x8C379A000000000000000000000000000000000000000000000000000000000 DUP2 MSTORE PUSH1 0x4 ADD PUSH2 0x3EF SWAP1 PUSH2 0x1936 JUMP JUMPDEST PUSH1 0x40 MLOAD DUP1 SWAP2 SUB SWAP1 REVERT JUMPDEST PUSH1 0x4 SLOAD CALLVALUE LT ISZERO PUSH2 0x43D JUMPI PUSH1 0x40 MLOAD PUSH32 0x8C379A000000000000000000000000000000000000000000000000000000000 DUP2 MSTORE PUSH1 0x4 ADD PUSH2 0x434 SWAP1 PUSH2 0x199E JUMP JUMPDEST PUSH1 0x40 MLOAD DUP1 SWAP2 SUB SWAP1 REVERT JUMPDEST CALLER PUSH1 0x1 PUSH0 DUP5 DUP2 MSTORE PUSH1 0x20 ADD SWAP1 DUP2 MSTORE PUSH1 0x20 ADD PUSH0 KECCAK256 PUSH1 0x3 ADD PUSH0 PUSH2 0x100 EXP DUP2 SLOAD DUP2 PUSH20 0xFFFFFFFFFFFFFFFFFFFFFFFFFFFFFFFFFFFFFFFF MUL NOT AND SWAP1 DUP4 PUSH20 0xFFFFFFFFFFFFFFFFFFFFFFFFFFFFFFFFFFFFFFFF AND MUL OR SWAP1 SSTORE POP TIMESTAMP PUSH1 0x1 PUSH0 DUP5 DUP2 MSTORE PUSH1 0x20 ADD SWAP1 DUP2 MSTORE PUSH1 0x20 ADD PUSH0 KECCAK256 PUSH1 0x4 ADD DUP2 SWAP1 SSTORE POP PUSH32 0x6BBC04CD9F7BF9831CD5EBA47DC9F5F589DA3DFE1324B72461514271655CEB99 DUP3 CALLER TIMESTAMP PUSH1 0x40 MLOAD PUSH2 0x4DB SWAP4 SWAP3 SWAP2 SWAP1 PUSH2 0x19BC JUMP JUMPDEST PUSH1 0x40 MLOAD DUP1 SWAP2 SUB SWAP1 LOG1 POP POP JUMP JUMPDEST PUSH1 0x2 PUSH1 0x20 MSTORE DUP2 PUSH0 MSTORE PUSH1 0x40 PUSH0 KECCAK256 DUP2 DUP2 SLOAD DUP2 LT PUSH2 0x500 JUMPI PUSH0 DUP1 REVERT JUMPDEST SWAP1 PUSH0 MSTORE PUSH1 0x20 PUSH0 KECCAK256 SWAP1 PUSH1 0x4 MUL ADD PUSH0 SWAP2 POP SWAP2 POP POP DUP1 PUSH0 ADD SLOAD SWAP1 DUP1 PUSH1 0x1 ADD SLOAD SWAP1 DUP1 PUSH1 0x2 ADD SLOAD SWAP1 DUP1 PUSH1 0x3 ADD SLOAD SWAP1 POP DUP5 JUMP JUMPDEST PUSH1 0x60 PUSH1 0x2 PUSH0 CALLER PUSH20 0xFFFFFFFFFFFFFFFFFFFFFFFFFFFFFFFFFFFFFFFF AND PUSH20 0xFFFFFFFFFFFFFFFFFFFFFFFFFFFFFFFFFFFFFFFF AND DUP2 MSTORE PUSH1 0x20 ADD SWAP1 DUP2 MSTORE PUSH1 0x20 ADD PUSH0 KECCAK256 DUP1 SLOAD DUP1 PUSH1 0x20 MUL PUSH1 0x20 ADD PUSH1 0x40 MLOAD SWAP1 DUP2 ADD PUSH1 0x40 MSTORE DUP1 SWAP3 SWAP2 SWAP1 DUP2 DUP2 MSTORE PUSH1 0x20 ADD PUSH0 SWAP1 JUMPDEST DUP3 DUP3 LT ISZERO PUSH2 0x5E2 JUMPI DUP4 DUP3 SWAP1 PUSH0 MSTORE PUSH1 0x20 PUSH0 KECCAK256 SWAP1 PUSH1 0x4 MUL ADD PUSH1 0x40 MLOAD DUP1 PUSH1 0x80 ADD PUSH1 0x40 MSTORE SWAP1 DUP2 PUSH0 DUP3 ADD SLOAD DUP2 MSTORE PUSH1 0x20 ADD PUSH1 0x1 DUP3 ADD SLOAD DUP2 MSTORE PUSH1 0x20 ADD PUSH1 0x2 DUP3 ADD SLOAD DUP2 MSTORE PUSH1 0x20 ADD PUSH1 0x3 DUP3 ADD SLOAD DUP2 MSTORE POP POP DUP2 MSTORE PUSH1 0x20 ADD SWAP1 PUSH1 0x1 ADD SWAP1 PUSH2 0x58B JUMP JUMPDEST POP POP POP POP SWAP1 POP SWAP1 JUMP JUMPDEST PUSH1 0x60 PUSH0 DUP1 JUMPDEST PUSH1 0x3 SLOAD DUP2 LT ISZERO PUSH2 0x67C JUMPI PUSH0 PUSH20 0xFFFFFFFFFFFFFFFFFFFFFFFFFFFFFFFFFFFFFFFF AND PUSH1 0x1 PUSH0 DUP4 DUP2 MSTORE PUSH1 0x20 ADD SWAP1 DUP2 MSTORE PUSH1 0x20 ADD PUSH0 KECCAK256 PUSH1 0x3 ADD PUSH0 SWAP1 SLOAD SWAP1 PUSH2 0x100 EXP SWAP1 DIV PUSH20 0xFFFFFFFFFFFFFFFFFFFFFFFFFFFFFFFFFFFFFFFF AND PUSH20 0xFFFFFFFFFFFFFFFFFFFFFFFFFFFFFFFFFFFFFFFF AND SUB PUSH2 0x66F JUMPI DUP2 DUP1 PUSH2 0x66B SWAP1 PUSH2 0x1A1E JUMP JUMPDEST SWAP3 POP POP JUMPDEST DUP1 DUP1 PUSH1 0x1 ADD SWAP2 POP POP PUSH2 0x5F0 JUMP JUMPDEST POP DUP1 PUSH8 0xFFFFFFFFFFFFFFFF DUP2 GT ISZERO PUSH2 0x697 JUMPI PUSH2 0x696 PUSH2 0x1619 JUMP JUMPDEST JUMPDEST PUSH1 0x40 MLOAD SWAP1 DUP1 DUP3 MSTORE DUP1 PUSH1 0x20 MUL PUSH1 0x20 ADD DUP3 ADD PUSH1 0x40 MSTORE DUP1 ISZERO PUSH2 0x6C5 JUMPI DUP2 PUSH1 0x20 ADD PUSH1 0x20 DUP3 MUL DUP1 CALLDATASIZE DUP4 CALLDATACOPY DUP1 DUP3 ADD SWAP2 POP POP SWAP1 POP JUMPDEST POP SWAP2 POP PUSH0 SWAP1 POP PUSH0 JUMPDEST PUSH1 0x3 SLOAD DUP2 LT ISZERO PUSH2 0x779 JUMPI PUSH0 PUSH20 0xFFFFFFFFFFFFFFFFFFFFFFFFFFFFFFFFFFFFFFFF AND PUSH1 0x1 PUSH0 DUP4 DUP2 MSTORE PUSH1 0x20 ADD SWAP1 DUP2 MSTORE PUSH1 0x20 ADD PUSH0 KECCAK256 PUSH1 0x3 ADD PUSH0 SWAP1 SLOAD SWAP1 PUSH2 0x100 EXP SWAP1 DIV PUSH20 0xFFFFFFFFFFFFFFFFFFFFFFFFFFFFFFFFFFFFFFFF AND PUSH20 0xFFFFFFFFFFFFFFFFFFFFFFFFFFFFFFFFFFFFFFFF AND SUB PUSH2 0x76C JUMPI DUP1 DUP4 DUP4 DUP2 MLOAD DUP2 LT PUSH2 0x751 JUMPI PUSH2 0x750 PUSH2 0x1A65 JUMP JUMPDEST JUMPDEST PUSH1 0x20 MUL PUSH1 0x20 ADD ADD DUP2 DUP2 MSTORE POP POP DUP2 DUP1 PUSH2 0x768 SWAP1 PUSH2 0x1A1E JUMP JUMPDEST SWAP3 POP POP JUMPDEST DUP1 DUP1 PUSH1 0x1 ADD SWAP2 POP POP PUSH2 0x6CD JUMP JUMPDEST POP POP SWAP1 JUMP JUMPDEST PUSH0 DUP1 SLOAD SWAP1 PUSH2 0x100 EXP SWAP1 DIV PUSH20 0xFFFFFFFFFFFFFFFFFFFFFFFFFFFFFFFFFFFFFFFF AND PUSH20 0xFFFFFFFFFFFFFFFFFFFFFFFFFFFFFFFFFFFFFFFF AND CALLER PUSH20 0xFFFFFFFFFFFFFFFFFFFFFFFFFFFFFFFFFFFFFFFF AND EQ PUSH2 0x80B JUMPI PUSH1 0x40 MLOAD PUSH32 0x8C379A000000000000000000000000000000000000000000000000000000000 DUP2 MSTORE PUSH1 0x4 ADD PUSH2 0x802 SWAP1 PUSH2 0x1B02 JUMP JUMPDEST PUSH1 0x40 MLOAD DUP1 SWAP2 SUB SWAP1 REVERT JUMPDEST DUP1 PUSH1 0x4 DUP2 SWAP1 SSTORE POP PUSH32 0x76B21930EC5CD7F2240B14FA98D02B99C8AFF60563D9D3711BD437BE3E6E6325 DUP2 PUSH1 0x40 MLOAD PUSH2 0x841 SWAP2 SWAP1 PUSH2 0x15C0 JUMP JUMPDEST PUSH1 0x40 MLOAD DUP1 SWAP2 SUB SWAP1 LOG1 POP JUMP JUMPDEST PUSH1 0x4 SLOAD DUP2 JUMP JUMPDEST PUSH0 DUP1 SLOAD SWAP1 PUSH2 0x100 EXP SWAP1 DIV PUSH20 0xFFFFFFFFFFFFFFFFFFFFFFFFFFFFFFFFFFFFFFFF AND DUP2 JUMP JUMPDEST PUSH1 0x3 SLOAD DUP2 JUMP JUMPDEST PUSH0 DUP1 SLOAD SWAP1 PUSH2 0x100 EXP SWAP1 DIV PUSH20 0xFFFFFFFFFFFFFFFFFFFFFFFFFFFFFFFFFFFFFFFF AND PUSH20 0xFFFFFFFFFFFFFFFFFFFFFFFFFFFFFFFFFFFFFFFF AND CALLER PUSH20 0xFFFFFFFFFFFFFFFFFFFFFFFFFFFFFFFFFFFFFFFF AND EQ PUSH2 0x908 JUMPI PUSH1 0x40 MLOAD PUSH32 0x8C379A000000000000000000000000000000000000000000000000000000000 DUP2 MSTORE PUSH1 0x4 ADD PUSH2 0x8FF SWAP1 PUSH2 0x1B02 JUMP JUMPDEST PUSH1 0x40 MLOAD DUP1 SWAP2 SUB SWAP1 REVERT JUMPDEST PUSH0 PUSH1 0x3 PUSH0 DUP2 SLOAD DUP1 SWAP3 SWAP2 SWAP1 PUSH2 0x91B SWAP1 PUSH2 0x1A1E JUMP JUMPDEST SWAP2 SWAP1 POP SSTORE SWAP1 POP PUSH1 0x40 MLOAD DUP1 PUSH1 0xA0 ADD PUSH1 0x40 MSTORE DUP1 DUP6 DUP2 MSTORE PUSH1 0x20 ADD DUP5 DUP2 MSTORE PUSH1 0x20 ADD DUP4 DUP2 MSTORE PUSH1 0x20 ADD PUSH0 PUSH20 0xFFFFFFFFFFFFFFFFFFFFFFFFFFFFFFFFFFFFFFFF AND DUP2 MSTORE PUSH1 0x20 ADD PUSH0 DUP2 MSTORE POP PUSH1 0x1 PUSH0 DUP4 DUP2 MSTORE PUSH1 0x20 ADD SWAP1 DUP2 MSTORE PUSH1 0x20 ADD PUSH0 KECCAK256 PUSH0 DUP3 ADD MLOAD DUP2 PUSH0 ADD SWAP1 DUP2 PUSH2 0x982 SWAP2 SWAP1 PUSH2 0x1D1A JUMP JUMPDEST POP PUSH1 0x20 DUP3 ADD MLOAD DUP2 PUSH1 0x1 ADD SWAP1 DUP2 PUSH2 0x998 SWAP2 SWAP1 PUSH2 0x1D1A JUMP JUMPDEST POP PUSH1 0x40 DUP3 ADD MLOAD DUP2 PUSH1 0x2 ADD SSTORE PUSH1 0x60 DUP3 ADD MLOAD DUP2 PUSH1 0x3 ADD PUSH0 PUSH2 0x100 EXP DUP2 SLOAD DUP2 PUSH20 0xFFFFFFFFFFFFFFFFFFFFFFFFFFFFFFFFFFFFFFFF MUL NOT AND SWAP1 DUP4 PUSH20 0xFFFFFFFFFFFFFFFFFFFFFFFFFFFFFFFFFFFFFFFF AND MUL OR SWAP1 SSTORE POP PUSH1 0x80 DUP3 ADD MLOAD DUP2 PUSH1 0x4 ADD SSTORE SWAP1 POP POP POP POP POP POP JUMP JUMPDEST DUP1 PUSH1 0x1 PUSH0 DUP3 DUP2 MSTORE PUSH1 0x20 ADD SWAP1 DUP2 MSTORE PUSH1 0x20 ADD PUSH0 KECCAK256 PUSH1 0x3 ADD PUSH0 SWAP1 SLOAD SWAP1 PUSH2 0x100 EXP SWAP1 DIV PUSH20 0xFFFFFFFFFFFFFFFFFFFFFFFFFFFFFFFFFFFFFFFF AND PUSH20 0xFFFFFFFFFFFFFFFFFFFFFFFFFFFFFFFFFFFFFFFF AND CALLER PUSH20 0xFFFFFFFFFFFFFFFFFFFFFFFFFFFFFFFFFFFFFFFF AND EQ PUSH2 0xA9E JUMPI PUSH1 0x40 MLOAD PUSH32 0x8C379A000000000000000000000000000000000000000000000000000000000 DUP2 MSTORE PUSH1 0x4 ADD PUSH2 0xA95 SWAP1 PUSH2 0x1E59 JUMP JUMPDEST PUSH1 0x40 MLOAD DUP1 SWAP2 SUB SWAP1 REVERT JUMPDEST DUP2 PUSH1 0x3 SLOAD DUP2 LT PUSH2 0xAE3 JUMPI PUSH1 0x40 MLOAD PUSH32 0x8C379A000000000000000000000000000000000000000000000000000000000 DUP2 MSTORE PUSH1 0x4 ADD PUSH2 0xADA SWAP1 PUSH2 0x18CE JUMP JUMPDEST PUSH1 0x40 MLOAD DUP1 SWAP2 SUB SWAP1 REVERT JUMPDEST PUSH0 PUSH20 0xFFFFFFFFFFFFFFFFFFFFFFFFFFFFFFFFFFFFFFFF AND PUSH1 0x1 PUSH0 DUP6 DUP2 MSTORE PUSH1 0x20 ADD SWAP1 DUP2 MSTORE PUSH1 0x20 ADD PUSH0 KECCAK256 PUSH1 0x3 ADD PUSH0 SWAP1 SLOAD SWAP1 PUSH2 0x100 EXP SWAP1 DIV PUSH20 0xFFFFFFFFFFFFFFFFFFFFFFFFFFFFFFFFFFFFFFFF AND PUSH20 0xFFFFFFFFFFFFFFFFFFFFFFFFFFFFFFFFFFFFFFFF AND SUB PUSH2 0xB84 JUMPI PUSH1 0x40 MLOAD PUSH32 0x8C379A000000000000000000000000000000000000000000000000000000000 DUP2 MSTORE PUSH1 0x4 ADD PUSH2 0xB7B SWAP1 PUSH2 0x1EC1 JUMP JUMPDEST PUSH1 0x40 MLOAD DUP1 SWAP2 SUB SWAP1 REVERT JUMPDEST PUSH0 TIMESTAMP SWAP1 POP PUSH0 PUSH1 0x1 PUSH0 DUP7 DUP2 MSTORE PUSH1 0x20 ADD SWAP1 DUP2 MSTORE PUSH1 0x20 ADD PUSH0 KECCAK256 PUSH1 0x4 ADD SLOAD DUP3 PUSH2 0xBA9 SWAP2 SWAP1 PUSH2 0x1EDF JUMP JUMPDEST SWAP1 POP PUSH0 PUSH2 0xBB5 DUP3 PUSH2 0x1207 JUMP JUMPDEST SWAP1 POP PUSH32 0x63836415504234E0485C9CF0BDCC4459057A96E8E7384940C5AFFDAFE83F0F20 DUP7 CALLER DUP6 DUP6 DUP6 PUSH1 0x40 MLOAD PUSH2 0xBEE SWAP6 SWAP5 SWAP4 SWAP3 SWAP2 SWAP1 PUSH2 0x1F12 JUMP JUMPDEST PUSH1 0x40 MLOAD DUP1 SWAP2 SUB SWAP1 LOG1 PUSH1 0x2 PUSH0 CALLER PUSH20 0xFFFFFFFFFFFFFFFFFFFFFFFFFFFFFFFFFFFFFFFF AND PUSH20 0xFFFFFFFFFFFFFFFFFFFFFFFFFFFFFFFFFFFFFFFF AND DUP2 MSTORE PUSH1 0x20 ADD SWAP1 DUP2 MSTORE PUSH1 0x20 ADD PUSH0 KECCAK256 PUSH1 0x40 MLOAD DUP1 PUSH1 0x80 ADD PUSH1 0x40 MSTORE DUP1 DUP9 DUP2 MSTORE PUSH1 0x20 ADD PUSH1 0x1 PUSH0 DUP11 DUP2 MSTORE PUSH1 0x20 ADD SWAP1 DUP2 MSTORE PUSH1 0x20 ADD PUSH0 KECCAK256 PUSH1 0x4 ADD SLOAD DUP2 MSTORE PUSH1 0x20 ADD DUP6 DUP2 MSTORE PUSH1 0x20 ADD DUP4 DUP2 MSTORE POP SWAP1 DUP1 PUSH1 0x1 DUP2 SLOAD ADD DUP1 DUP3 SSTORE DUP1 SWAP2 POP POP PUSH1 0x1 SWAP1 SUB SWAP1 PUSH0 MSTORE PUSH1 0x20 PUSH0 KECCAK256 SWAP1 PUSH1 0x4 MUL ADD PUSH0 SWAP1 SWAP2 SWAP1 SWAP2 SWAP1 SWAP2 POP PUSH0 DUP3 ADD MLOAD DUP2 PUSH0 ADD SSTORE PUSH1 0x20 DUP3 ADD MLOAD DUP2 PUSH1 0x1 ADD SSTORE PUSH1 0x40 DUP3 ADD MLOAD DUP2 PUSH1 0x2 ADD SSTORE PUSH1 0x60 DUP3 ADD MLOAD DUP2 PUSH1 0x3 ADD SSTORE POP POP PUSH0 DUP1 SLOAD SWAP1 PUSH2 0x100 EXP SWAP1 DIV PUSH20 0xFFFFFFFFFFFFFFFFFFFFFFFFFFFFFFFFFFFFFFFF AND PUSH20 0xFFFFFFFFFFFFFFFFFFFFFFFFFFFFFFFFFFFFFFFF AND PUSH2 0x8FC DUP3 SWAP1 DUP2 ISZERO MUL SWAP1 PUSH1 0x40 MLOAD PUSH0 PUSH1 0x40 MLOAD DUP1 DUP4 SUB DUP2 DUP6 DUP9 DUP9 CALL SWAP4 POP POP POP POP ISZERO DUP1 ISZERO PUSH2 0xD18 JUMPI RETURNDATASIZE PUSH0 DUP1 RETURNDATACOPY RETURNDATASIZE PUSH0 REVERT JUMPDEST POP PUSH1 0x1 PUSH0 DUP8 DUP2 MSTORE PUSH1 0x20 ADD SWAP1 DUP2 MSTORE PUSH1 0x20 ADD PUSH0 KECCAK256 PUSH0 DUP1 DUP3 ADD PUSH0 PUSH2 0xD39 SWAP2 SWAP1 PUSH2 0x121D JUMP JUMPDEST PUSH1 0x1 DUP3 ADD PUSH0 PUSH2 0xD48 SWAP2 SWAP1 PUSH2 0x121D JUMP JUMPDEST PUSH1 0x2 DUP3 ADD PUSH0 SWAP1 SSTORE PUSH1 0x3 DUP3 ADD PUSH0 PUSH2 0x100 EXP DUP2 SLOAD SWAP1 PUSH20 0xFFFFFFFFFFFFFFFFFFFFFFFFFFFFFFFFFFFFFFFF MUL NOT AND SWAP1 SSTORE PUSH1 0x4 DUP3 ADD PUSH0 SWAP1 SSTORE POP POP POP POP POP POP POP POP JUMP JUMPDEST PUSH1 0x1 PUSH1 0x20 MSTORE DUP1 PUSH0 MSTORE PUSH1 0x40 PUSH0 KECCAK256 PUSH0 SWAP2 POP SWAP1 POP DUP1 PUSH0 ADD DUP1 SLOAD PUSH2 0xDA5 SWAP1 PUSH2 0x1B4D JUMP JUMPDEST DUP1 PUSH1 0x1F ADD PUSH1 0x20 DUP1 SWAP2 DIV MUL PUSH1 0x20 ADD PUSH1 0x40 MLOAD SWAP1 DUP2 ADD PUSH1 0x40 MSTORE DUP1 SWAP3 SWAP2 SWAP1 DUP2 DUP2 MSTORE PUSH1 0x20 ADD DUP3 DUP1 SLOAD PUSH2 0xDD1 SWAP1 PUSH2 0x1B4D JUMP JUMPDEST DUP1 ISZERO PUSH2 0xE1C JUMPI DUP1 PUSH1 0x1F LT PUSH2 0xDF3 JUMPI PUSH2 0x100 DUP1 DUP4 SLOAD DIV MUL DUP4 MSTORE SWAP2 PUSH1 0x20 ADD SWAP2 PUSH2 0xE1C JUMP JUMPDEST DUP3 ADD SWAP2 SWAP1 PUSH0 MSTORE PUSH1 0x20 PUSH0 KECCAK256 SWAP1 JUMPDEST DUP2 SLOAD DUP2 MSTORE SWAP1 PUSH1 0x1 ADD SWAP1 PUSH1 0x20 ADD DUP1 DUP4 GT PUSH2 0xDFF JUMPI DUP3 SWAP1 SUB PUSH1 0x1F AND DUP3 ADD SWAP2 JUMPDEST POP POP POP POP POP SWAP1 DUP1 PUSH1 0x1 ADD DUP1 SLOAD PUSH2 0xE31 SWAP1 PUSH2 0x1B4D JUMP JUMPDEST DUP1 PUSH1 0x1F ADD PUSH1 0x20 DUP1 SWAP2 DIV MUL PUSH1 0x20 ADD PUSH1 0x40 MLOAD SWAP1 DUP2 ADD PUSH1 0x40 MSTORE DUP1 SWAP3 SWAP2 SWAP1 DUP2 DUP2 MSTORE PUSH1 0x20 ADD DUP3 DUP1 SLOAD PUSH2 0xE5D SWAP1 PUSH2 0x1B4D JUMP JUMPDEST DUP1 ISZERO PUSH2 0xEA8 JUMPI DUP1 PUSH1 0x1F LT PUSH2 0xE7F JUMPI PUSH2 0x100 DUP1 DUP4 SLOAD DIV MUL DUP4 MSTORE SWAP2 PUSH1 0x20 ADD SWAP2 PUSH2 0xEA8 JUMP JUMPDEST DUP3 ADD SWAP2 SWAP1 PUSH0 MSTORE PUSH1 0x20 PUSH0 KECCAK256 SWAP1 JUMPDEST DUP2 SLOAD DUP2 MSTORE SWAP1 PUSH1 0x1 ADD SWAP1 PUSH1 0x20 ADD DUP1 DUP4 GT PUSH2 0xE8B JUMPI DUP3 SWAP1 SUB PUSH1 0x1F AND DUP3 ADD SWAP2 JUMPDEST POP POP POP POP POP SWAP1 DUP1 PUSH1 0x2 ADD SLOAD SWAP1 DUP1 PUSH1 0x3 ADD PUSH0 SWAP1 SLOAD SWAP1 PUSH2 0x100 EXP SWAP1 DIV PUSH20 0xFFFFFFFFFFFFFFFFFFFFFFFFFFFFFFFFFFFFFFFF AND SWAP1 DUP1 PUSH1 0x4 ADD SLOAD SWAP1 POP DUP6 JUMP JUMPDEST PUSH0 DUP1 SLOAD SWAP1 PUSH2 0x100 EXP SWAP1 DIV PUSH20 0xFFFFFFFFFFFFFFFFFFFFFFFFFFFFFFFFFFFFFFFF AND PUSH20 0xFFFFFFFFFFFFFFFFFFFFFFFFFFFFFFFFFFFFFFFF AND CALLER PUSH20 0xFFFFFFFFFFFFFFFFFFFFFFFFFFFFFFFFFFFFFFFF AND EQ PUSH2 0xF70 JUMPI PUSH1 0x40 MLOAD PUSH32 0x8C379A000000000000000000000000000000000000000000000000000000000 DUP2 MSTORE PUSH1 0x4 ADD PUSH2 0xF67 SWAP1 PUSH2 0x1B02 JUMP JUMPDEST PUSH1 0x40 MLOAD DUP1 SWAP2 SUB SWAP1 REVERT JUMPDEST PUSH0 PUSH20 0xFFFFFFFFFFFFFFFFFFFFFFFFFFFFFFFFFFFFFFFF AND PUSH1 0x1 PUSH0 DUP4 DUP2 MSTORE PUSH1 0x20 ADD SWAP1 DUP2 MSTORE PUSH1 0x20 ADD PUSH0 KECCAK256 PUSH1 0x3 ADD PUSH0 SWAP1 SLOAD SWAP1 PUSH2 0x100 EXP SWAP1 DIV PUSH20 0xFFFFFFFFFFFFFFFFFFFFFFFFFFFFFFFFFFFFFFFF AND PUSH20 0xFFFFFFFFFFFFFFFFFFFFFFFFFFFFFFFFFFFFFFFF AND EQ PUSH2 0x1011 JUMPI PUSH1 0x40 MLOAD PUSH32 0x8C379A000000000000000000000000000000000000000000000000000000000 DUP2 MSTORE PUSH1 0x4 ADD PUSH2 0x1008 SWAP1 PUSH2 0x1FAD JUMP JUMPDEST PUSH1 0x40 MLOAD DUP1 SWAP2 SUB SWAP1 REVERT JUMPDEST PUSH1 0x1 PUSH0 DUP3 DUP2 MSTORE PUSH1 0x20 ADD SWAP1 DUP2 MSTORE PUSH1 0x20 ADD PUSH0 KECCAK256 PUSH0 DUP1 DUP3 ADD PUSH0 PUSH2 0x1031 SWAP2 SWAP1 PUSH2 0x121D JUMP JUMPDEST PUSH1 0x1 DUP3 ADD PUSH0 PUSH2 0x1040 SWAP2 SWAP1 PUSH2 0x121D JUMP JUMPDEST PUSH1 0x2 DUP3 ADD PUSH0 SWAP1 SSTORE PUSH1 0x3 DUP3 ADD PUSH0 PUSH2 0x100 EXP DUP2 SLOAD SWAP1 PUSH20 0xFFFFFFFFFFFFFFFFFFFFFFFFFFFFFFFFFFFFFFFF MUL NOT AND SWAP1 SSTORE PUSH1 0x4 DUP3 ADD PUSH0 SWAP1 SSTORE POP POP PUSH1 0x3 PUSH0 DUP2 SLOAD DUP1 SWAP3 SWAP2 SWAP1 PUSH2 0x1088 SWAP1 PUSH2 0x1FCB JUMP JUMPDEST SWAP2 SWAP1 POP SSTORE POP POP JUMP JUMPDEST PUSH1 0x60 DUP1 PUSH0 DUP1 PUSH0 DUP1 PUSH1 0x1 PUSH0 DUP9 DUP2 MSTORE PUSH1 0x20 ADD SWAP1 DUP2 MSTORE PUSH1 0x20 ADD PUSH0 KECCAK256 SWAP1 POP DUP1 PUSH0 ADD DUP2 PUSH1 0x1 ADD DUP3 PUSH1 0x2 ADD SLOAD DUP4 PUSH1 0x3 ADD PUSH0 SWAP1 SLOAD SWAP1 PUSH2 0x100 EXP SWAP1 DIV PUSH20 0xFFFFFFFFFFFFFFFFFFFFFFFFFFFFFFFFFFFFFFFF AND DUP5 PUSH1 0x4 ADD SLOAD DUP5 DUP1 SLOAD PUSH2 0x10EB SWAP1 PUSH2 0x1B4D JUMP JUMPDEST DUP1 PUSH1 0x1F ADD PUSH1 0x20 DUP1 SWAP2 DIV MUL PUSH1 0x20 ADD PUSH1 0x40 MLOAD SWAP1 DUP2 ADD PUSH1 0x40 MSTORE DUP1 SWAP3 SWAP2 SWAP1 DUP2 DUP2 MSTORE PUSH1 0x20 ADD DUP3 DUP1 SLOAD PUSH2 0x1117 SWAP1 PUSH2 0x1B4D JUMP JUMPDEST DUP1 ISZERO PUSH2 0x1162 JUMPI DUP1 PUSH1 0x1F LT PUSH2 0x1139 JUMPI PUSH2 0x100 DUP1 DUP4 SLOAD DIV MUL DUP4 MSTORE SWAP2 PUSH1 0x20 ADD SWAP2 PUSH2 0x1162 JUMP JUMPDEST DUP3 ADD SWAP2 SWAP1 PUSH0 MSTORE PUSH1 0x20 PUSH0 KECCAK256 SWAP1 JUMPDEST DUP2 SLOAD DUP2 MSTORE SWAP1 PUSH1 0x1 ADD SWAP1 PUSH1 0x20 ADD DUP1 DUP4 GT PUSH2 0x1145 JUMPI DUP3 SWAP1 SUB PUSH1 0x1F AND DUP3 ADD SWAP2 JUMPDEST POP POP POP POP POP SWAP5 POP DUP4 DUP1 SLOAD PUSH2 0x1175 SWAP1 PUSH2 0x1B4D JUMP JUMPDEST DUP1 PUSH1 0x1F ADD PUSH1 0x20 DUP1 SWAP2 DIV MUL PUSH1 0x20 ADD PUSH1 0x40 MLOAD SWAP1 DUP2 ADD PUSH1 0x40 MSTORE DUP1 SWAP3 SWAP2 SWAP1 DUP2 DUP2 MSTORE PUSH1 0x20 ADD DUP3 DUP1 SLOAD PUSH2 0x11A1 SWAP1 PUSH2 0x1B4D JUMP JUMPDEST DUP1 ISZERO PUSH2 0x11EC JUMPI DUP1 PUSH1 0x1F LT PUSH2 0x11C3 JUMPI PUSH2 0x100 DUP1 DUP4 SLOAD DIV MUL DUP4 MSTORE SWAP2 PUSH1 0x20 ADD SWAP2 PUSH2 0x11EC JUMP JUMPDEST DUP3 ADD SWAP2 SWAP1 PUSH0 MSTORE PUSH1 0x20 PUSH0 KECCAK256 SWAP1 JUMPDEST DUP2 SLOAD DUP2 MSTORE SWAP1 PUSH1 0x1 ADD SWAP1 PUSH1 0x20 ADD DUP1 DUP4 GT PUSH2 0x11CF JUMPI DUP3 SWAP1 SUB PUSH1 0x1F AND DUP3 ADD SWAP2 JUMPDEST POP POP POP POP POP SWAP4 POP SWAP6 POP SWAP6 POP SWAP6 POP SWAP6 POP SWAP6 POP POP SWAP2 SWAP4 SWAP6 SWAP1 SWAP3 SWAP5 POP JUMP JUMPDEST PUSH0 PUSH1 0x4 SLOAD DUP3 PUSH2 0x1216 SWAP2 SWAP1 PUSH2 0x1FF2 JUMP JUMPDEST SWAP1 POP SWAP2 SWAP1 POP JUMP JUMPDEST POP DUP1 SLOAD PUSH2 0x1229 SWAP1 PUSH2 0x1B4D JUMP JUMPDEST PUSH0 DUP3 SSTORE DUP1 PUSH1 0x1F LT PUSH2 0x123A JUMPI POP PUSH2 0x1257 JUMP JUMPDEST PUSH1 0x1F ADD PUSH1 0x20 SWAP1 DIV SWAP1 PUSH0 MSTORE PUSH1 0x20 PUSH0 KECCAK256 SWAP1 DUP2 ADD SWAP1 PUSH2 0x1256 SWAP2 SWAP1 PUSH2 0x125A JUMP JUMPDEST JUMPDEST POP JUMP JUMPDEST JUMPDEST DUP1 DUP3 GT ISZERO PUSH2 0x1271 JUMPI PUSH0 DUP2 PUSH0 SWAP1 SSTORE POP PUSH1 0x1 ADD PUSH2 0x125B JUMP JUMPDEST POP SWAP1 JUMP JUMPDEST PUSH0 PUSH1 0x40 MLOAD SWAP1 POP SWAP1 JUMP JUMPDEST PUSH0 DUP1 REVERT JUMPDEST PUSH0 DUP1 REVERT JUMPDEST PUSH0 DUP2 SWAP1 POP SWAP2 SWAP1 POP JUMP JUMPDEST PUSH2 0x1298 DUP2 PUSH2 0x1286 JUMP JUMPDEST DUP2 EQ PUSH2 0x12A2 JUMPI PUSH0 DUP1 REVERT JUMPDEST POP JUMP JUMPDEST PUSH0 DUP2 CALLDATALOAD SWAP1 POP PUSH2 0x12B3 DUP2 PUSH2 0x128F JUMP JUMPDEST SWAP3 SWAP2 POP POP JUMP JUMPDEST PUSH0 PUSH1 0x20 DUP3 DUP5 SUB SLT ISZERO PUSH2 0x12CE JUMPI PUSH2 0x12CD PUSH2 0x127E JUMP JUMPDEST JUMPDEST PUSH0 PUSH2 0x12DB DUP5 DUP3 DUP6 ADD PUSH2 0x12A5 JUMP JUMPDEST SWAP2 POP POP SWAP3 SWAP2 POP POP JUMP JUMPDEST PUSH0 PUSH20 0xFFFFFFFFFFFFFFFFFFFFFFFFFFFFFFFFFFFFFFFF DUP3 AND SWAP1 POP SWAP2 SWAP1 POP JUMP JUMPDEST PUSH0 PUSH2 0x130D DUP3 PUSH2 0x12E4 JUMP JUMPDEST SWAP1 POP SWAP2 SWAP1 POP JUMP JUMPDEST PUSH2 0x131D DUP2 PUSH2 0x1303 JUMP JUMPDEST DUP2 EQ PUSH2 0x1327 JUMPI PUSH0 DUP1 REVERT JUMPDEST POP JUMP JUMPDEST PUSH0 DUP2 CALLDATALOAD SWAP1 POP PUSH2 0x1338 DUP2 PUSH2 0x1314 JUMP JUMPDEST SWAP3 SWAP2 POP POP JUMP JUMPDEST PUSH0 DUP1 PUSH1 0x40 DUP4 DUP6 SUB SLT ISZERO PUSH2 0x1354 JUMPI PUSH2 0x1353 PUSH2 0x127E JUMP JUMPDEST JUMPDEST PUSH0 PUSH2 0x1361 DUP6 DUP3 DUP7 ADD PUSH2 0x132A JUMP JUMPDEST SWAP3 POP POP PUSH1 0x20 PUSH2 0x1372 DUP6 DUP3 DUP7 ADD PUSH2 0x12A5 JUMP JUMPDEST SWAP2 POP POP SWAP3 POP SWAP3 SWAP1 POP JUMP JUMPDEST PUSH2 0x1385 DUP2 PUSH2 0x1286 JUMP JUMPDEST DUP3 MSTORE POP POP JUMP JUMPDEST PUSH0 PUSH1 0x80 DUP3 ADD SWAP1 POP PUSH2 0x139E PUSH0 DUP4 ADD DUP8 PUSH2 0x137C JUMP JUMPDEST PUSH2 0x13AB PUSH1 0x20 DUP4 ADD DUP7 PUSH2 0x137C JUMP JUMPDEST PUSH2 0x13B8 PUSH1 0x40 DUP4 ADD DUP6 PUSH2 0x137C JUMP JUMPDEST PUSH2 0x13C5 PUSH1 0x60 DUP4 ADD DUP5 PUSH2 0x137C JUMP JUMPDEST SWAP6 SWAP5 POP POP POP POP POP JUMP JUMPDEST PUSH0 DUP2 MLOAD SWAP1 POP SWAP2 SWAP1 POP JUMP JUMPDEST PUSH0 DUP3 DUP3 MSTORE PUSH1 0x20 DUP3 ADD SWAP1 POP SWAP3 SWAP2 POP POP JUMP JUMPDEST PUSH0 DUP2 SWAP1 POP PUSH1 0x20 DUP3 ADD SWAP1 POP SWAP2 SWAP1 POP JUMP JUMPDEST PUSH2 0x1400 DUP2 PUSH2 0x1286 JUMP JUMPDEST DUP3 MSTORE POP POP JUMP JUMPDEST PUSH1 0x80 DUP3 ADD PUSH0 DUP3 ADD MLOAD PUSH2 0x141A PUSH0 DUP6 ADD DUP3 PUSH2 0x13F7 JUMP JUMPDEST POP PUSH1 0x20 DUP3 ADD MLOAD PUSH2 0x142D PUSH1 0x20 DUP6 ADD DUP3 PUSH2 0x13F7 JUMP JUMPDEST POP PUSH1 0x40 DUP3 ADD MLOAD PUSH2 0x1440 PUSH1 0x40 DUP6 ADD DUP3 PUSH2 0x13F7 JUMP JUMPDEST POP PUSH1 0x60 DUP3 ADD MLOAD PUSH2 0x1453 PUSH1 0x60 DUP6 ADD DUP3 PUSH2 0x13F7 JUMP JUMPDEST POP POP POP POP JUMP JUMPDEST PUSH0 PUSH2 0x1464 DUP4 DUP4 PUSH2 0x1406 JUMP JUMPDEST PUSH1 0x80 DUP4 ADD SWAP1 POP SWAP3 SWAP2 POP POP JUMP JUMPDEST PUSH0 PUSH1 0x20 DUP3 ADD SWAP1 POP SWAP2 SWAP1 POP JUMP JUMPDEST PUSH0 PUSH2 0x1486 DUP3 PUSH2 0x13CE JUMP JUMPDEST PUSH2 0x1490 DUP2 DUP6 PUSH2 0x13D8 JUMP JUMPDEST SWAP4 POP PUSH2 0x149B DUP4 PUSH2 0x13E8 JUMP JUMPDEST DUP1 PUSH0 JUMPDEST DUP4 DUP2 LT ISZERO PUSH2 0x14CB JUMPI DUP2 MLOAD PUSH2 0x14B2 DUP9 DUP3 PUSH2 0x1459 JUMP JUMPDEST SWAP8 POP PUSH2 0x14BD DUP4 PUSH2 0x1470 JUMP JUMPDEST SWAP3 POP POP PUSH1 0x1 DUP2 ADD SWAP1 POP PUSH2 0x149E JUMP JUMPDEST POP DUP6 SWAP4 POP POP POP POP SWAP3 SWAP2 POP POP JUMP JUMPDEST PUSH0 PUSH1 0x20 DUP3 ADD SWAP1 POP DUP2 DUP2 SUB PUSH0 DUP4 ADD MSTORE PUSH2 0x14F0 DUP2 DUP5 PUSH2 0x147C JUMP JUMPDEST SWAP1 POP SWAP3 SWAP2 POP POP JUMP JUMPDEST PUSH0 DUP2 MLOAD SWAP1 POP SWAP2 SWAP1 POP JUMP JUMPDEST PUSH0 DUP3 DUP3 MSTORE PUSH1 0x20 DUP3 ADD SWAP1 POP SWAP3 SWAP2 POP POP JUMP JUMPDEST PUSH0 DUP2 SWAP1 POP PUSH1 0x20 DUP3 ADD SWAP1 POP SWAP2 SWAP1 POP JUMP JUMPDEST PUSH0 PUSH2 0x152C DUP4 DUP4 PUSH2 0x13F7 JUMP JUMPDEST PUSH1 0x20 DUP4 ADD SWAP1 POP SWAP3 SWAP2 POP POP JUMP JUMPDEST PUSH0 PUSH1 0x20 DUP3 ADD SWAP1 POP SWAP2 SWAP1 POP JUMP JUMPDEST PUSH0 PUSH2 0x154E DUP3 PUSH2 0x14F8 JUMP JUMPDEST PUSH2 0x1558 DUP2 DUP6 PUSH2 0x1502 JUMP JUMPDEST SWAP4 POP PUSH2 0x1563 DUP4 PUSH2 0x1512 JUMP JUMPDEST DUP1 PUSH0 JUMPDEST DUP4 DUP2 LT ISZERO PUSH2 0x1593 JUMPI DUP2 MLOAD PUSH2 0x157A DUP9 DUP3 PUSH2 0x1521 JUMP JUMPDEST SWAP8 POP PUSH2 0x1585 DUP4 PUSH2 0x1538 JUMP JUMPDEST SWAP3 POP POP PUSH1 0x1 DUP2 ADD SWAP1 POP PUSH2 0x1566 JUMP JUMPDEST POP DUP6 SWAP4 POP POP POP POP SWAP3 SWAP2 POP POP JUMP JUMPDEST PUSH0 PUSH1 0x20 DUP3 ADD SWAP1 POP DUP2 DUP2 SUB PUSH0 DUP4 ADD MSTORE PUSH2 0x15B8 DUP2 DUP5 PUSH2 0x1544 JUMP JUMPDEST SWAP1 POP SWAP3 SWAP2 POP POP JUMP JUMPDEST PUSH0 PUSH1 0x20 DUP3 ADD SWAP1 POP PUSH2 0x15D3 PUSH0 DUP4 ADD DUP5 PUSH2 0x137C JUMP JUMPDEST SWAP3 SWAP2 POP POP JUMP JUMPDEST PUSH2 0x15E2 DUP2 PUSH2 0x1303 JUMP JUMPDEST DUP3 MSTORE POP POP JUMP JUMPDEST PUSH0 PUSH1 0x20 DUP3 ADD SWAP1 POP PUSH2 0x15FB PUSH0 DUP4 ADD DUP5 PUSH2 0x15D9 JUMP JUMPDEST SWAP3 SWAP2 POP POP JUMP JUMPDEST PUSH0 DUP1 REVERT JUMPDEST PUSH0 DUP1 REVERT JUMPDEST PUSH0 PUSH1 0x1F NOT PUSH1 0x1F DUP4 ADD AND SWAP1 POP SWAP2 SWAP1 POP JUMP JUMPDEST PUSH32 0x4E487B7100000000000000000000000000000000000000000000000000000000 PUSH0 MSTORE PUSH1 0x41 PUSH1 0x4 MSTORE PUSH1 0x24 PUSH0 REVERT JUMPDEST PUSH2 0x164F DUP3 PUSH2 0x1609 JUMP JUMPDEST DUP2 ADD DUP2 DUP2 LT PUSH8 0xFFFFFFFFFFFFFFFF DUP3 GT OR ISZERO PUSH2 0x166E JUMPI PUSH2 0x166D PUSH2 0x1619 JUMP JUMPDEST JUMPDEST DUP1 PUSH1 0x40 MSTORE POP POP POP JUMP JUMPDEST PUSH0 PUSH2 0x1680 PUSH2 0x1275 JUMP JUMPDEST SWAP1 POP PUSH2 0x168C DUP3 DUP3 PUSH2 0x1646 JUMP JUMPDEST SWAP2 SWAP1 POP JUMP JUMPDEST PUSH0 PUSH8 0xFFFFFFFFFFFFFFFF DUP3 GT ISZERO PUSH2 0x16AB JUMPI PUSH2 0x16AA PUSH2 0x1619 JUMP JUMPDEST JUMPDEST PUSH2 0x16B4 DUP3 PUSH2 0x1609 JUMP JUMPDEST SWAP1 POP PUSH1 0x20 DUP2 ADD SWAP1 POP SWAP2 SWAP1 POP JUMP JUMPDEST DUP3 DUP2 DUP4 CALLDATACOPY PUSH0 DUP4 DUP4 ADD MSTORE POP POP POP JUMP JUMPDEST PUSH0 PUSH2 0x16E1 PUSH2 0x16DC DUP5 PUSH2 0x1691 JUMP JUMPDEST PUSH2 0x1677 JUMP JUMPDEST SWAP1 POP DUP3 DUP2 MSTORE PUSH1 0x20 DUP2 ADD DUP5 DUP5 DUP5 ADD GT ISZERO PUSH2 0x16FD JUMPI PUSH2 0x16FC PUSH2 0x1605 JUMP JUMPDEST JUMPDEST PUSH2 0x1708 DUP5 DUP3 DUP6 PUSH2 0x16C1 JUMP JUMPDEST POP SWAP4 SWAP3 POP POP POP JUMP JUMPDEST PUSH0 DUP3 PUSH1 0x1F DUP4 ADD SLT PUSH2 0x1724 JUMPI PUSH2 0x1723 PUSH2 0x1601 JUMP JUMPDEST JUMPDEST DUP2 CALLDATALOAD PUSH2 0x1734 DUP5 DUP3 PUSH1 0x20 DUP7 ADD PUSH2 0x16CF JUMP JUMPDEST SWAP2 POP POP SWAP3 SWAP2 POP POP JUMP JUMPDEST PUSH0 DUP1 PUSH0 PUSH1 0x60 DUP5 DUP7 SUB SLT ISZERO PUSH2 0x1754 JUMPI PUSH2 0x1753 PUSH2 0x127E JUMP JUMPDEST JUMPDEST PUSH0 DUP5 ADD CALLDATALOAD PUSH8 0xFFFFFFFFFFFFFFFF DUP2 GT ISZERO PUSH2 0x1771 JUMPI PUSH2 0x1770 PUSH2 0x1282 JUMP JUMPDEST JUMPDEST PUSH2 0x177D DUP7 DUP3 DUP8 ADD PUSH2 0x1710 JUMP JUMPDEST SWAP4 POP POP PUSH1 0x20 DUP5 ADD CALLDATALOAD PUSH8 0xFFFFFFFFFFFFFFFF DUP2 GT ISZERO PUSH2 0x179E JUMPI PUSH2 0x179D PUSH2 0x1282 JUMP JUMPDEST JUMPDEST PUSH2 0x17AA DUP7 DUP3 DUP8 ADD PUSH2 0x1710 JUMP JUMPDEST SWAP3 POP POP PUSH1 0x40 PUSH2 0x17BB DUP7 DUP3 DUP8 ADD PUSH2 0x12A5 JUMP JUMPDEST SWAP2 POP POP SWAP3 POP SWAP3 POP SWAP3 JUMP JUMPDEST PUSH0 DUP2 MLOAD SWAP1 POP SWAP2 SWAP1 POP JUMP JUMPDEST PUSH0 DUP3 DUP3 MSTORE PUSH1 0x20 DUP3 ADD SWAP1 POP SWAP3 SWAP2 POP POP JUMP JUMPDEST DUP3 DUP2 DUP4 MCOPY PUSH0 DUP4 DUP4 ADD MSTORE POP POP POP JUMP JUMPDEST PUSH0 PUSH2 0x17F7 DUP3 PUSH2 0x17C5 JUMP JUMPDEST PUSH2 0x1801 DUP2 DUP6 PUSH2 0x17CF JUMP JUMPDEST SWAP4 POP PUSH2 0x1811 DUP2 DUP6 PUSH1 0x20 DUP7 ADD PUSH2 0x17DF JUMP JUMPDEST PUSH2 0x181A DUP2 PUSH2 0x1609 JUMP JUMPDEST DUP5 ADD SWAP2 POP POP SWAP3 SWAP2 POP POP JUMP JUMPDEST PUSH0 PUSH1 0xA0 DUP3 ADD SWAP1 POP DUP2 DUP2 SUB PUSH0 DUP4 ADD MSTORE PUSH2 0x183D DUP2 DUP9 PUSH2 0x17ED JUMP JUMPDEST SWAP1 POP DUP2 DUP2 SUB PUSH1 0x20 DUP4 ADD MSTORE PUSH2 0x1851 DUP2 DUP8 PUSH2 0x17ED JUMP JUMPDEST SWAP1 POP PUSH2 0x1860 PUSH1 0x40 DUP4 ADD DUP7 PUSH2 0x137C JUMP JUMPDEST PUSH2 0x186D PUSH1 0x60 DUP4 ADD DUP6 PUSH2 0x15D9 JUMP JUMPDEST PUSH2 0x187A PUSH1 0x80 DUP4 ADD DUP5 PUSH2 0x137C JUMP JUMPDEST SWAP7 SWAP6 POP POP POP POP POP POP JUMP JUMPDEST PUSH32 0x496E76616C696420706574204944000000000000000000000000000000000000 PUSH0 DUP3 ADD MSTORE POP JUMP JUMPDEST PUSH0 PUSH2 0x18B8 PUSH1 0xE DUP4 PUSH2 0x17CF JUMP JUMPDEST SWAP2 POP PUSH2 0x18C3 DUP3 PUSH2 0x1884 JUMP JUMPDEST PUSH1 0x20 DUP3 ADD SWAP1 POP SWAP2 SWAP1 POP JUMP JUMPDEST PUSH0 PUSH1 0x20 DUP3 ADD SWAP1 POP DUP2 DUP2 SUB PUSH0 DUP4 ADD MSTORE PUSH2 0x18E5 DUP2 PUSH2 0x18AC JUMP JUMPDEST SWAP1 POP SWAP2 SWAP1 POP JUMP JUMPDEST PUSH32 0x50657420697320616C72656164792061646F7074656400000000000000000000 PUSH0 DUP3 ADD MSTORE POP JUMP JUMPDEST PUSH0 PUSH2 0x1920 PUSH1 0x16 DUP4 PUSH2 0x17CF JUMP JUMPDEST SWAP2 POP PUSH2 0x192B DUP3 PUSH2 0x18EC JUMP JUMPDEST PUSH1 0x20 DUP3 ADD SWAP1 POP SWAP2 SWAP1 POP JUMP JUMPDEST PUSH0 PUSH1 0x20 DUP3 ADD SWAP1 POP DUP2 DUP2 SUB PUSH0 DUP4 ADD MSTORE PUSH2 0x194D DUP2 PUSH2 0x1914 JUMP JUMPDEST SWAP1 POP SWAP2 SWAP1 POP JUMP JUMPDEST PUSH32 0x496E73756666696369656E742066656520666F722061646F7074696F6E000000 PUSH0 DUP3 ADD MSTORE POP JUMP JUMPDEST PUSH0 PUSH2 0x1988 PUSH1 0x1D DUP4 PUSH2 0x17CF JUMP JUMPDEST SWAP2 POP PUSH2 0x1993 DUP3 PUSH2 0x1954 JUMP JUMPDEST PUSH1 0x20 DUP3 ADD SWAP1 POP SWAP2 SWAP1 POP JUMP JUMPDEST PUSH0 PUSH1 0x20 DUP3 ADD SWAP1 POP DUP2 DUP2 SUB PUSH0 DUP4 ADD MSTORE PUSH2 0x19B5 DUP2 PUSH2 0x197C JUMP JUMPDEST SWAP1 POP SWAP2 SWAP1 POP JUMP JUMPDEST PUSH0 PUSH1 0x60 DUP3 ADD SWAP1 POP PUSH2 0x19CF PUSH0 DUP4 ADD DUP7 PUSH2 0x137C JUMP JUMPDEST PUSH2 0x19DC PUSH1 0x20 DUP4 ADD DUP6 PUSH2 0x15D9 JUMP JUMPDEST PUSH2 0x19E9 PUSH1 0x40 DUP4 ADD DUP5 PUSH2 0x137C JUMP JUMPDEST SWAP5 SWAP4 POP POP POP POP JUMP JUMPDEST PUSH32 0x4E487B7100000000000000000000000000000000000000000000000000000000 PUSH0 MSTORE PUSH1 0x11 PUSH1 0x4 MSTORE PUSH1 0x24 PUSH0 REVERT JUMPDEST PUSH0 PUSH2 0x1A28 DUP3 PUSH2 0x1286 JUMP JUMPDEST SWAP2 POP PUSH32 0xFFFFFFFFFFFFFFFFFFFFFFFFFFFFFFFFFFFFFFFFFFFFFFFFFFFFFFFFFFFFFFFF DUP3 SUB PUSH2 0x1A5A JUMPI PUSH2 0x1A59 PUSH2 0x19F1 JUMP JUMPDEST JUMPDEST PUSH1 0x1 DUP3 ADD SWAP1 POP SWAP2 SWAP1 POP JUMP JUMPDEST PUSH32 0x4E487B7100000000000000000000000000000000000000000000000000000000 PUSH0 MSTORE PUSH1 0x32 PUSH1 0x4 MSTORE PUSH1 0x24 PUSH0 REVERT JUMPDEST PUSH32 0x4F6E6C79206F776E65722063616E2063616C6C20746869732066756E6374696F PUSH0 DUP3 ADD MSTORE PUSH32 0x6E00000000000000000000000000000000000000000000000000000000000000 PUSH1 0x20 DUP3 ADD MSTORE POP JUMP JUMPDEST PUSH0 PUSH2 0x1AEC PUSH1 0x21 DUP4 PUSH2 0x17CF JUMP JUMPDEST SWAP2 POP PUSH2 0x1AF7 DUP3 PUSH2 0x1A92 JUMP JUMPDEST PUSH1 0x40 DUP3 ADD SWAP1 POP SWAP2 SWAP1 POP JUMP JUMPDEST PUSH0 PUSH1 0x20 DUP3 ADD SWAP1 POP DUP2 DUP2 SUB PUSH0 DUP4 ADD MSTORE PUSH2 0x1B19 DUP2 PUSH2 0x1AE0 JUMP JUMPDEST SWAP1 POP SWAP2 SWAP1 POP JUMP JUMPDEST PUSH32 0x4E487B7100000000000000000000000000000000000000000000000000000000 PUSH0 MSTORE PUSH1 0x22 PUSH1 0x4 MSTORE PUSH1 0x24 PUSH0 REVERT JUMPDEST PUSH0 PUSH1 0x2 DUP3 DIV SWAP1 POP PUSH1 0x1 DUP3 AND DUP1 PUSH2 0x1B64 JUMPI PUSH1 0x7F DUP3 AND SWAP2 POP JUMPDEST PUSH1 0x20 DUP3 LT DUP2 SUB PUSH2 0x1B77 JUMPI PUSH2 0x1B76 PUSH2 0x1B20 JUMP JUMPDEST JUMPDEST POP SWAP2 SWAP1 POP JUMP JUMPDEST PUSH0 DUP2 SWAP1 POP DUP2 PUSH0 MSTORE PUSH1 0x20 PUSH0 KECCAK256 SWAP1 POP SWAP2 SWAP1 POP JUMP JUMPDEST PUSH0 PUSH1 0x20 PUSH1 0x1F DUP4 ADD DIV SWAP1 POP SWAP2 SWAP1 POP JUMP JUMPDEST PUSH0 DUP3 DUP3 SHL SWAP1 POP SWAP3 SWAP2 POP POP JUMP JUMPDEST PUSH0 PUSH1 0x8 DUP4 MUL PUSH2 0x1BD9 PUSH32 0xFFFFFFFFFFFFFFFFFFFFFFFFFFFFFFFFFFFFFFFFFFFFFFFFFFFFFFFFFFFFFFFF DUP3 PUSH2 0x1B9E JUMP JUMPDEST PUSH2 0x1BE3 DUP7 DUP4 PUSH2 0x1B9E JUMP JUMPDEST SWAP6 POP DUP1 NOT DUP5 AND SWAP4 POP DUP1 DUP7 AND DUP5 OR SWAP3 POP POP POP SWAP4 SWAP3 POP POP POP JUMP JUMPDEST PUSH0 DUP2 SWAP1 POP SWAP2 SWAP1 POP JUMP JUMPDEST PUSH0 PUSH2 0x1C1E PUSH2 0x1C19 PUSH2 0x1C14 DUP5 PUSH2 0x1286 JUMP JUMPDEST PUSH2 0x1BFB JUMP JUMPDEST PUSH2 0x1286 JUMP JUMPDEST SWAP1 POP SWAP2 SWAP1 POP JUMP JUMPDEST PUSH0 DUP2 SWAP1 POP SWAP2 SWAP1 POP JUMP JUMPDEST PUSH2 0x1C37 DUP4 PUSH2 0x1C04 JUMP JUMPDEST PUSH2 0x1C4B PUSH2 0x1C43 DUP3 PUSH2 0x1C25 JUMP JUMPDEST DUP5 DUP5 SLOAD PUSH2 0x1BAA JUMP JUMPDEST DUP3 SSTORE POP POP POP POP JUMP JUMPDEST PUSH0 SWAP1 JUMP JUMPDEST PUSH2 0x1C5F PUSH2 0x1C53 JUMP JUMPDEST PUSH2 0x1C6A DUP2 DUP5 DUP5 PUSH2 0x1C2E JUMP JUMPDEST POP POP POP JUMP JUMPDEST JUMPDEST DUP2 DUP2 LT ISZERO PUSH2 0x1C8D JUMPI PUSH2 0x1C82 PUSH0 DUP3 PUSH2 0x1C57 JUMP JUMPDEST PUSH1 0x1 DUP2 ADD SWAP1 POP PUSH2 0x1C70 JUMP JUMPDEST POP POP JUMP JUMPDEST PUSH1 0x1F DUP3 GT ISZERO PUSH2 0x1CD2 JUMPI PUSH2 0x1CA3 DUP2 PUSH2 0x1B7D JUMP JUMPDEST PUSH2 0x1CAC DUP5 PUSH2 0x1B8F JUMP JUMPDEST DUP2 ADD PUSH1 0x20 DUP6 LT ISZERO PUSH2 0x1CBB JUMPI DUP2 SWAP1 POP JUMPDEST PUSH2 0x1CCF PUSH2 0x1CC7 DUP6 PUSH2 0x1B8F JUMP JUMPDEST DUP4 ADD DUP3 PUSH2 0x1C6F JUMP JUMPDEST POP POP JUMPDEST POP POP POP JUMP JUMPDEST PUSH0 DUP3 DUP3 SHR SWAP1 POP SWAP3 SWAP2 POP POP JUMP JUMPDEST PUSH0 PUSH2 0x1CF2 PUSH0 NOT DUP5 PUSH1 0x8 MUL PUSH2 0x1CD7 JUMP JUMPDEST NOT DUP1 DUP4 AND SWAP2 POP POP SWAP3 SWAP2 POP POP JUMP JUMPDEST PUSH0 PUSH2 0x1D0A DUP4 DUP4 PUSH2 0x1CE3 JUMP JUMPDEST SWAP2 POP DUP3 PUSH1 0x2 MUL DUP3 OR SWAP1 POP SWAP3 SWAP2 POP POP JUMP JUMPDEST PUSH2 0x1D23 DUP3 PUSH2 0x17C5 JUMP JUMPDEST PUSH8 0xFFFFFFFFFFFFFFFF DUP2 GT ISZERO PUSH2 0x1D3C JUMPI PUSH2 0x1D3B PUSH2 0x1619 JUMP JUMPDEST JUMPDEST PUSH2 0x1D46 DUP3 SLOAD PUSH2 0x1B4D JUMP JUMPDEST PUSH2 0x1D51 DUP3 DUP3 DUP6 PUSH2 0x1C91 JUMP JUMPDEST PUSH0 PUSH1 0x20 SWAP1 POP PUSH1 0x1F DUP4 GT PUSH1 0x1 DUP2 EQ PUSH2 0x1D82 JUMPI PUSH0 DUP5 ISZERO PUSH2 0x1D70 JUMPI DUP3 DUP8 ADD MLOAD SWAP1 POP JUMPDEST PUSH2 0x1D7A DUP6 DUP3 PUSH2 0x1CFF JUMP JUMPDEST DUP7 SSTORE POP PUSH2 0x1DE1 JUMP JUMPDEST PUSH1 0x1F NOT DUP5 AND PUSH2 0x1D90 DUP7 PUSH2 0x1B7D JUMP JUMPDEST PUSH0 JUMPDEST DUP3 DUP2 LT ISZERO PUSH2 0x1DB7 JUMPI DUP5 DUP10 ADD MLOAD DUP3 SSTORE PUSH1 0x1 DUP3 ADD SWAP2 POP PUSH1 0x20 DUP6 ADD SWAP5 POP PUSH1 0x20 DUP2 ADD SWAP1 POP PUSH2 0x1D92 JUMP JUMPDEST DUP7 DUP4 LT ISZERO PUSH2 0x1DD4 JUMPI DUP5 DUP10 ADD MLOAD PUSH2 0x1DD0 PUSH1 0x1F DUP10 AND DUP3 PUSH2 0x1CE3 JUMP JUMPDEST DUP4 SSTORE POP JUMPDEST PUSH1 0x1 PUSH1 0x2 DUP9 MUL ADD DUP9 SSTORE POP POP POP JUMPDEST POP POP POP POP POP POP JUMP JUMPDEST PUSH32 0x4F6E6C792061646F707465722063616E2063616C6C20746869732066756E6374 PUSH0 DUP3 ADD MSTORE PUSH32 0x696F6E0000000000000000000000000000000000000000000000000000000000 PUSH1 0x20 DUP3 ADD MSTORE POP JUMP JUMPDEST PUSH0 PUSH2 0x1E43 PUSH1 0x23 DUP4 PUSH2 0x17CF JUMP JUMPDEST SWAP2 POP PUSH2 0x1E4E DUP3 PUSH2 0x1DE9 JUMP JUMPDEST PUSH1 0x40 DUP3 ADD SWAP1 POP SWAP2 SWAP1 POP JUMP JUMPDEST PUSH0 PUSH1 0x20 DUP3 ADD SWAP1 POP DUP2 DUP2 SUB PUSH0 DUP4 ADD MSTORE PUSH2 0x1E70 DUP2 PUSH2 0x1E37 JUMP JUMPDEST SWAP1 POP SWAP2 SWAP1 POP JUMP JUMPDEST PUSH32 0x506574206973206E6F742061646F707465640000000000000000000000000000 PUSH0 DUP3 ADD MSTORE POP JUMP JUMPDEST PUSH0 PUSH2 0x1EAB PUSH1 0x12 DUP4 PUSH2 0x17CF JUMP JUMPDEST SWAP2 POP PUSH2 0x1EB6 DUP3 PUSH2 0x1E77 JUMP JUMPDEST PUSH1 0x20 DUP3 ADD SWAP1 POP SWAP2 SWAP1 POP JUMP JUMPDEST PUSH0 PUSH1 0x20 DUP3 ADD SWAP1 POP DUP2 DUP2 SUB PUSH0 DUP4 ADD MSTORE PUSH2 0x1ED8 DUP2 PUSH2 0x1E9F JUMP JUMPDEST SWAP1 POP SWAP2 SWAP1 POP JUMP JUMPDEST PUSH0 PUSH2 0x1EE9 DUP3 PUSH2 0x1286 JUMP JUMPDEST SWAP2 POP PUSH2 0x1EF4 DUP4 PUSH2 0x1286 JUMP JUMPDEST SWAP3 POP DUP3 DUP3 SUB SWAP1 POP DUP2 DUP2 GT ISZERO PUSH2 0x1F0C JUMPI PUSH2 0x1F0B PUSH2 0x19F1 JUMP JUMPDEST JUMPDEST SWAP3 SWAP2 POP POP JUMP JUMPDEST PUSH0 PUSH1 0xA0 DUP3 ADD SWAP1 POP PUSH2 0x1F25 PUSH0 DUP4 ADD DUP9 PUSH2 0x137C JUMP JUMPDEST PUSH2 0x1F32 PUSH1 0x20 DUP4 ADD DUP8 PUSH2 0x15D9 JUMP JUMPDEST PUSH2 0x1F3F PUSH1 0x40 DUP4 ADD DUP7 PUSH2 0x137C JUMP JUMPDEST PUSH2 0x1F4C PUSH1 0x60 DUP4 ADD DUP6 PUSH2 0x137C JUMP JUMPDEST PUSH2 0x1F59 PUSH1 0x80 DUP4 ADD DUP5 PUSH2 0x137C JUMP JUMPDEST SWAP7 SWAP6 POP POP POP POP POP POP JUMP JUMPDEST PUSH32 0x43616E6E6F742064656C65746520616E2061646F707465642070657400000000 PUSH0 DUP3 ADD MSTORE POP JUMP JUMPDEST PUSH0 PUSH2 0x1F97 PUSH1 0x1C DUP4 PUSH2 0x17CF JUMP JUMPDEST SWAP2 POP PUSH2 0x1FA2 DUP3 PUSH2 0x1F63 JUMP JUMPDEST PUSH1 0x20 DUP3 ADD SWAP1 POP SWAP2 SWAP1 POP JUMP JUMPDEST PUSH0 PUSH1 0x20 DUP3 ADD SWAP1 POP DUP2 DUP2 SUB PUSH0 DUP4 ADD MSTORE PUSH2 0x1FC4 DUP2 PUSH2 0x1F8B JUMP JUMPDEST SWAP1 POP SWAP2 SWAP1 POP JUMP JUMPDEST PUSH0 PUSH2 0x1FD5 DUP3 PUSH2 0x1286 JUMP JUMPDEST SWAP2 POP PUSH0 DUP3 SUB PUSH2 0x1FE7 JUMPI PUSH2 0x1FE6 PUSH2 0x19F1 JUMP JUMPDEST JUMPDEST PUSH1 0x1 DUP3 SUB SWAP1 POP SWAP2 SWAP1 POP JUMP JUMPDEST PUSH0 PUSH2 0x1FFC DUP3 PUSH2 0x1286 JUMP JUMPDEST SWAP2 POP PUSH2 0x2007 DUP4 PUSH2 0x1286 JUMP JUMPDEST SWAP3 POP DUP3 DUP3 MUL PUSH2 0x2015 DUP2 PUSH2 0x1286 JUMP JUMPDEST SWAP2 POP DUP3 DUP3 DIV DUP5 EQ DUP4 ISZERO OR PUSH2 0x202C JUMPI PUSH2 0x202B PUSH2 0x19F1 JUMP JUMPDEST JUMPDEST POP SWAP3 SWAP2 POP POP JUMP INVALID LOG2 PUSH5 0x6970667358 0x22 SLT KECCAK256 REVERT MLOAD 0xC1 SWAP1 0xF8 0x23 0xDF SWAP10 0x2D 0xFB PUSH11 0x3BCAADF0C42CD9F3EF7B28 0xEC 0xEE 0xBA 0xAC 0xF6 PUSH27 0x3CC3AD7A64736F6C634300081A0033000000000000000000000000 "
				},
				"gasEstimates": {
					"creation": {
						"codeDepositCost": "1659400",
						"executionCost": "48120",
						"totalCost": "1707520"
					},
					"external": {
						"addPet(string,string,uint256)": "infinite",
						"adoptPet(uint256)": "infinite",
						"adoptionFeeRate()": "2536",
						"adoptionHistory(address,uint256)": "infinite",
						"deletePet(uint256)": "infinite",
						"getAdoptionHistory()": "infinite",
						"getAvailablePets()": "infinite",
						"getPetDetails(uint256)": "infinite",
						"owner()": "2528",
						"pets(uint256)": "infinite",
						"returnPet(uint256)": "infinite",
						"setAdoptionFeeRate(uint256)": "infinite",
						"totalPets()": "2470"
					},
					"internal": {
						"calculateAdoptionFee(uint256)": "infinite"
					}
				},
				"methodIdentifiers": {
					"addPet(string,string,uint256)": "ae37a1b5",
					"adoptPet(uint256)": "19b81577",
					"adoptionFeeRate()": "8a150da7",
					"adoptionHistory(address,uint256)": "39e776ae",
					"deletePet(uint256)": "d749e429",
					"getAdoptionHistory()": "3fb53d79",
					"getAvailablePets()": "4f154c54",
					"getPetDetails(uint256)": "d89fd4b4",
					"owner()": "8da5cb5b",
					"pets(uint256)": "cfb869bf",
					"returnPet(uint256)": "bdb92e8e",
					"setAdoptionFeeRate(uint256)": "5476fc70",
					"totalPets()": "987eae8f"
				}
			},
			"storageLayout": {
				"storage": [
					{
						"astId": 3,
						"contract": "contracts/project.sol:PetAdoption",
						"label": "owner",
						"offset": 0,
						"slot": "0",
						"type": "t_address"
					},
					{
						"astId": 28,
						"contract": "contracts/project.sol:PetAdoption",
						"label": "pets",
						"offset": 0,
						"slot": "1",
						"type": "t_mapping(t_uint256,t_struct(Pet)14_storage)"
					},
					{
						"astId": 34,
						"contract": "contracts/project.sol:PetAdoption",
						"label": "adoptionHistory",
						"offset": 0,
						"slot": "2",
						"type": "t_mapping(t_address,t_array(t_struct(AdoptionHistory)23_storage)dyn_storage)"
					},
					{
						"astId": 36,
						"contract": "contracts/project.sol:PetAdoption",
						"label": "totalPets",
						"offset": 0,
						"slot": "3",
						"type": "t_uint256"
					},
					{
						"astId": 38,
						"contract": "contracts/project.sol:PetAdoption",
						"label": "adoptionFeeRate",
						"offset": 0,
						"slot": "4",
						"type": "t_uint256"
					}
				],
				"types": {
					"t_address": {
						"encoding": "inplace",
						"label": "address",
						"numberOfBytes": "20"
					},
					"t_array(t_struct(AdoptionHistory)23_storage)dyn_storage": {
						"base": "t_struct(AdoptionHistory)23_storage",
						"encoding": "dynamic_array",
						"label": "struct PetAdoption.AdoptionHistory[]",
						"numberOfBytes": "32"
					},
					"t_mapping(t_address,t_array(t_struct(AdoptionHistory)23_storage)dyn_storage)": {
						"encoding": "mapping",
						"key": "t_address",
						"label": "mapping(address => struct PetAdoption.AdoptionHistory[])",
						"numberOfBytes": "32",
						"value": "t_array(t_struct(AdoptionHistory)23_storage)dyn_storage"
					},
					"t_mapping(t_uint256,t_struct(Pet)14_storage)": {
						"encoding": "mapping",
						"key": "t_uint256",
						"label": "mapping(uint256 => struct PetAdoption.Pet)",
						"numberOfBytes": "32",
						"value": "t_struct(Pet)14_storage"
					},
					"t_string_storage": {
						"encoding": "bytes",
						"label": "string",
						"numberOfBytes": "32"
					},
					"t_struct(AdoptionHistory)23_storage": {
						"encoding": "inplace",
						"label": "struct PetAdoption.AdoptionHistory",
						"members": [
							{
								"astId": 16,
								"contract": "contracts/project.sol:PetAdoption",
								"label": "petId",
								"offset": 0,
								"slot": "0",
								"type": "t_uint256"
							},
							{
								"astId": 18,
								"contract": "contracts/project.sol:PetAdoption",
								"label": "adoptionStartTime",
								"offset": 0,
								"slot": "1",
								"type": "t_uint256"
							},
							{
								"astId": 20,
								"contract": "contracts/project.sol:PetAdoption",
								"label": "adoptionEndTime",
								"offset": 0,
								"slot": "2",
								"type": "t_uint256"
							},
							{
								"astId": 22,
								"contract": "contracts/project.sol:PetAdoption",
								"label": "adoptionFee",
								"offset": 0,
								"slot": "3",
								"type": "t_uint256"
							}
						],
						"numberOfBytes": "128"
					},
					"t_struct(Pet)14_storage": {
						"encoding": "inplace",
						"label": "struct PetAdoption.Pet",
						"members": [
							{
								"astId": 5,
								"contract": "contracts/project.sol:PetAdoption",
								"label": "petName",
								"offset": 0,
								"slot": "0",
								"type": "t_string_storage"
							},
							{
								"astId": 7,
								"contract": "contracts/project.sol:PetAdoption",
								"label": "breed",
								"offset": 0,
								"slot": "1",
								"type": "t_string_storage"
							},
							{
								"astId": 9,
								"contract": "contracts/project.sol:PetAdoption",
								"label": "age",
								"offset": 0,
								"slot": "2",
								"type": "t_uint256"
							},
							{
								"astId": 11,
								"contract": "contracts/project.sol:PetAdoption",
								"label": "adopter",
								"offset": 0,
								"slot": "3",
								"type": "t_address"
							},
							{
								"astId": 13,
								"contract": "contracts/project.sol:PetAdoption",
								"label": "adoptionStartTime",
								"offset": 0,
								"slot": "4",
								"type": "t_uint256"
							}
						],
						"numberOfBytes": "160"
					},
					"t_uint256": {
						"encoding": "inplace",
						"label": "uint256",
						"numberOfBytes": "32"
					}
				}
			},
			"userdoc": {
				"kind": "user",
				"methods": {},
				"version": 1
			}
		}
	}
}